:100000000C94F5000C9412010C9412010C94120142
:100010000C9477020C9412010C9453020C9412016C
:100020000C9412010C9412010C9412010C94120104
:100030000C9412010C940A020C9412010C941201FB
:100040000C9412010C9412010C94E0010C94120116
:100050000C9412010C9412010C9412010C941201D4
:100060000C9412010C94120133056A07E504EE04A6
:10007000F6046A07FF041905E0046A076A076A07BD
:100080003A0592058005CA05DC051206D7047606F6
:10009000B30696069E068606C306F2066F0710078D
:1000A0002E074C07696E6600494E46006E616E0071
:1000B0004E414E0000407A10F35A00A0724E1809CB
:1000C0000010A5D4E80000E87648170000E40B54BF
:1000D000020000CA9A3B000000E1F505000080968E
:1000E0009800000040420F000000A08601000000C0
:1000F000102700000000E80300000000640000007A
:1001000000000A00000000000100000000002C7642
:10011000D888DC674F0823DFC1DFAE59E1B1B7965D
:10012000E5E3E453C63AE651997696E8E6C28426BA
:10013000EB898C9B62ED407C6FFCEFBC9C9F40F296
:10014000BAA56FA5F490055A2AF75C936B6CF96712
:100150006DC11BFCE0E40D47FEF520E6B500D0EDD7
:10016000902E0300943577050080841E080000203F
:100170004E0A000000C80C333333330F986E1283DD
:100180001141EF8D2114893BE65516CFFEE6DB18B1
:10019000D1844B381BF77C1D901DA4BBE424203276
:1001A00084725E228100C9F124ECA1E53D274E4115
:1001B0004E494E495459494E46CDCCCC3D0AD723E1
:1001C0003C17B7D13877CC2B329595E6241FB14F29
:1001D0000A000020410000C84200401C4620BCBE6E
:1001E0004CCA1B0E5AAEC59D740011241FBECFEF22
:1001F000D4E0DEBFCDBF11E0A0E0B1E0E6E1F9E27E
:1002000002C005900D92AA3CB107D9F722E0AAECF2
:10021000B1E001C01D92AE3AB207E1F70E94490277
:100220000C9489140C94000080B7806880BFB1984A
:10023000EFE6F0E08081816080830E94310A0E94B5
:10024000F70989E392ED9093850080938400E1E8BB
:10025000F0E08081856080833D9AEDE6F0E080816A
:100260008068808386EB90E00E9471120E946E0D80
:1002700085EB90E00E9471128130E9F010928A02C1
:100280001092890210928C0210928B0210928D02B1
:1002900010928E0210928F021092900248E050E06D
:1002A00066E070E089E892E00E94791261E085EBF7
:1002B00090E00E94891243E150E062E070E085E83E
:1002C00092E00E94611280919102909192029C01B1
:1002D00028553240293B3B4088F088E592E09093D6
:1002E000DC018093DB01909392028093910268E598
:1002F00072E08EE090E00E94A71204C09093DC01AF
:100300008093DB01E8E6F0E080818460808380E018
:100310000E94800488EB9BE09093D9018093D801E0
:1003200080E49DE0A3E0B0E08093DD019093DE01E6
:10033000A093DF01B093E0010E94B8048091CC014A
:100340009091CD01A091CE01B091CF010196A11D58
:10035000B11D8093CC019093CD01A093CE01B093B9
:10036000CF014091D8015091D90160E070E084172D
:100370009507A607B70718F40E94B10B02C00E94A8
:10038000B30B4091CC015091CD016091CE017091A1
:10039000CF018091DD019091DE01A091DF01B0914C
:1003A000E00184179507A607B70740F41092CC0127
:1003B0001092CD011092CE011092CF01A895BCCF22
:1003C0001F920F920FB60F9211242F933F934F93CA
:1003D0005F936F937F938F939F93AF93BF93EF93AD
:1003E000FF938091D701811104C08091C6000E94C3
:1003F0006504FF91EF91BF91AF919F918F917F9194
:100400006F915F914F913F912F910F900FBE0F9081
:100410001F9018951F920F920FB60F9211242F93D1
:100420003F934F935F936F937F938F939F93AF937C
:10043000BF93EF93FF938091DB019091DC010197D3
:100440009093DC018093DB01892B11F40E948F0DC6
:1004500089E392ED9093850080938400FF91EF9162
:10046000BF91AF919F918F917F916F915F914F91CC
:100470003F912F910F900FBE0F901F901895F894F9
:10048000A895E0E6F0E08081886180838FE4808336
:1004900008950E948C0D0E943F020E94B50B0E949D
:1004A000B10B0E9414011F920F920FB60F921124EC
:1004B0002F933F934F935F936F937F938F939F936C
:1004C000AF93BF93EF93FF930E948F0DFF91EF9136
:1004D000BF91AF919F918F917F916F915F914F915C
:1004E0003F912F910F900FBE0F901F9018951F9264
:1004F0000F920FB60F9211242F933F934F935F9358
:100500006F937F938F939F93AF93BF93EF93FF93DB
:100510005F9B6FC080919102909192029093DC0159
:100520008093DB010E94B10B2FE789EA93E0215011
:1005300080409040E1F700C000008091CA01909196
:10054000CB0101969093CB018093CA015F9907C0BC
:100550000E94B30B1092CB011092CA014AC0A89519
:10056000889708F443C02FEB84ED91E02150804040
:100570009040E1F700C0000044E650E06AE08CE102
:1005800091E00E94F80B2FE789EA93E02150804028
:100590009040E1F700C0000044E650E068E080E2EF
:1005A00091E00E94F80B459A2FE789EA93E02150E9
:1005B00080409040E1F700C000000E94B30B5F99BB
:1005C000FECF2FE78FE492E1215080409040E1F789
:1005D00000C000000E948F0D2FE78FE492E12150B0
:1005E00080409040E1F700C0000003C00E94B90BBA
:1005F0009BCFFF91EF91BF91AF919F918F917F9191
:100600006F915F914F913F912F910F900FBE0F907F
:100610001F90189581E08093D70164E271E081EE2C
:1006200091E00E94D411892B21F083E08093D601C0
:100630003BC168E271E081EE91E00E94D411892B08
:1006400021F089E08093D6012FC16CE271E081EE48
:1006500091E00E94D411892B21F084E08093D6018F
:1006600023C160E371E081EE91E00E94D411892BF7
:1006700021F087E08093D60117C160E271E081EE3E
:1006800091E00E94D411892B21F088E08093D6015B
:100690000BC164E371E081EE91E00E94D411892BDB
:1006A00021F08AE08093D601FFC067E371E081EE1C
:1006B00091E00E94D411892B21F08BE08093D60128
:1006C000F3C06DE371E081EE91E00E94D411892BBB
:1006D00021F085E08093D601E7C061E471E081EE0E
:1006E00091E00E94D411892B21F081E08093D60102
:1006F000DBC065E471E081EE91E00E94D411892BAA
:1007000021F08DE08093D601CFC069E471E081EEE5
:1007100091E00E94D411892B21F08EE08093D601C4
:10072000C3C06DE471E081EE91E00E94D411892B89
:1007300021F08FE08093D601B7C061E571E081EED2
:1007400091E00E94D411892B21F080E18093D601A1
:10075000ABC065E571E081EE91E00E94D411892B78
:1007600021F081E18093D6019FC069E571E081EEBF
:1007700091E00E94D411892B21F082E18093D6016F
:1007800093C06DE571E081EE91E00E94D411892B58
:1007900021F083E18093D60187C061E671E081EEAC
:1007A00091E00E94D411892B21F084E18093D6013D
:1007B0007BC065E671E081EE91E00E94D411892B47
:1007C00021F085E18093D6016FC069E671E081EE8A
:1007D00091E00E94D411892B21F086E18093D6010B
:1007E00063C06DE671E081EE91E00E94D411892B27
:1007F00021F087E18093D60157C061E771E081EE77
:1008000091E00E94D411892B21F088E18093D601D8
:100810004BC065E771E081EE91E00E94D411892B15
:1008200021F089E18093D6013FC069E771E081EE54
:1008300091E00E94D411892B21F08AE18093D601A6
:1008400033C06DE771E081EE91E00E94D411892BF5
:1008500021F08BE18093D60127C061E871E081EE41
:1008600091E00E94D411892B21F08CE18093D60174
:100870001BC065E871E081EE91E00E94D411892BE4
:1008800021F08DE18093D6010FC069E871E081EE1F
:1008900091E00E94D411892B21F08EE18093D60142
:1008A00003C01092D70108958091D501843050F093
:1008B00081E08093D40164EE71E085E492E00E94CF
:1008C000CD1108951092D40108958A3049F08D30E9
:1008D00061F4E091D501F0E0EF51FE4F10820895F0
:1008E0000E940A031092D5010895E091D50191E08C
:1008F0009E0F9093D501F0E0EF51FE4F8083089555
:10090000CF92DF92EF92FF92CF93C82FA8950E94CB
:1009100007096B017C01A8958C2F0E940709C60E60
:10092000D71EE81EF91EF694E794D794C794C09298
:100930009302D0929402E0929502F0929602CF91A7
:10094000FF90EF90DF90CF9008950F931F930E9438
:100950000709009193021091940220919502309121
:100960009602601B710B820B930B1F910F910895E0
:100970000F931F93CF93DF93CDB7DEB7C058D10944
:100980000FB6F894DEBF0FBECDBF8091D701813086
:1009900009F0B7C28091D60190E0FC013197EE31A9
:1009A000F10508F097C2EC5CFF4F0C94FD0F8DE54C
:1009B00091E00E94B70D8DE891E00E94B70D8FC2C3
:1009C00064E681E00E94900C9CC224E64AE06BE958
:1009D00071E080EA91E00E94410C93C244E650E04D
:1009E0006AE084EA91E00E94F80B8BC285E492E011
:1009F0000E94C7106093AB021092D70182C244E6F6
:100A000050E06AE088EA91E00E94F80B88EB9BE0F6
:100A10009093D9018093D80180EA96E8A1E0B0E0F4
:100A20008093DD019093DE01A093DF01B093E0019C
:100A300068C244E650E06AE084EA91E00E94F80B64
:100A400088EB9BE09093D9018093D80180E49DE0EE
:100A5000A3E0B0E08093DD019093DE01A093DF017D
:100A6000B093E0014EC286EB90E00E9471120E94AA
:100A70006E0D47C285E491E00E94B70D8091D401CC
:100A8000882381F185E492E00E94C71060317105EE
:100A9000810591054CF46093D0017093D10180934E
:100AA000D2019093D3010CC08FE090E0A0E0B0E0C1
:100AB0008093D0019093D101A093D201B093D30140
:100AC00000ED11E0D8016C9184E190E00E94891260
:100AD000EBE9F2E0D8019C919F708081807F892BA7
:100AE0008083FDC184E190E00E9471124AE0BE0162
:100AF0006F5F7F4F90E00E94EE110E94CC0DEFC11E
:100B00008091D401882359F085E492E00E94A910D5
:100B10000E94050B8DE491E00E94B70DE0C1109298
:100B2000D701EFC189E491E00E94B70D8091D40113
:100B30008823A1F085E492E00E94C7104CE3469F11
:100B40009001479F300D112430939202209391021F
:100B5000B9018EE090E00E94A712C1C120919102DC
:100B600030919202A9E8B8E80E9403109695879503
:100B7000929582958F7089279F708927BC0180E0AC
:100B800090E02AE0AE014F5F5F4F0E94F9110E9492
:100B9000CC0DA5C10E94E70A4AE0BE016F5F7F4FFE
:100BA00090E00E94EE1181E591E00E94B70DCE0128
:100BB00001960E94CC0D93C1BFEBE4EDF1E0B15082
:100BC000E040F040E1F700C0000044E650E06AE099
:100BD0008CE191E00E94F80B2FE789EA93E0215025
:100BE00080409040E1F700C0000024E64AE065E460
:100BF00072E08CEA91E00E94410CAFE7B9EAE3E0D1
:100C0000A150B040E040E1F700C0000044E650E0F1
:100C10006AE088EA91E00E94F80B85E591E00E9485
:100C2000B70D5DC18091D401882309F44BC085E4E0
:100C300092E00E94A910182F863008F040C0FFE70C
:100C400022E382E0F15020408040E1F700C0000044
:100C500044E650E06AE08CE191E00E94F80B8A30B3
:100C600009F03DC168EC812F0E94D80C8A3009F050
:100C700036C19FEFA5EABEE09150A040B040E1F739
:100C800000C000004CE251E06AE088EA91E00E9476
:100C9000F80B8A3009F023C1EFE7F2E322E0E150DC
:100CA000F0402040E1F700C00000612F86EB90E0AB
:100CB0000E94891289E591E00E94B70D10C110923F
:100CC000D7011FC186EB90E00E9471124AE0BE017D
:100CD0006F5F7F4F90E00E94EE1189E591E00E94E6
:100CE000B70DCE0101960E94CC0DF9C081E691E0CE
:100CF0000E94B70D80E00E9407092AE0AE014F5F15
:100D00005F4F0E94F9110E94CC0DE9C081E791E08C
:100D10000E94B70D86E00E9448092AE0AE014F5FAD
:100D20005F4F0E94F9110E94CC0DD9C080E00E9453
:100D3000800489E691E00E94B70DD1C08DE691E074
:100D40000E94B70D60919302709194028091950278
:100D5000909196022AE0AE014F5F5F4F0E94F91119
:100D60000E94B70DBCC085E691E00E94B70D80E0FF
:100D70000E94A5042AE0AE014F5F5F4F0E94F91167
:100D80000E94CC0DACC085E791E00E94B70D809128
:100D9000D401882399F085E492E00E94A510AB016C
:100DA000BC01409385025093860260938702709342
:100DB000880282E090E00E949B1291C060918502BF
:100DC00070918602809187029091880200E025E070
:100DD000AE014F5F5F4F0E941210CE0101960E943C
:100DE000CC0D7DC089E791E00E94B70D8091D401C0
:100DF000882349F040E450E065E770E085E492E044
:100E00000E9479126CC040E450E065E770E0CE01CA
:100E100001960E946112CE0101960E94CC0D5FC026
:100E200081E891E00E94B70D8091D401882349F0B8
:100E300040E250E065E170E085E492E00E947912C2
:100E40004EC040E250E065E170E0CE0101960E94A4
:100E50006112CE0101960E94CC0D41C085E891E05F
:100E60000E94B70D8091D401882349F040E250E000
:100E700065E370E085E492E00E94791230C040E2C0
:100E800050E065E370E0CE0101960E946112CE0150
:100E900001960E94CC0D23C089E891E00E94B70D15
:100EA0008091D401882349F040E250E065E570E08C
:100EB00085E492E00E94791212C040E250E065E5BC
:100EC00070E0CE0101960E946112CE0101960E944F
:100ED000CC0D05C01092D6011092D70112C082EC41
:100EE00091E00E94B70D1092D4011092D601109299
:100EF000D70180919102909192029093DC018093AE
:100F0000DB01C058DF4F0FB6F894DEBF0FBECDBF78
:100F1000DF91CF911F910F910895E0910801F09119
:100F20000901808180648083E0910801F0910901CA
:100F30008081877C80628083F8942A98E0911001F8
:100F4000F09111018091980209952C99FECFE091C2
:100F50000C01F0910D01099580939A0278940895FF
:100F60002A98E0911001F09111018FEF0995E0911D
:100F70001001F09111018FEF0995E0911001F091AE
:100F800011018FEF0995E0911001F09111018FEFA0
:100F900009958BED95E00197F1F700C000000895E9
:100FA000CF92DF92EF92FF92CF93F894E0911001ED
:100FB000F09111018091980209952C99FECF8091B2
:100FC0009A028B7569F0E0910C01F0910D01099581
:100FD000C82ED12CE12CF12C7601DD24CC2403C0C9
:100FE000C12CD12C7601E0910C01F0910D010995F5
:100FF000C82FE0910C01F0910D010995A701960110
:10100000282BDA01C9017894BC01CD017C2BCF914A
:10101000FF90EF90DF90CF900895CF92DF92EF9204
:10102000FF92CF93DF9380919A028B7599F0E091B4
:101030000C01F0910D01099590E0A0E0B0E0DC0119
:101040009927882780939F029093A002A093A102E2
:10105000B093A202CFE9D2E0C880D980EA80FB80B9
:10106000E0910C01F0910D010995D82AC882D9822E
:10107000EA82FB82E0910C01F0910D010995C82AEA
:10108000C882D982EA82FB82DF91CF91FF90EF90F4
:10109000DF90CF9008950F931F93CF93DF93E0914C
:1010A0000801F0910901808180648083E09108014A
:1010B000F09109018081877C88608083F8942A9868
:1010C000E0911001F09111018091980209952C99FD
:1010D000FECFE0910C01F0910D010995082F10E071
:1010E000102F0027CBE9D2E019830883E0910C018F
:1010F000F0910D0109959801282BC90199838883E6
:101100007894DF91CF911F910F910895E09108019C
:10111000F091090180818F7B8083E0910801F0913B
:1011200009018081877C88608083F8942A98E09107
:101130001001F0911101809198020995E0910E0142
:10114000F0910F0180919B0290919C0209957894F7
:1011500008950F931F93CF93DF93E0910801F091CF
:101160000901808180648083E0910801F091090188
:101170008081877C80618083F8942A98E0911001B7
:10118000F09111018091980209952C99FECFE09180
:101190000C01F0910D010995082F10E0102F002788
:1011A000CDE9D2E019830883E0910C01F0910D01A3
:1011B00009959801282BC901998388837894DF9138
:1011C000CF911F910F910895E0910801F0910901CD
:1011D00080818F7B8083E0910801F09109018081FB
:1011E000877C80618083F8942A98E0911001F091C7
:1011F0001101809198020995E0910E01F0910F0183
:1012000080919D0290919E02099578940895299A63
:1012100090E59A95F1F7F894E0910601F0910701B5
:10122000982F97708081887F892B80832A98E091FE
:101230000401F091050181818F71806281830E9498
:10124000E4080E9486082C99FECFE0910801F091F5
:101250000901808180648083E0910801F091090197
:101260008081877C88618083E0911001F091110179
:101270008091980209950E940D08789429986091B0
:101280009F027091A0028091A1029091A202089504
:101290000F931F93CF93DF9300919D0210919E02B5
:1012A000C0919B02D0919C02F894E0910601F091CC
:1012B0000701982F97708081887F892B80832A98D7
:1012C000E0910601F091070181818F7E8183E09199
:1012D0000401F091050181818F71806281830E94F8
:1012E000E4080E9486082C99FECFE0910801F09155
:1012F0000901808180648083E0910801F0910901F7
:101300008081877C88618083E0911001F0911101D8
:101310008091980209950E940D08789410939E027E
:1013200000939D02D0939C02C0939B0260919F0208
:101330007091A0028091A1029091A202DF91CF91C1
:101340001F910F910895CF93C82FE0910601F0915E
:101350000701862F87706081687F682B60830E94F9
:10136000E408E0910401F09105019C2F9295990FFA
:10137000907E81818F71892B8183299A80E58A955E
:10138000F1F70E9486082C99FECF2998E091080178
:10139000F09109018081806480832A98CD7FC430D8
:1013A00099F4E0910801F09109018081877C8063C4
:1013B00080830E94D0076093A3027093A40280935D
:1013C000A5029093A60211C0E0910801F0910901D5
:1013D0008081886380830E94D0076093A702709306
:1013E000A8028093A9029093AA02CF910895E09158
:1013F0001201F091130109952A9A219A0E94B007CF
:101400000E944B080E94A9080E948D07E0910601E6
:10141000F0910701818180618183E0910601F09163
:10142000070181818F7D8183E0910A01F0910B0199
:1014300080910201909103010995EBE9F2E08F7030
:101440009081907F892B80830E9486080E94E40807
:1014500060E084E00E94A30966E084E00E94A309A2
:101460000895AAE7B0E08C9180688C93ECE7F0E0F7
:1014700080818F7D808380818F778083808180646D
:1014800080838081807F80838081876080838C914E
:10149000887F8C938C9187608C930895CF93DF9392
:1014A00000D0CDB7DEB78091780089838091790034
:1014B0008A8389819A810F900F90DF91CF9108954F
:1014C000EF92FF920F931F93CF93DF93CDB7DEB7C9
:1014D00028970FB6F894DEBF0FBECDBFFE01319640
:1014E00088E0DF011D928A95E9F70AE710E07E01A6
:1014F000B9E0EB0EF11C8D819E8198878F838B81E3
:101500009C819E838D8389819A819C838B8378942F
:10151000F801808180648083D8018C9184FFFCCFA6
:101520000E944E0A9A838983FE013196AC01219173
:101530003191821793070CF4C901241735070CF475
:10154000A901EE15FF0599F74A5F5F4F4817590744
:1015500094F228960FB6F894DEBF0FBECDBFDF9190
:10156000CF911F910F91FF90EF900895FF920F93ED
:101570001F93CF93DF93A895ECE7F0E09081907FE5
:1015800090839081892B80830E94600A6894FF2455
:10159000F3F800E010E0CAE7D0E0A8958881806405
:1015A0008883888184FFFDCF0E944E0A080F191F8F
:1015B000FA9499F7C801969587959695879596958B
:1015C0008795DF91CF911F910F91FF900895CF9351
:1015D000DF9387E00E94B60AC0910001D09101011B
:1015E0002A813B81821B930BBC0180E090E00E942A
:1015F000E40E2C813D814E815F810E94500E0E943D
:10160000B80E862FDF91CF910895CF92DF92EF929F
:10161000FF920F931F93CF93DF93082F853608F027
:1016200004E618E0C0E0D0E087E00E94B60AC80FE8
:10163000D91F1150C9F7E0910001F0910101D69531
:10164000C795D695C795D695C795D183C083C091C8
:101650000001D0910101602F70E080E090E00E94D5
:10166000E60E2AE037ED43E25CE30E94760F2AE9BA
:1016700039E949E450E40E94EC0D6B017C0168817A
:10168000798180E090E00E94E40E9B01AC01C701EB
:10169000B6010E94500E9B01AC016DEC7CEC84E81D
:1016A00090E40E94500E6B017C0120E030E040E8A5
:1016B00054E40E94720F181644F40F2EC12CD12C42
:1016C000F0E8EF2EF4E4FF2EF02DC701B6010E94E2
:1016D000B80E79836883C0910001D09101016881BF
:1016E000798180E090E00E94E40E6B017C019B0117
:1016F000AC016DEC7CEC84E890E40E94500E9B0100
:10170000AC016AE979E989E490E40E94500E0E94F4
:10171000B80E7B836A8380E090E00E94E40E9B0118
:10172000AC01C701B6010E94EB0D20E030E048ECAF
:1017300052E40E94500E6C837D838E839F83609160
:1017400000007091010048E050E0CE010E94791243
:10175000DF91CF911F910F91FF90EF90DF90CF908D
:101760000895289A089528980895209A0E94B30B06
:10177000089595B181E0892785B908951092D70120
:10178000459A2FE339E191E0215030409040E1F754
:1017900000C000004598EFE7FEEE26E3E150F04080
:1017A0002040E1F700C000008823E1F09091D701CC
:1017B000913071F404C09091D701913049F41092A6
:1017C000D7018091D6018B3079F0813079F408957A
:1017D000E7EBFBE03197F1F700C00000815059F7CB
:1017E0008CE008958CE008958BE0089583E00895DF
:1017F000FF920F931F93CF93DF938C01F62EEA0194
:101800001092D701E0911A01F0911B0185EC91E053
:101810000995E0911A01F0911B01C8010995E09129
:101820001A01F0911B0182EC91E00995209701F1DA
:10183000A8958091D701813081F405C0A895809149
:10184000D701813051F41092D7018091D6018B30AD
:1018500089F08F1581F080E00EC087EB9BE0019747
:10186000F1F700C000002197209741F78CE003C0FA
:101870008CE001C08BE0DF91CF911F910F91FF9021
:101880000895EF92FF920F931F93CF93DF938C01F4
:10189000EB01E42EF22E1092D701E0911A01F091A3
:1018A0001B0185EC91E00995E0911A01F0911B0173
:1018B000C8010995E0911A01F0911B01CE0109952B
:1018C000E0911A01F0911B0182EC91E00995FF2053
:1018D000E9F08091D701813079F404C08091D7017B
:1018E000813051F41092D7018091D6018B3081F074
:1018F0008E1579F080E00DC087EB9BE00197F1F742
:1019000000C00000FA9451F78CE003C08CE001C0E5
:101910008BE0DF91CF911F910F91FF90EF90089591
:10192000CF93DF93D82FC62F1092D701E0911A01E1
:10193000F0911B0185EC91E00995E0911A01F0917D
:101940001B0180EB91E00995E0911801F0911901DC
:1019500080E38D0F0995E0911A01F0911B0182EC53
:1019600091E00995CC23E1F08091D701813071F4A9
:1019700004C08091D701813049F41092D701809141
:10198000D6018B3079F08A3079F40FC087EB9BE079
:101990000197F1F700C00000C15059F78CE005C075
:1019A0008CE003C08BE001C080E0DF91CF9108950F
:1019B000CF93DF93D82FC62F8FEF8D0F853008F090
:1019C00048C01092D701E0911A01F0911B0185ECFB
:1019D00091E00995E0911A01F0911B0184EB91E0EF
:1019E0000995E0911801F091190180E38D0F099597
:1019F000E0911A01F0911B0182EC91E00995A89504
:101A0000CC2349F18091D7018130C9F404C0909171
:101A1000D7019130A1F41092D7018091D6018B307B
:101A2000E1F08A30E1F4AD2FB0E0A454BE4FE09174
:101A30001401F09115018C9109958AE011C087EB92
:101A40009BE00197F1F700C00000C15001F78CE066
:101A500007C08BE005C08CE003C08BE001C08CE0C8
:101A6000DF91CF9108950F931F93CF93DF93062FAC
:101A70007894863008F081E0A82FB0E0A454BE4FDF
:101A8000E0911401F09115018C910995A895802F92
:101A90000E94BE0B8130D1F0CDEBD1E011E0E0919E
:101AA0001401F091150189910995A895802F0E9444
:101AB000BE0B813039F4612F86EB90E00E948912D1
:101AC0008AE007C01F5F163051F702C08AE001C0EC
:101AD0008BE0DF91CF911F910F910895CF93C82F85
:101AE000E0911601F0911701099564E68C2F0E9490
:101AF000330D8A3009F0FFCF44E650E06AE088EB0E
:101B000091E00E94F80B44E650E06AE084EA91E03C
:101B10000E94F80BCF910895569A5E9A08955698B0
:101B2000089584B18C6284B98CE58CBD8DB58160DB
:101B30008DBD08958EBD0DB407FEFDCF0895CF93E2
:101B4000C82F892F0E949A0D8C2F0E949A0DCF9139
:101B500008951EBC0DB407FEFDCF8EB50895E0ECD0
:101B6000F0E0908195FFFDCF8093C60008951F930C
:101B7000CF93DF93EC018881882351F010E00E941D
:101B8000AF0D1F5FFE01E10FF11D80818111F7CFC5
:101B9000DF91CF911F9108951F93CF93DF93EC01B5
:101BA0008881882351F010E00E94AF0D1F5FFE0175
:101BB000E10FF11D80818111F7CFDF91CF911F914E
:101BC00008958093C400089588E98093C10086E059
:101BD0008093C20008955058BB27AA270ED048C151
:101BE00039D130F03ED120F031F49F3F11F41EF492
:101BF0002EC10EF4E095E7FB24C1E92F4AD180F312
:101C0000BA17620773078407950718F071F49EF5F9
:101C100062C10EF4E0950B2EBA2FA02D0B01B90175
:101C200090010C01CA01A0011124FF27591B99F052
:101C3000593F50F4503E68F11A16F040A22F232F5E
:101C4000342F4427585FF3CF469537952795A795AE
:101C5000F0405395C9F77EF41F16BA0B620B730B55
:101C6000840BBAF09150A1F0FF0FBB1F661F771FC6
:101C7000881FC2F70EC0BA0F621F731F841F48F47B
:101C8000879577956795B795F7959E3F08F0B3CF01
:101C90009395880F08F09927EE0F979587950895EB
:101CA0000CD0E6C0DED040F0D5D030F021F45F3F5C
:101CB00019F0C7C0511110C1CAC0EBD098F39923D5
:101CC000C9F35523B1F3951B550BBB27AA27621700
:101CD0007307840738F09F5F5F4F220F331F441F45
:101CE000AA1FA9F333D00E2E3AF0E0E830D091507D
:101CF0005040E695001CCAF729D0FE2F27D0660F6A
:101D0000771F881FBB1F261737074807AB07B0E8A8
:101D100009F0BB0B802DBF01FF2793585F4F2AF0BE
:101D20009E3F510568F08DC0D7C05F3FECF3983EF1
:101D3000DCF3869577956795B795F7959F5FC9F71B
:101D4000880F911D9695879597F90895E1E0660FA4
:101D5000771F881FBB1F621773078407BA0720F01D
:101D6000621B730B840BBA0BEE1F88F7E095089586
:101D700098D088F09F5790F0B92F9927B751A0F0CD
:101D8000D1F0660F771F881F991F1AF0BA95C9F70F
:101D900012C0B13081F09FD0B1E008959CC0672F90
:101DA000782F8827B85F39F0B93FCCF386957795BF
:101DB0006795B395D9F73EF49095809570956195A8
:101DC0007F4F8F4F9F4F0895E89409C097FB3EF4D3
:101DD00090958095709561957F4F8F4F9F4F992378
:101DE000A9F0F92F96E9BB279395F69587957795F6
:101DF0006795B795F111F8CFFAF4BB0F11F460FFB6
:101E00001BC06F5F7F4F8F4F9F4F16C0882311F00D
:101E100096E911C0772321F09EE8872F762F05C021
:101E2000662371F096E8862F70E060E02AF09A95BC
:101E3000660F771F881FDAF7880F9695879597F9B1
:101E4000089597F99F6780E870E060E008959FEF3C
:101E500080EC089500240A94161617061806090641
:101E6000089500240A941216130614060506089510
:101E7000092E0394000C11F4882352F0BB0F40F498
:101E8000BF2B11F460FF04C06F5F7F4F8F4F9F4FD8
:101E9000089557FD9058440F551F59F05F3F71F05A
:101EA0004795880F97FB991F61F09F3F79F08795C1
:101EB0000895121613061406551FF2CF4695F1DF4A
:101EC00008C0161617061806991FF1CF86957105DA
:101ED000610508940895E894BB2766277727CB010E
:101EE00097F9089566D008F48FEF08950BD0C0CF0E
:101EF000B1DF28F0B6DF18F0952309F0A2CFA7CF05
:101F00001124EACFC6DFA0F3959FD1F3950F50E0DF
:101F1000551F629FF001729FBB27F00DB11D639F9B
:101F2000AA27F00DB11DAA1F649F6627B00DA11D41
:101F3000661F829F2227B00DA11D621F739FB00DE7
:101F4000A11D621F839FA00D611D221F749F332757
:101F5000A00D611D231F849F600D211D822F762FF0
:101F60006A2F11249F5750408AF0E1F088234AF0ED
:101F7000EE0FFF1FBB1F661F771F881F9150504039
:101F8000A9F79E3F510570F05CCFA6CF5F3FECF301
:101F9000983EDCF3869577956795B795F795E79525
:101FA0009F5FC1F7FE2B880F911D9695879597F936
:101FB0000895990F0008550FAA0BE0E8FEEF1616DA
:101FC0001706E807F907C0F012161306E407F5072D
:101FD00098F0621B730B840B950B39F40A2661F0A1
:101FE000232B242B252B21F408950A2609F4A14044
:101FF000A6958FEF811D811D0895EE0FFF1F05909F
:10200000F491E02D0994A29FB001B39FC001A39F5A
:10201000700D811D1124911DB29F700D811D112421
:10202000911D0895A1E0B0E0E8E1F0E10C945C14AA
:102030006A01102F322F283008F037E000E0232FFC
:10204000A60139830E94EE10D6019C91292F287099
:102050003981760190FF09C0211107C0BFEFEB1A4B
:10206000FB0A2DE2F601208313C011FF07C0FFEF2A
:10207000EF1AFF0A4BE2D6014C9308C010FF06C0CE
:10208000BFEFEB1AFB0A40E2F6014083211105C0C5
:1020900092FF0DC064EA70E002C06CEA70E012FFCB
:1020A00002C06C5F7F4FC7010E94C61149C0F70193
:1020B0003196D60111962C91D7012C93213309F03A
:1020C0009F7E3323D1F0AF01B6016E5F7F4F7B015E
:1020D0006EE2732F7E0DD7012D917D01DA016D9394
:1020E000AD017E1511F0622FF6CF3150DF01A30F45
:1020F000B11DFD01329611962C9312FF02C025E40A
:1021000001C025E62083DF01129687FF04C09DE20F
:102110009183819508C0811104C094FF02C09DE2A3
:1021200001C09BE2918390E38A301CF09F5F8A504C
:10213000FBCF9C93805D11968C93119712961C9205
:10214000C6012196E8E00C947814662777270C9452
:10215000AD12FC0188279927E89421912032E9F3F8
:10216000293010F02E30C8F32B3241F02D3239F4E3
:10217000689404C00E941D12820F911D219120536A
:102180002A30C0F31EF4909581959F4F08951F93B8
:10219000FC0199278827BC01E89411911032E9F3DA
:1021A000193010F01E30C8F31B3251F01D3249F4C3
:1021B000689406C00E940812610F711D811D911D57
:1021C000119110531A30B0F33EF4909580957095AC
:1021D00061957F4F8F4F9F4F1F910895283008F0D2
:1021E00027E03327DA01990F311D87FD91600096B2
:1021F0006105710539F432602E5F3D9330E32A9515
:10220000E1F708959F3F30F080387105610509F0CE
:102210003C5F3C5F3D93913008F08068911DDF93F7
:10222000CF931F930F93FF92EF92192F987F96955C
:10223000E92F96959695E90FFF27E25FFE4F9927C4
:102240003327EE24FF24A701E701059008940794A3
:1022500028F4360FE71EF81E491F511D660F771F21
:10226000881F991F0694A1F70590079428F4E70E9C
:10227000F81E491F561FC11D770F881F991F661F23
:102280000694A1F70590079428F4F80E491F561FED
:10229000C71FD11D880F991F661F771F0694A1F7CE
:1022A0000590079420F4490F561FC71FD81F990F98
:1022B000661F771F881F0694A9F7849110951770E1
:1022C00041F0D695C79557954795F794E7941A9599
:1022D000C1F7E4EBF0E068941590159135916591A4
:1022E000959105907FE27395E118F10A430B560B27
:1022F000C90BD009C0F7E10CF11E431F561FC91FBF
:10230000D01D7EF4703311F48A95E6CFE894015025
:1023100030F0080F0AF40027021708F4202F239545
:10232000022F7A3328F079E37D932A95E9F710C0DC
:102330007D932A9589F60694979567953795179515
:102340001794E118F10A430B560BC90BD00998F00A
:1023500023957E9173957A3308F070E37C93201374
:10236000B8F77E9170617D9330F0839571E37D9332
:1023700070E32A95E1F71124EF90FF900F911F91E0
:10238000CF91DF91992787FD90950895FB01DC019E
:1023900005900D920020E1F70895FB01DC0101900A
:1023A0000D920020E1F70895FB0151915523A9F00A
:1023B000BF01DC014D9145174111E1F759F4CD0101
:1023C0000190002049F04D9140154111C9F3FB01E6
:1023D0004111EFCF81E090E001970895BB274A308B
:1023E00031F4992322F4BDE2909581959F4F0C948E
:1023F0004812BB272A3051F4992342F4BDE290954C
:102400008095709561957F4F8F4F9F4F0C9426124A
:10241000592F482F372F262F660F771F881F991F98
:10242000660F771F881F991F620F731F841F951FE8
:10243000660F771F881F991F08957AE0979F902D48
:10244000879F802D910D11240895BB27FA01A62F97
:102450006217710581059105330B30FB66F0AA27E1
:10246000660F771F881F991FAA1FA21710F0A21BC3
:1024700063953850A9F7A05DAA3308F0A95DA19330
:1024800036F7B111B1931082CA010C943014BB27F6
:10249000FB015527AA27880F991FAA1FA41710F020
:1024A000A41B83955051B9F7A05DAA3308F0A95D2C
:1024B000A193009779F7B111B1931192CB010C94CC
:1024C0003014DC01CB01FC01F999FECF06C0F2BD4E
:1024D000E1BDF89A319600B40D9241505040B8F7E2
:1024E0000895F999FECF92BD81BDF89A992780B5DC
:1024F0000895DC01A40FB51F4150504048F0CB01B6
:10250000840F951F2E910E948A1241505040D0F79F
:102510000895262FF999FECF92BD81BDF89A0197B3
:1025200000B4021639F01FBA20BD0FB6F894FA9A1B
:10253000F99A0FBE08950396272F0E948A120E94CF
:102540008912252F0E948A12242F0C948A12019638
:10255000272F0E948A120C948912A0E0B0E0E3EBCE
:10256000F2E10C9458148B016115710521F0DB0127
:102570008C9311969C93EC015E01BFEFAB1ABB0AE2
:102580007501C8808C2D90E00E941014892B11F0E9
:10259000E501F2CFEDE2CE1208C07E01F2E0EF0ECF
:1025A000F11CC980DD24D39409C02BE2C21205C0FE
:1025B0007E0142E0E40EF11CC980D12CE701219795
:1025C00043E050E066EB71E0CE010E941814892BC5
:1025D000C1F4239645E050E061EB71E0CE010E942A
:1025E0001814892B09F425960115110519F0D80145
:1025F000CD93DC93D11006C160E070E080E89FE7E6
:102600000AC143E050E06EEA71E0CE010E94181466
:10261000892B59F40115110509F4F9C0B2E0EB0E4C
:10262000F11CF801F182E082F2C0F70160E070E095
:10263000CB01C0E0D0E07F01A0EDAA2EAC0C29E0D8
:102640002A1530F14D2D4260B42E2D2D2870D2FE6A
:1026500004C0211125C0219623C021112197A5E096
:10266000B0E09B01AC010E944714660F771F881FE2
:10267000991F6A0D711D811D911D6839A9E97A079D
:102680008A07A9E19A0760F0BD2DB660BB2E08C08D
:102690002EEFA2120AC0D3FC50C04D2D4860B42EBC
:1026A0003196D701CC90DB2CC6CF2C2D2F7D253435
:1026B00009F043C0A081AD3241F4BD2DB061DB2EE5
:1026C0007F0122E0E20EF11C0CC07F01AB3231F041
:1026D0004FEFE41AF40A21E030E006C0A2E0EA0E6F
:1026E000F11CA18122E030E0A053AA3018F0E21AD8
:1026F000F30A23C0F70120E030E02038BCE03B07BC
:102700005CF4A901440F551F440F551F240F351FBA
:10271000220F331F2A0F311DAF014F5F5F4F7A0128
:10272000A081A053AA3010F4FA01E7CFD4FE03C071
:10273000319521953109C20FD31FD1FE09C0011572
:10274000110531F0E1E0EE1AF108D801ED92FC92AA
:102750000E94E40E2D2D2370233019F04B015C01F3
:1027600006C04B015C01B7FAB094B7F8B09420E012
:1027700030E0A901C501B4010E944014882309F486
:102780003EC0D7FF06C0D195C195D1090DEC11E02F
:1027900002C005EE11E06801B8E1CB1AD10890E261
:1027A000E92EF12CCE15DF0574F0F8012591359155
:1027B00045915491C501B4010E94760F4B015C0113
:1027C000CE19DF09EFCF04501109F594E7940C15E9
:1027D0001D0541F78A2D880F8B2D881F8F3F49F0EB
:1027E00020E030E0A901C501B4010E94401481112C
:1027F00006C082E290E09093AD028093AC02C501E6
:10280000B40109C060E070E080E89FEF04C060E0C0
:1028100070E080EC9FE7CDB7DEB7ECE00C94741469
:10282000911132C0803219F089508550D0F7089547
:10283000FB01DC014150504088F08D9181341CF047
:102840008B350CF4805E659161341CF06B350CF4B3
:10285000605E861B611171F3990B0895881BFCCF94
:10286000DC01FC01672F71917723E1F7329704C0F7
:102870007C916D9370836291AE17BF07C8F3089582
:1028800098DB08F481E008959927882708950E942D
:102890000310A59F900DB49F900DA49F800D911DD6
:1028A000112408952F923F924F925F926F927F92E0
:1028B0008F929F92AF92BF92CF92DF92EF92FF9250
:1028C0000F931F93CF93DF93CDB7DEB7CA1BDB0BFC
:1028D0000FB6F894DEBF0FBECDBF09942A883988A1
:1028E00048885F846E847D848C849B84AA84B984A8
:1028F000C884DF80EE80FD800C811B81AA81B981B4
:10290000CE0FD11D0FB6F894DEBF0FBECDBFED01C7
:062910000895F894FFCFCA
:10291600890214009B029D0298027112A90D9F0D57
:102926009A0D910DE10DE40DAF0DB70D454E440026
:1029360044534300525150005343510050524400F7
:10294600434F4E004F4B004552524F520052505487
:1029560000504F4E0046414400544F4600434254F7
:102966000047425400534E410042535400565253BE
:10297600004443480044434F0053434F0047434FEE
:102986000044544D0043544D0044415400434454C4
:102996000053474400554744005047440057656973
:1029A6006768745363616C65733400313233340085
:1029B600504E550050415200534E44004E414D007A
:1029C6005343520042415500574B5000004D2612CA
:0A29D6000C050D0A00415423000017
:00000001FF
