:100000000C94D7000C94F4000C94F4000C94F400BD
:100010000C942F080C94F4000C940B080C94F4002E
:100020000C94F4000C94F4000C94F4000C94F40080
:100030000C94F4000C9485070C94F4000C94F400D8
:100040000C94BF070C94F4000C945B070C94F40020
:100050000C94F4000C94F4000C94F4000C94F40050
:100060000C94F4000C94F400696E6600494E46004E
:100070006E616E004E414E0000407A10F35A00A0AF
:10008000724E18090010A5D4E80000E87648170061
:1000900000E40B54020000CA9A3B000000E1F505A1
:1000A000000080969800000040420F000000A086EB
:1000B00001000000102700000000E803000000001D
:1000C0006400000000000A000000000001000000C1
:1000D00000002C76D888DC674F0823DFC1DFAE59DB
:1000E000E1B1B796E5E3E453C63AE651997696E86E
:1000F000E6C28426EB898C9B62ED407C6FFCEFBCF2
:100100009C9F40F2BAA56FA5F490055A2AF75C931C
:100110006B6CF9676DC11BFCE0E40D47FEF520E652
:10012000B500D0ED902E0300943577050080841E35
:10013000080000204E0A000000C80C333333330F90
:10014000986E12831141EF8D2114893BE65516CF2D
:10015000FEE6DB18D1844B381BF77C1D901DA4BB39
:10016000E424203284725E228100C9F124ECA1E5EE
:100170003D274E414E494E495459494E46CDCCCC6F
:100180003D0AD7233C17B7D13877CC2B329595E66B
:10019000241FB14F0A000020410000C84200401C4B
:1001A0004620BCBE4CCA1B0E5AAEC59D740011241D
:1001B0001FBECFEFD4E0DEBFCDBF12E0A0E0B1E0C4
:1001C000E2EEF5E202C005900D92A63BB107D9F729
:1001D00023E0A6EBB2E001C01D92A03CB207E1F71C
:1001E0000E9401080C94EF120C9400002A98E091F0
:1001F0000A01F0910B018FEF0995E0910A01F0914E
:100200000B018FEF0995E0910A01F0910B018FEF3F
:100210000995E0910A01F0910B018FEF099589E9A9
:1002200093E00197F1F700C00895CF92DF92EF922B
:10023000FF92CF93DF938091BF028B7599F0E0918D
:100240000601F0910701099590E0A0E0B0E0DC0123
:10025000992788278093C4029093C502A093C60271
:10026000B093C702C4ECD2E0C880D980EA80FB809A
:10027000E0910601F09107010995D82AC882D98238
:10028000EA82FB82E0910601F09107010995C82AF4
:10029000C882D982EA82FB82DF91CF91FF90EF90F2
:1002A000DF90CF900895E1ECF0E08081806880835A
:1002B000EFE6F0E0808181608083EEE6F0E080810F
:1002C000816080830895E0910401F09105018081AF
:1002D0008F7B8083E0910401F09105018081877C10
:1002E000886080830E9453012A98E0910A01F0916E
:1002F0000B018091BD020995E0910801F09109017F
:100300008091C0029091C10209950E945301089505
:10031000E1ECF0E080818F778083EEE6F0E0808191
:100320008E7F8083EFE6F0E080818E7F808308956A
:10033000CF93DF93E0910401F09105018081806407
:100340008083E0910401F09105018081877C8062C7
:1003500080830E9488012A98E0910A01F0910B01A4
:100360008091BD0209951C99FECFE0910601F091A4
:1003700007010995CFEBD2E088830E945301888161
:10038000DF91CF910895CF92DF92EF92FF92CF93BA
:100390000E948801E0910A01F0910B018091BD0259
:1003A00009951C99FECF8091BF028B7569F0E09191
:1003B0000601F09107010995C82ED12CE12CF12CF2
:1003C0007601DD24CC2403C0C12CD12C7601E09130
:1003D0000601F09107010995C82FE0910601F091FF
:1003E00007010995C82ADC2A0E945301C701B601FA
:1003F000CF91FF90EF90DF90CF9008950F931F93D0
:10040000CF93DF93E0910401F09105018081806436
:100410008083E0910401F09105018081877C8860F0
:1004200080830E9488012A98E0910A01F0910B01D3
:100430008091BD0209951C99FECFE0910601F091D3
:1004400007010995082F10E0102F0027C0ECD2E01B
:1004500019830883E0910601F09107010995082BA3
:10046000198308830E94530188819981DF91CF917C
:100470001F910F9108950F931F93CF93DF93E091F6
:100480000401F0910501808180648083E091040182
:10049000F09105018081877C806180830E948801C2
:1004A0002A98E0910A01F0910B018091BD02099513
:1004B0001C99FECFE0910601F09107010995082FE4
:1004C00010E0102F0027C2ECD2E019830883E091DE
:1004D0000601F09107010995082B198308830E94F2
:1004E000530188819981DF91CF911F910F910895D8
:1004F000E0910401F091050180818F7B8083E09180
:100500000401F09105018081877C806180830E94D5
:1005100088012A98E0910A01F0910B018091BD02B7
:100520000995E0910801F09109018091C202909132
:10053000C30209950E9453010895CF93C82FE091FB
:100540000201F0910301862F87706081687F682B1C
:1005500060830E947802E0910001F09101019C2FDC
:100560009295990F907E81818F71892B8183299A31
:1005700081E38A95F1F700000E9463011C99FECF88
:100580002998E0910401F0910501808180648083C5
:100590002A98CD7FC43099F4E0910401F0910501CF
:1005A0008081877C806380830E94C3016093C8023E
:1005B0007093C9028093CA029093CB0211C0E0915C
:1005C0000401F09105018081886380830E94C3014A
:1005D0006093CC027093CD028093CE029093CF02B1
:1005E000CF910895E0910C01F0910D0109952A9A9F
:1005F000219A0E94F6000E94FE010E943B020E9486
:100600009801E0910201F091030181818061818371
:10061000E0910201F091030181818F7D8183E0915E
:10062000EA01F091EB018081803110F08FE080834E
:10063000A091EA01B091EB01E0ECF2E09C919F7097
:100640008081807F892B80830E9463010E947802D1
:1006500060E084E00E949D0266E084E00E949D02CA
:100660000895CF93C82F299A81E38A95F1F7000066
:100670000E948801E0910201F0910301C77080811E
:10068000887FC82BC0832A98E0910001F091010176
:1006900081818F71806281830E9478020E94630150
:1006A0001C99FECFE0910401F091050180818064E6
:1006B0008083E0910401F09105018081877C88614D
:1006C0008083E0910A01F0910B018091BD020995B0
:1006D0000E9415010E94530129986091C4027091F3
:1006E000C5028091C6029091C702CF910895FF92F2
:1006F0000F931F93CF93DF93F82E0091C2021091B6
:10070000C302C091C002D091C1020E948801E09151
:100710000201F09103018F2D87709081987FF92E4F
:10072000F82AF0822A98E0910201F0910301818178
:100730008F7E8183E0910001F091010181818F71B1
:10074000806281830E9478020E9463011C99FECF1F
:10075000E0910401F0910501808180648083E09143
:100760000401F09105018081877C88618083E0919C
:100770000A01F0910B018091BD0209950E941501BB
:100780000E9453011093C3020093C202D093C1028E
:10079000C093C0026091C4027091C5028091C602EC
:1007A0009091C702DF91CF911F910F91FF90089513
:1007B000AAE7B0E08C9180688C93ECE7F0E0808150
:1007C0008F7D808380818F77808380818064808328
:1007D0008081807F80838081876080838C91887F07
:1007E0008C938C9187608C930895CF93DF9300D086
:1007F000CDB7DEB7809178008983809179008A83B4
:1008000089819A810F900F90DF91CF910895EF9297
:10081000FF920F931F93CF93DF93CDB7DEB7289747
:100820000FB6F894DEBF0FBECDBFFE01319688E053
:10083000DF011D928A95E9F70AE710E07E01B9E031
:10084000EB0EF11C8D819E8198878F838B819C811B
:100850009E838D8389819A819C838B837894F80110
:10086000808180648083D8018C9184FFFCCF0E94BA
:10087000F5039A838983FE013196AC012191319170
:10088000821793070CF4C901241735070CF4A9014A
:10089000EE15FF0599F74A5F5F4F4817590794F225
:1008A00028960FB6F894DEBF0FBECDBFDF91CF9173
:1008B0001F910F91FF90EF900895FF920F931F9358
:1008C000CF93DF93A895ECE7F0E09081907F908341
:1008D0009081892B80830E9407046894FF24F3F899
:1008E00000E010E0CAE7D0E0A895888180648883A2
:1008F000888184FFFDCF0E94F503080F191FFA9429
:1009000099F7C801969587959695879596958795B9
:10091000DF91CF911F910F91FF900895E091EC012D
:10092000F091ED01808191818130944010F011822D
:1009300010820895CF92DF92EF92FF92CF93DF93D0
:10094000E091EC01F091ED0191838083C091EC0185
:10095000D091ED016881798180E090E00E94500D96
:100960006B017C019B01AC016DEC7CEC84E890E4B4
:100970000E94BC0C9B01AC016AE979E989E490E42E
:100980000E94BC0C0E94240D7B836A8380E090E06F
:100990000E94500D9B01AC01C701B6010E94570C8B
:1009A00020E030E048EC52E40E94BC0C6C837D8374
:1009B0008E839F83DF91CF91FF90EF90DF90CF9058
:1009C0000895CF93DF93C091EC01D091ED012A817E
:1009D0003B81821B930BBC0180E090E00E94500D94
:1009E0002C813D814E815F810E94BC0C0E94240DB0
:1009F000862FDF91CF910895CF92DF92EF92FF92F1
:100A0000E091EC01F091ED0171836083853608F08F
:100A100084E6682F70E080E090E00E94520D2AE0AA
:100A200037ED43E25CE30E94E20D2AE939E949E44B
:100A300050E40E94580C6B017C01E091EC01F091B4
:100A4000ED016081718180E090E00E94500D9B017A
:100A5000AC01C701B6010E94BC0C9B01AC016DEC5E
:100A60007CEC84E890E40E94BC0C20E030E040E89C
:100A700054E40E94DE0D181624F480E094E00E94F5
:100A80009A04FF90EF90DF90CF900895CF93DF937B
:100A9000EC010E948E04E091EC01F091ED01808167
:100AA00091818C179D0718F4CE010E949A04CE0103
:100AB0000E94E104853620F0BE0184E60E94FC0419
:100AC000DF91CF9108955B9A08955B980895539AAA
:100AD0000E94650508959BB188E089278BB9089528
:100AE0001092B6025A9AEFEFF7ED3197F1F700C086
:100AF00000005A98FFEF2FEB31E2F15020403040D8
:100B0000E1F700C000008823E9F09091B60291302F
:100B100089F404C09091B602913061F41092B6024B
:100B2000E091EE01F091EF0181E09081913059F078
:100B300080E00895E3E3F7E03197F1F7815051F752
:100B400089E0089589E00895FF920F931F93CF9352
:100B5000DF938C01F62EEA011092B602E0911401A7
:100B6000F091150181E092E00995E0911401F09176
:100B70001501C8010995E0911401F09115018EEF5E
:100B800091E009952097F9F0A8958091B6028130FF
:100B900089F405C0A8958091B602813059F410926D
:100BA000B602E091EE01F091EF0180818F110DC04E
:100BB00087E00CC083E397E00197F1F72197209736
:100BC00049F789E003C089E001C080E0DF91CF915F
:100BD0001F910F91FF900895EF92FF920F931F9333
:100BE000CF93DF938C01EB01E42EF22E1092B6022C
:100BF000E0911401F091150181E092E00995E091F6
:100C00001401F0911501C8010995E0911201F091CC
:100C10001301CE010995E0911401F09115018EEFB9
:100C200091E00995FF20E1F08091B602813081F4D6
:100C300004C08091B602813059F41092B602E0915E
:100C4000EE01F091EF0180818E110CC087E00BC0A6
:100C500083E397E00197F1F7FA9459F789E003C02D
:100C600089E001C080E0DF91CF911F910F91FF904B
:100C7000EF9008950F931F93CF93DF93062F7894EF
:100C8000863008F081E0A82FB0E0A850BE4FE09178
:100C90000E01F0910F018C910995A895802F0E946B
:100CA00070058130D1F0C9EFD1E011E0E0910E0183
:100CB000F0910F0189910995A895802F0E947005E8
:100CC000813039F4E091E801F091E901108387E087
:100CD00007C01F5F163051F702C087E001C088E0EF
:100CE000DF91CF911F910F910895CF93C82FE0917D
:100CF0001001F0911101099564E68C2F0E943A06CB
:100D0000873009F0FFCF44E650E067E080EF91E0E4
:100D10000E94A40544E650E067E084EF91E00E9461
:100D2000A405CF910895399A419A08953998089564
:100D300084B18C6284B98CE58CBD8DB581608DBD2C
:100D400008958EBD0DB407FEFDCF0895CF93C82F33
:100D5000892F0E94A1068C2F0E94A106CF91089591
:100D60001EBC0DB407FEFDCF8EB50895E0ECF0E09B
:100D7000908195FFFDCF8093C60008951F93CF9378
:100D8000DF93EC018881882351F010E00E94B606C1
:100D90001F5FFE01E10FF11D80818111F7CFDF910F
:100DA000CF911F9108951F93CF93DF93EC0188811A
:100DB000882351F010E00E94B6061F5FFE01E10F8C
:100DC000F11D80818111F7CFDF91CF911F9108959F
:100DD0008093C400089588E98093C10086E08093E1
:100DE000C200089580B7806880BF529A8BE190E07E
:100DF0000E94D7100E9475064CE150E060E070E060
:100E000082EA93E00E94C7100E94D8030E94F20277
:100E1000A998EEE6F0E0808181608083B198EFE6EA
:100E2000F0E0808181608083ECE6F0E08081886082
:100E300080838091B6039091B70388559240893B97
:100E40009B4038F088E592E09093B7038093B60317
:100E500004C01092BB021092BA0287E00E945D04A7
:100E60000E9446054CE150E060E070E082EA93E0C9
:100E70000E94DF1080E00E94040C83E08093D10286
:100E800086E98093D202E8E6F0E080818260808388
:100E900016BC85B5856085BD8FED93EE909385007A
:100EA00080938400E1E8F0E08081856080830E9487
:100EB000880BA895FCCF1F920F920FB60F921124AA
:100EC0002F933F934F935F936F937F938F939F9352
:100ED000AF93BF93EF93FF938091B602811104C04B
:100EE0008091C6000E94E70BFF91EF91BF91AF91F7
:100EF0009F918F917F916F915F914F913F912F9132
:100F00000F900FBE0F901F9018951F920F920FB663
:100F10000F9211242F933F934F935F936F937F937F
:100F20008F939F93AF93BF93EF93FF938091BA02F8
:100F30009091BB0201969093BB028093BA022091DC
:100F4000B6033091B7032817390710F40E949606AC
:100F50008FED93EE9093850080938400FF91EF9145
:100F6000BF91AF919F918F917F916F915F914F91C1
:100F70003F912F910F900FBE0F901F9018951F92C9
:100F80000F920FB60F9211242F933F934F935F93BD
:100F90006F937F938F939F93AF93BF93EF93FF9341
:100FA0008091B9028F5F8093B9029091D102891725
:100FB00018F40E94630502C00E9465059091B90271
:100FC0008091D202891710F41092B902FF91EF912B
:100FD000BF91AF919F918F917F916F915F914F9151
:100FE0003F912F910F900FBE0F901F901895F8947E
:100FF000A895E0E6F0E08081886180838FE48083BB
:1010000008950E9493060E94F7070E9467050E94B8
:1010100063050E94F2061F920F920FB60F921124E1
:101020002F933F934F935F936F937F938F939F93F0
:10103000AF93BF93EF93FF930E949606FF91EF91BA
:10104000BF91AF919F918F917F916F915F914F91E0
:101050003F912F910F900FBE0F901F9018951F92E8
:101060000F920FB60F9211242F933F934F935F93DC
:101070006F937F938F939F93AF93BF93EF93FF9360
:10108000339B6BC01092BB021092BA020E946305A0
:101090002FEF8FE392E0215080409040E1F700C0B5
:1010A00000008091B7029091B80201969093B80227
:1010B0008093B702339907C00E9465051092B80269
:1010C0001092B7024AC0A895889708F443C02FEF42
:1010D0008FE191E0215080409040E1F700C0000096
:1010E00044E650E067E085E092E00E94A4052FEF1F
:1010F0008FE392E0215080409040E1F700C0000073
:1011000044E650E065E089E092E00E94A4055A9A26
:101110002FEF8FE392E0215080409040E1F700C034
:1011200000000E9465053399FECF2FEF8FE39BE00F
:10113000215080409040E1F700C000000E949606D8
:101140002FEF8FE39BE0215080409040E1F700C0FB
:10115000000003C00E946B059BCFFF91EF91BF91F0
:10116000AF919F918F917F916F915F914F913F913F
:101170002F910F900FBE0F901F9018958DE092E069
:101180009093D9028093D80281E008958BE192E098
:101190009093D9028093D80281E0089580E0089569
:1011A00080E0089580E0089580E0089524E647E017
:1011B00066E272E088E292E00E94EC0580E0089529
:1011C00024E647E06CE272E081E392E00E94EC05E5
:1011D00080E0089544E650E067E084EF91E00E94EB
:1011E000A40580E0089544E650E067E085E392E0DE
:1011F0000E94A40583E08093D10286E48093D2020A
:1012000080E0089544E650E067E084EF91E00E94BA
:10121000A40583E08093D10286E98093D20280E026
:1012200008950E942D0F6093D00280E00895CF931F
:10123000DF93FC01208121110EC0C091D802D09112
:10124000D9028AE190E00E94D7104AE0BE0190E006
:101250000E94541017C00E942D0FC62F603108F055
:10126000CFE06C2F8AE190E00E94EF10E0ECF2E01A
:10127000CF708081807FC82BC083E091D802F0912D
:10128000D902108281E0DF91CF9108950F931F93CF
:10129000CF93DF93EC0188818823C9F087E00E9417
:1012A0005D048C01CE010E940F0FB8010E94FC0466
:1012B00048E050E06CE070E08EEA93E00E94DF10BE
:1012C000E091D802F091D902108281E001C080E063
:1012D000DF91CF911F910F9108954091D8025091C5
:1012E000D9026091B8037091B9038091BA039091CB
:1012F000BB032AE00E945F1081E00895CF93DF9343
:10130000C091D802D091D90280E00E9431032AE036
:10131000AE010E945F1081E0DF91CF910895FC0142
:10132000808181111BC04091D8025091D902209137
:10133000B6033091B703A9E8B8E80E94690E969504
:101340008795929582958F7089279F708927BC0118
:1013500080E090E02AE00E945F102FC08EE393E0CF
:101360000E942D0F4CE3469F9001479F300D1124A2
:101370003093B7032093B6032835F2E03F0738F4E3
:1013800088E592E09093B7038093B60309C02131BA
:101390003E4030F080E19EE09093B7038093B60327
:1013A0006091B6037091B70384E190E00E940D1143
:1013B000E091D802F091D902108281E00895CF9394
:1013C000DF93C091D802D091D90287E00E945D04DA
:1013D0000E94E1044AE0BE0190E00E94541081E0C6
:1013E000DF91CF910895CF93DF93EC012FEF8FE141
:1013F00091E0215080409040E1F700C0000044E6B9
:1014000050E067E085E092E00E94A405873059F53E
:101410002FEF8FE392E0215080409040E1F700C031
:10142000000024E647E0BE0189E392E00E94EC055B
:101430008730D9F42FEF8FE392E021508040904025
:10144000E1F700C0000044E650E067E085E392E089
:101450000E94A405873059F4E091D802F091D90296
:10146000108281E005C080E003C080E001C080E020
:10147000DF91CF9108950F931F93CF93DF93EC01EA
:101480008881882309F455C0CE010E940F0F8C017A
:101490008FEF800F853008F05BC029E989E591E086
:1014A000215080409040E1F7000044E650E067E0C2
:1014B00085E092E00E94A405873009F04BC028EC3B
:1014C00047E0BE018DE392E00E94EC05873009F011
:1014D00043C0D801BB27A850BE4FE0910E01F09148
:1014E0000F018C9109952FEF8FEF98E021508040EC
:1014F0009040E1F700C000004CE251E067E085E376
:1015000092E00E94A405873049F529E989E591E038
:10151000215080409040E1F70000602F8BE190E087
:101520000E94EF10E091D802F091D902108281E080
:1015300016C0C091D802D091D9028BE190E00E94F0
:10154000D7104AE0BE0190E00E94541081E007C02D
:1015500080E005C080E003C080E001C080E0DF9152
:10156000CF911F910F910895CF93DF93C091D8022F
:10157000D091D90286E00E9477032AE0AE010E9452
:101580005F1081E0DF91CF9108950F93FC012081DE
:10159000211111C04091D8025091D9026091A2034B
:1015A0007091A3038091A4039091A50300E025E02E
:1015B0000E94780E15C00E940B0FAB01BC01409336
:1015C000A2035093A3036093A4037093A50380E048
:1015D00090E00E940111E091D802F091D9021082AE
:1015E00081E00F910895FC01208121110BC044E698
:1015F00050E06CE970E08091D8029091D9020E948D
:10160000C7100BC044E650E06CE970E00E94DF10A8
:10161000E091D802F091D902108281E00895FC0196
:10162000208121110BC040E250E06CE170E080911C
:10163000D8029091D9020E94C7100BC040E250E03E
:101640006CE170E00E94DF10E091D802F091D902C5
:10165000108281E00895FC01208121110BC040E23D
:1016600050E06CE370E08091D8029091D9020E9422
:10167000C7100BC040E250E06CE370E00E94DF1046
:10168000E091D802F091D902108281E00895FC0126
:10169000208121110BC040E250E06CE570E08091A8
:1016A000D8029091D9020E94C7100BC040E250E0CE
:1016B0006CE570E00E94DF10E091D802F091D90251
:1016C000108281E00895FC01208121110BC040E2CD
:1016D00050E06CE770E08091D8029091D9020E94AE
:1016E000C7100BC040E250E06CE770E00E94DF10D2
:1016F000E091D802F091D902108281E008950E9411
:101700009606E091D802F091D902108281E0089506
:101710008091B6028130F9F41092B602E091D602BF
:10172000F091D7028EE393E00995882381F08091B0
:10173000D3029091D4020E94BE068091D80290916B
:10174000D9020E94BE068EEF91E00E94BE06109262
:10175000BB021092BA020895EF92FF920F931F936B
:10176000CF93DF9306E111E0C0E0D0E0F8016081A3
:1017700071818AED92E00E943A10892BD1F0FE012E
:10178000EE0FFF1FEE0FFF1FEE0FFF1FEC1BFD0BF9
:10179000EA5EFE4F87E0A3EDB2E001900D928A95DC
:1017A000E1F76DED72E08EE393E00E94331081E08B
:1017B00007C02196095F1F4FCE31D105B9F680E0F1
:1017C000DF91CF911F910F91FF90EF9008958A3094
:1017D00049F08D3071F4E091BC02F0E0E652FD4F2B
:1017E000108208950E94AC0B8093B6021092BC0246
:1017F0000895E091BC0291E09E0F9093BC02F0E04E
:10180000E652FD4F80830895CF92DF92EF92FF92D0
:10181000CF93C82FA8950E9431036B017C01A89536
:101820008C2F0E943103C60ED71EE81EF91EF694B7
:10183000E794D794C794C092B803D092B903E092CA
:10184000BA03F092BB03CF91FF90EF90DF90CF905F
:10185000089580E00E94040CE091D802F091D90232
:10186000108281E008950F931F930E94310300912D
:10187000B8031091B9032091BA033091BB03601BE8
:10188000710B820B930B1F910F910895CF93DF93F0
:10189000C091D802D091D90280E00E94330C2AE096
:1018A000AE010E945F1081E0DF91CF910895505802
:1018B000BB27AA270ED048C139D130F03ED120F045
:1018C00031F49F3F11F41EF42EC10EF4E095E7FBB6
:1018D00024C1E92F4AD180F3BA176207730784073E
:1018E000950718F071F49EF562C10EF4E0950B2E89
:1018F000BA2FA02D0B01B90190010C01CA01A00162
:101900001124FF27591B99F0593F50F4503E68F1BC
:101910001A16F040A22F232F342F4427585FF3CFFD
:10192000469537952795A795F0405395C9F77EF4CE
:101930001F16BA0B620B730B840BBAF09150A1F017
:10194000FF0FBB1F661F771F881FC2F70EC0BA0F9D
:10195000621F731F841F48F4879577956795B79525
:10196000F7959E3F08F0B3CF9395880F08F099271D
:10197000EE0F9795879508950CD0E6C0DED040F025
:10198000D5D030F021F45F3F19F0C7C0511110C11C
:10199000CAC0EBD098F39923C9F35523B1F3951B33
:1019A000550BBB27AA2762177307840738F09F5F80
:1019B0005F4F220F331F441FAA1FA9F333D00E2EEF
:1019C0003AF0E0E830D091505040E695001CCAF75C
:1019D00029D0FE2F27D0660F771F881FBB1F261721
:1019E00037074807AB07B0E809F0BB0B802DBF01F4
:1019F000FF2793585F4F2AF09E3F510568F08DC036
:101A0000D7C05F3FECF3983EDCF3869577956795FA
:101A1000B795F7959F5FC9F7880F911D96958795A4
:101A200097F90895E1E0660F771F881FBB1F6217C3
:101A300073078407BA0720F0621B730B840BBA0B81
:101A4000EE1F88F7E095089598D088F09F5790F0A2
:101A5000B92F9927B751A0F0D1F0660F771F881FD3
:101A6000991F1AF0BA95C9F712C0B13081F09FD012
:101A7000B1E008959CC0672F782F8827B85F39F0B0
:101A8000B93FCCF3869577956795B395D9F73EF432
:101A900090958095709561957F4F8F4F9F4F0895DA
:101AA000E89409C097FB3EF49095809570956195F8
:101AB0007F4F8F4F9F4F9923A9F0F92F96E9BB27AE
:101AC0009395F695879577956795B795F111F8CF2A
:101AD000FAF4BB0F11F460FF1BC06F5F7F4F8F4F95
:101AE0009F4F16C0882311F096E911C0772321F08B
:101AF0009EE8872F762F05C0662371F096E8862F23
:101B000070E060E02AF09A95660F771F881FDAF779
:101B1000880F9695879597F9089597F99F6780E8BC
:101B200070E060E008959FEF80EC089500240A942F
:101B30001616170618060906089500240A941216A8
:101B40001306140605060895092E0394000C11F4DB
:101B5000882352F0BB0F40F4BF2B11F460FF04C088
:101B60006F5F7F4F8F4F9F4F089557FD9058440FE1
:101B7000551F59F05F3F71F04795880F97FB991FEC
:101B800061F09F3F79F087950895121613061406A9
:101B9000551FF2CF4695F1DF08C016161706180636
:101BA000991FF1CF86957105610508940895E89411
:101BB000BB2766277727CB0197F9089566D008F4ED
:101BC0008FEF08950BD0C0CFB1DF28F0B6DF18F04B
:101BD000952309F0A2CFA7CF1124EACFC6DFA0F347
:101BE000959FD1F3950F50E0551F629FF001729FB2
:101BF000BB27F00DB11D639FAA27F00DB11DAA1FD1
:101C0000649F6627B00DA11D661F829F2227B00D1D
:101C1000A11D621F739FB00DA11D621F839FA00DA8
:101C2000611D221F749F3327A00D611D231F849FF8
:101C3000600D211D822F762F6A2F11249F5750404F
:101C40008AF0E1F088234AF0EE0FFF1FBB1F661FEA
:101C5000771F881F91505040A9F79E3F510570F0A3
:101C60005CCFA6CF5F3FECF3983EDCF3869577958B
:101C70006795B795F795E7959F5FC1F7FE2B880F9E
:101C8000911D9695879597F90895990F0008550F1E
:101C9000AA0BE0E8FEEF16161706E807F907C0F0F2
:101CA00012161306E407F50798F0621B730B840BFA
:101CB000950B39F40A2661F0232B242B252B21F4D4
:101CC00008950A2609F4A140A6958FEF811D811D74
:101CD0000895A29FB001B39FC001A39F700D811D05
:101CE0001124911DB29F700D811D1124911D089525
:101CF000A1E0B0E0EEE7FEE00C94C2126A01102F02
:101D0000322F283008F037E000E0232FA601398376
:101D10000E94540FD6019C91292F28703981760199
:101D200090FF09C0211107C0BFEFEB1AFB0A2DE29B
:101D3000F601208313C011FF07C0FFEFEF1AFF0A5F
:101D40004BE2D6014C9308C010FF06C0BFEFEB1A60
:101D5000FB0A40E2F6014083211105C092FF0DC04D
:101D600068E670E002C060E770E012FF02C06C5FDE
:101D70007F4FC7010E942C1049C0F7013196D60150
:101D800011962C91D7012C93213309F09F7E332398
:101D9000D1F0AF01B6016E5F7F4F7B016EE2732F12
:101DA0007E0DD7012D917D01DA016D93AD017E1578
:101DB00011F0622FF6CF3150DF01A30FB11DFD01ED
:101DC000329611962C9312FF02C025E401C025E63D
:101DD0002083DF01129687FF04C09DE291838195E5
:101DE00008C0811104C094FF02C09DE201C09BE2C3
:101DF000918390E38A301CF09F5F8A50FBCF9C93C5
:101E0000805D11968C93119712961C92C6012196B3
:101E1000E8E00C94DE12662777270C941311FC017E
:101E200088279927E89421912032E9F3293010F08E
:101E30002E30C8F32B3241F02D3239F4689404C0AF
:101E40000E948310820F911D219120532A30C0F3EC
:101E50001EF4909581959F4F08951F93FC0199273B
:101E60008827BC01E89411911032E9F3193010F081
:101E70001E30C8F31B3251F01D3249F4689406C07D
:101E80000E946E10610F711D811D911D11911053E3
:101E90001A30B0F33EF490958095709561957F4F20
:101EA0008F4F9F4F1F910895283008F027E0332768
:101EB000DA01990F311D87FD91600096610571056A
:101EC00039F432602E5F3D9330E32A95E1F70895AF
:101ED0009F3F30F080387105610509F03C5F3C5F41
:101EE0003D93913008F08068911DDF93CF931F934D
:101EF0000F93FF92EF92192F987F9695E92F969561
:101F00009695E90FFF27EE52FF4F99273327EE24CE
:101F1000FF24A701E70105900894079428F4360FE1
:101F2000E71EF81E491F511D660F771F881F991F56
:101F30000694A1F70590079428F4E70EF81E491FB0
:101F4000561FC11D770F881F991F661F0694A1F7A2
:101F50000590079428F4F80E491F561FC71FD11D7E
:101F6000880F991F661F771F0694A1F705900794A5
:101F700020F4490F561FC71FD81F990F661F771FE0
:101F8000881F0694A9F784911095177041F0D69593
:101F9000C79557954795F794E7941A95C1F7E8E7E1
:101FA000F0E06894159015913591659195910590A3
:101FB0007FE27395E118F10A430B560BC90BD00968
:101FC000C0F7E10CF11E431F561FC91FD01D7EF440
:101FD000703311F48A95E6CFE894015030F0080F81
:101FE0000AF40027021708F4202F2395022F7A33D2
:101FF00028F079E37D932A95E9F710C07D932A951F
:1020000089F6069497956795379517951794E11873
:10201000F10A430B560BC90BD00998F023957E911A
:1020200073957A3308F070E37C932013B8F77E91B0
:1020300070617D9330F0839571E37D9370E32A9511
:10204000E1F71124EF90FF900F911F91CF91DF9155
:10205000992787FD90950895FB01DC0105900D926D
:102060000020E1F70895FB01DC0101900D920020B2
:10207000E1F70895FB0151915523A9F0BF01DC015F
:102080004D9145174111E1F759F4CD010190002020
:1020900049F04D9140154111C9F3FB014111EFCFBA
:1020A00081E090E001970895BB274A3031F49923ED
:1020B00022F4BDE2909581959F4F0C94AE10BB2702
:1020C0002A3051F4992342F4BDE2909580957095A1
:1020D00061957F4F8F4F9F4F0C948C10592F482F35
:1020E000372F262F660F771F881F991F660F771FC0
:1020F000881F991F620F731F841F951F660F771F1C
:10210000881F991F08957AE0979F902D879F802DB3
:10211000910D11240895BB27FA01A62F62177105AE
:1021200081059105330B30FB66F0AA27660F771FF8
:10213000881F991FAA1FA21710F0A21B6395385081
:10214000A9F7A05DAA3308F0A95DA19336F7B111F4
:10215000B1931082CA010C949612BB27FB0155273C
:10216000AA27880F991FAA1FA41710F0A41B8395F4
:102170005051B9F7A05DAA3308F0A95DA19300976B
:1021800079F7B111B1931192CB010C949612DC0145
:10219000CB01FC01F999FECF06C0F2BDE1BDF89A72
:1021A000319600B40D9241505040B8F70895F99916
:1021B000FECF92BD81BDF89A992780B50895DC01C4
:1021C000A40FB51F4150504048F0CB01840F951F1C
:1021D0002E910E94F01041505040D0F70895262FC4
:1021E000F999FECF92BD81BDF89A019700B402160D
:1021F00039F01FBA20BD0FB6F894FA9AF99A0FBEBB
:1022000008950396272F0E94F0100E94EF10252FAB
:102210000E94F010242F0C94F0100196272F0E949A
:10222000F0100C94EF10A0E0B0E0E9E1F1E10C94C3
:10223000BE128B016115710521F0DB018C931196A3
:102240009C93EC015E01BFEFAB1ABB0A7501C8801D
:102250008C2D90E00E947612892B11F0E501F2CFCF
:10226000EDE2CE1208C07E01F2E0EF0EF11CC98053
:10227000DD24D39409C02BE2C21205C07E0142E0E6
:10228000E40EF11CC980D12CE701219743E050E016
:102290006AE771E0CE010E947E12892BC1F4239679
:1022A00045E050E065E771E0CE010E947E12892B87
:1022B00009F425960115110519F0D801CD93DC9389
:1022C000D11006C160E070E080E89FE70AC143E0FA
:1022D00050E062E771E0CE010E947E12892B59F432
:1022E0000115110509F4F9C0B2E0EB0EF11CF8017B
:1022F000F182E082F2C0F70160E070E0CB01C0E063
:10230000D0E07F01A0EDAA2EAC0C29E02A1530F117
:102310004D2D4260B42E2D2D2870D2FE04C0211107
:1023200025C0219623C021112197A5E0B0E09B0193
:10233000AC010E94AD12660F771F881F991F6A0DAE
:10234000711D811D911D6839A9E97A078A07A9E1E4
:102350009A0760F0BD2DB660BB2E08C02EEFA2120A
:102360000AC0D3FC50C04D2D4860B42E3196D70121
:10237000CC90DB2CC6CF2C2D2F7D253409F043C00B
:10238000A081AD3241F4BD2DB061DB2E7F0122E092
:10239000E20EF11C0CC07F01AB3231F04FEFE41ABA
:1023A000F40A21E030E006C0A2E0EA0EF11CA181AF
:1023B00022E030E0A053AA3018F0E21AF30A23C05A
:1023C000F70120E030E02038BCE03B075CF4A901D5
:1023D000440F551F440F551F240F351F220F331F65
:1023E0002A0F311DAF014F5F5F4F7A01A081A053CB
:1023F000AA3010F4FA01E7CFD4FE03C0319521953D
:102400003109C20FD31FD1FE09C00115110531F0EA
:10241000E1E0EE1AF108D801ED92FC920E94500D15
:102420002D2D2370233019F04B015C0106C04B01A8
:102430005C01B7FAB094B7F8B09420E030E0A9019D
:10244000C501B4010E94A612882309F43EC0D7FF3B
:1024500006C0D195C195D10901E911E002C009EA90
:1024600011E06801B8E1CB1AD10890E2E92EF12C15
:10247000CE15DF0574F0F801259135914591549101
:10248000C501B4010E94E20D4B015C01CE19DF09C8
:10249000EFCF04501109F594E7940C151D0541F791
:1024A0008A2D880F8B2D881F8F3F49F020E030E068
:1024B000A901C501B4010E94A612811106C082E2E1
:1024C00090E09093BF038093BE03C501B40109C09F
:1024D00060E070E080E89FEF04C060E070E080ECB6
:1024E0009FE7CDB7DEB7ECE00C94DA12911132C061
:1024F000803219F089508550D0F70895FB01DC0136
:102500004150504088F08D9181341CF08B350CF493
:10251000805E659161341CF06B350CF4605E861B47
:10252000611171F3990B0895881BFCCFDC01FC014C
:10253000672F71917723E1F7329704C07C916D93F7
:1025400070836291AE17BF07C8F308959EDB08F44D
:1025500081E008959927882708950E94690EA59F14
:10256000900DB49F900DA49F800D911D112408958E
:102570002F923F924F925F926F927F928F929F9293
:10258000AF92BF92CF92DF92EF92FF920F931F9381
:10259000CF93DF93CDB7DEB7CA1BDB0B0FB6F89432
:1025A000DEBF0FBECDBF09942A88398848885F8472
:1025B0006E847D848C849B84AA84B984C884DF80E3
:1025C000EE80FD800C811B81AA81B981CE0FD11DC7
:1025D0000FB6F894DEBF0FBECDBFED010895F8949D
:0225E000FFCF2B
:1025E200C002C202BD02B006A606A1069806E8060F
:1025F200EB06D306BE06410213460C3E0345020D0E
:10260200DF093E03490216B40A3E034D0214290CA7
:102612003E03510210BE083E03550218F30A3E0360
:10262200590202E0083E035D0206D6083E0361023B
:1026320003EA083E03650204F3083E0309020502A9
:10264200093E03690207CE083E036C0208D0083E29
:102652000372020011093E03760201D2083E037A98
:10266200020A17093E037E020B8F093E0382020C07
:1026720046093E0386021A0F0B3E038A021B2B0BEE
:102682003E038E021C470B3E0392021D630B3E0368
:1026920096020EF3093E039A020F3B0A3E039E0284
:1026A20011C6083E03A202127E093E03A602156D60
:1026B200093E03AA0217C50A3E03AE0219D4083E18
:1026C20003B2021E7F0B3E03BD03BC03AE03D50261
:1026D200574B500050415200002F170B07030D0AB1
:1026E2000041542300454E4400445343005765695A
:1026F2006768745363616C657334004D42433034D0
:102702002E33362E320031005343520031323334ED
:1027120000504E5500534E44004E414D004241552B
:102722000044434F004742540044544D0053434F2A
:1027320000565253004441540052515000534351E9
:102742000050524400434F4E004F4B004552524FEF
:10275200520052505400504F4E0046414400544FD4
:1027620046004342540053474400554744005047F3
:10277200440050484E00534E4100425354004852C8
:1027820057004443480047434F0043544D004344DD
:062792005400504F460008
:00000001FF
