:100000000C94F5000C9412010C9412010C94120142
:100010000C94BF080C9412010C949B080C941201D0
:100020000C9412010C9412010C9412010C94120104
:100030000C9412010C9452080C9412010C941201AD
:100040000C9412010C9412010C9428080C941201C7
:100050000C9412010C9412010C9412010C941201D4
:100060000C9412010C9412017B0BCA0D2F0B380B50
:10007000400BCA0D470B610B2A0BCA0DCA0DCA0DE6
:10008000820BE00BC80B2F0C410C770C210BD60C0C
:10009000130DF60CFE0CE60C230D520DCD0D700D5C
:1000A0008E0DAC0D696E6600494E46006E616E00A5
:1000B0004E414E0000407A10F35A00A0724E1809CB
:1000C0000010A5D4E80000E87648170000E40B54BF
:1000D000020000CA9A3B000000E1F505000080968E
:1000E0009800000040420F000000A08601000000C0
:1000F000102700000000E80300000000640000007A
:1001000000000A00000000000100000000002C7642
:10011000D888DC674F0823DFC1DFAE59E1B1B7965D
:10012000E5E3E453C63AE651997696E8E6C28426BA
:10013000EB898C9B62ED407C6FFCEFBC9C9F40F296
:10014000BAA56FA5F490055A2AF75C936B6CF96712
:100150006DC11BFCE0E40D47FEF520E6B500D0EDD7
:10016000902E0300943577050080841E080000203F
:100170004E0A000000C80C333333330F986E1283DD
:100180001141EF8D2114893BE65516CFFEE6DB18B1
:10019000D1844B381BF77C1D901DA4BBE424203276
:1001A00084725E228100C9F124ECA1E53D274E4115
:1001B0004E494E495459494E46CDCCCC3D0AD723E1
:1001C0003C17B7D13877CC2B329595E6241FB14F29
:1001D0000A000020410000C84200401C4620BCBE6E
:1001E0004CCA1B0E5AAEC59D740011241FBECFEF22
:1001F000D4E0DEBFCDBF11E0A0E0B1E0E2E1F9E282
:1002000002C005900D92AA3CB107D9F722E0AAECF2
:10021000B1E001C01D92AE3AB207E1F70E94910829
:100220000C9487140C940000E0910401F0910501F6
:10023000808180648083E0910401F09105018081D8
:10024000877C80628083F8942A98E0910A01F0917B
:100250000B018091D80109951C99FECFE091060110
:10026000F091070109958093DA01789408952A980E
:10027000E0910A01F0910B018FEF0995E0910A01DD
:10028000F0910B018FEF0995E0910A01F0910B01BC
:100290008FEF0995E0910A01F0910B018FEF09951D
:1002A00089E993E00197F1F700C00895CF92DF92BA
:1002B000EF92FF92CF93F894E0910A01F0910B0135
:1002C0008091D80109951C99FECF8091DA018B7538
:1002D00069F0E0910601F09107010995C82ED12C33
:1002E000E12CF12C7601DD24CC2403C0C12CD12CCF
:1002F0007601E0910601F09107010995C82FE09180
:100300000601F09107010995A7019601282BDA0152
:10031000C9017894BC01CD017C2BCF91FF90EF9067
:10032000DF90CF900895CF92DF92EF92FF92CF931C
:10033000DF938091DA018B7599F0E0910601F091DD
:100340000701099590E0A0E0B0E0DC01992788273B
:100350008093DF019093E001A093E101B093E2016B
:10036000CFEDD1E0C880D980EA80FB80E091060122
:10037000F09107010995D82AC882D982EA82FB82C6
:10038000E0910601F09107010995C82AC882D98237
:10039000EA82FB82DF91CF91FF90EF90DF90CF90C8
:1003A00008950F931F93CF93DF93E0910401F09191
:1003B0000501808180648083E0910401F091050152
:1003C0008081877C88608083F8942A98E0910A0174
:1003D000F0910B018091D80109951C99FECFE09115
:1003E0000601F09107010995082F10E0102F002752
:1003F000CBEDD1E019830883E0910601F09107016C
:1004000009959801282BC901998388837894DF91F5
:10041000CF911F910F910895E0910401F091050192
:1004200080818F7B8083E0910401F09105018081C0
:10043000877C88608083F8942A98E0910A01F09183
:100440000B018091D8010995E0910801F091090113
:100450008091DB019091DC010995789408950F93C8
:100460001F93CF93DF93E0910401F0910501808108
:1004700080648083E0910401F09105018081877C94
:1004800080618083F8942A98E0910A01F0910B0131
:100490008091D80109951C99FECFE0910601F09159
:1004A00007010995082F10E0102F0027CDEDD1E0AE
:1004B00019830883E0910601F091070109959801DD
:1004C000282BC901998388837894DF91CF911F915C
:1004D0000F910895E0910401F091050180818F7BD7
:1004E0008083E0910401F09105018081877C806127
:1004F0008083F8942A98E0910A01F0910B01809191
:10050000D8010995E0910801F09109018091DD0180
:100510009091DE01099578940895299A91E39A952E
:10052000F1F70000F894E0910201F0910301982F97
:1005300097708081887F892B80832A98E0910001C1
:10054000F091010181818F71806281830E946A0232
:100550000E940C021C99FECFE0910401F09105016C
:10056000808180648083E0910401F09105018081A5
:10057000877C88618083E0910A01F0910B01809172
:10058000D80109950E949301789429986091DF0120
:100590007091E0018091E1019091E20108950F9343
:1005A0001F93CF93DF930091DD011091DE01C09185
:1005B000DB01D091DC01F894E0910201F09103019C
:1005C000982F97708081887F892B80832A98E0916B
:1005D0000201F091030181818F7E8183E09100010E
:1005E000F091010181818F71806281830E946A0292
:1005F0000E940C021C99FECFE0910401F0910501CC
:10060000808180648083E0910401F0910501808104
:10061000877C88618083E0910A01F0910B018091D1
:10062000D80109950E94930178941093DE010093FC
:10063000DD01D093DC01C093DB016091DF0170919B
:10064000E0018091E1019091E201DF91CF911F9152
:100650000F910895CF93C82FE0910201F09103010B
:10066000862F87706081687F682B60830E946A0292
:10067000E0910001F09101019C2F9295990F907EDD
:1006800081818F71892B8183299A81E38A95F1F782
:1006900000000E940C021C99FECF2998E0910401F1
:1006A000F09105018081806480832A98CD7FC430D9
:1006B00099F4E0910401F09105018081877C8063C9
:1006C00080830E9456016093E3017093E40180935C
:1006D000E5019093E60111C0E0910401F09105015C
:1006E0008081886380830E9456016093E701709344
:1006F000E8018093E9019093EA01CF910895E09198
:100700000C01F0910D0109952A9A219A0E94370156
:100710000E94D1010E942F020E941401E091020167
:10072000F0910301818180618183E0910201F09168
:10073000030181818F7D8183E0911801F09119017E
:100740008081803110F08FE08083A0911801B091FA
:100750001901EBEDF1E09C919F708081807F892BE6
:1007600080830E940C020E946A0260E084E00E9482
:100770002A0366E084E00E942A030895AAE7B0E015
:100780008C9180688C93ECE7F0E080818F7D808392
:1007900080818F7780838081806480838081807F67
:1007A00080838081876080838C91887F8C938C91FB
:1007B00087608C930895CF93DF9300D0CDB7DEB7D9
:1007C000809178008983809179008A8389819A81D8
:1007D0000F900F90DF91CF910895EF92FF920F93BA
:1007E0001F93CF93DF93CDB7DEB728970FB6F8945A
:1007F000DEBF0FBECDBFFE01319688E0DF011D9246
:100800008A95E9F70AE710E07E01B9E0EB0EF11CEA
:100810008D819E8198878F838B819C819E838D8320
:1008200089819A819C838B837894F801808180648C
:100830008083D8018C9184FFFCCF0E94DB039A83D4
:100840008983FE013196AC01219131918217930782
:100850000CF4C901241735070CF4A901EE15FF05A6
:1008600099F74A5F5F4F4817590794F228960FB6D9
:10087000F894DEBF0FBECDBFDF91CF911F910F91D6
:10088000FF90EF900895FF920F931F93CF93DF9304
:10089000A895ECE7F0E09081907F90839081892B80
:1008A00080830E94ED036894FF24F3F800E010E0D9
:1008B000CAE7D0E0A895888180648883888184FF16
:1008C000FDCF0E94DB03080F191FFA9499F7C801A6
:1008D000969587959695879596958795DF91CF9173
:1008E0001F910F91FF900895CF93DF9387E00E94AF
:1008F0004304C0911A01D0911B012A813B81821BC4
:10090000930BBC0180E090E00E94E20E2C813D81BF
:100910004E815F810E944E0E0E94B60E862FDF919F
:10092000CF910895CF92DF92EF92FF920F931F9392
:10093000CF93DF93082F853608F004E618E0C0E077
:10094000D0E087E00E944304C80FD91F1150C9F7B7
:10095000E0911A01F0911B01D695C795D695C795E0
:10096000D695C795D183C083C0911A01D0911B0140
:10097000602F70E080E090E00E94E40E2AE037ED06
:1009800043E25CE30E94740F2AE939E949E450E448
:100990000E94EA0D6B017C016881798180E090E022
:1009A0000E94E20E9B01AC01C701B6010E944E0EEF
:1009B0009B01AC016DEC7CEC84E890E40E944E0E4F
:1009C0006B017C0120E030E040E854E40E94700FAD
:1009D000181644F40F2EC12CD12CF0E8EF2EF4E4BD
:1009E000FF2EF02DC701B6010E94B60E79836883F1
:1009F000C0911A01D0911B016881798180E090E05B
:100A00000E94E20E6B017C019B01AC016DEC7CEC61
:100A100084E890E40E944E0E9B01AC016AE979E9FA
:100A200089E490E40E944E0E0E94B60E7B836A8396
:100A300080E090E00E94E20E9B01AC01C701B6018C
:100A40000E94E90D20E030E048EC52E40E944E0E96
:100A50006C837D838E839F83DF91CF911F910F9154
:100A6000FF90EF90DF90CF9008955B9A08955B9888
:100A70000895539A0E94370508959BB188E089270D
:100A80008BB908951092CB015A9AEFEFF7ED319799
:100A9000F1F700C000005A98FFEF2FEB31E2F15060
:100AA00020403040E1F700C000008823D1F0909151
:100AB000CB01913071F404C09091CB01913049F495
:100AC0001092CB018091CA018B3069F0813069F4BA
:100AD0000895E3E3F7E03197F1F7815069F78CE08F
:100AE00008958CE008958BE0089583E00895FF92C7
:100AF0000F931F93CF93DF938C01F62EEA01109290
:100B0000CB01E0911401F091150185E391E0099585
:100B1000E0911401F0911501C8010995E0911401CB
:100B2000F091150182E391E009952097F1F0A895E5
:100B30008091CB01813081F405C0A8958091CB01D3
:100B4000813051F41092CB018091CA018B3079F041
:100B50008F1571F080E00CC083E397E00197F1F707
:100B60002197209751F78CE003C08CE001C08BE007
:100B7000DF91CF911F910F91FF900895EF92FF9217
:100B80000F931F93CF93DF938C01EB01E42EF22E92
:100B90001092CB01E0911401F091150185E391E0F1
:100BA0000995E0911401F0911501C8010995E091B2
:100BB0001401F0911501CE010995E0911401F09115
:100BC000150182E391E00995FF20D9F08091CB01D6
:100BD000813079F404C08091CB01813051F41092BE
:100BE000CB018091CA018B3071F08E1569F080E0E5
:100BF0000BC083E397E00197F1F7FA9461F78CE07B
:100C000003C08CE001C08BE0DF91CF911F910F9169
:100C1000FF90EF900895CF93DF93D82FC62F1092B7
:100C2000CB01E0911401F091150185E391E0099564
:100C3000E0911401F09115018CE191E00995E091AA
:100C40001201F091130180E38D0F0995E0911401D9
:100C5000F091150182E391E00995CC23D1F08091C8
:100C6000CB01813071F404C08091CB01813049F413
:100C70001092CB018091CA018B3069F08A3069F4FF
:100C80000DC083E397E00197F1F7C15069F78CE05D
:100C900005C08CE003C08BE001C080E0DF91CF9104
:100CA0000895CF93DF93D82FC62F8FEF8D0F853008
:100CB00008F046C01092CB01E0911401F0911501AB
:100CC00085E391E00995E0911401F091150180E22E
:100CD00091E00995E0911201F091130180E38D0FED
:100CE0000995E0911401F091150182E391E00995D5
:100CF000A895CC2339F18091CB018130C9F404C08F
:100D00009091CB019130A1F41092CB018091CA0156
:100D10008B30D1F08A30D1F4AD2FB0E0A45DBE4F5E
:100D2000E0910E01F0910F018C9109958AE00FC0BE
:100D300083E397E00197F1F7C15011F78CE007C00A
:100D40008BE005C08CE003C08BE001C08CE0DF913C
:100D5000CF9108950F931F93CF93DF93062F78942D
:100D6000863008F081E0A82FB0E0A45DBE4FE0918E
:100D70000E01F0910F018C910995A895802F0E948A
:100D800042058130D1F0CDE2D1E011E0E0910E01D9
:100D9000F0910F0189910995A895802F0E94420535
:100DA000813039F4E0911601F091170110838AE047
:100DB00007C01F5F163051F702C08AE001C08BE008
:100DC000DF91CF911F910F910895CF93C82FE0919C
:100DD0001001F0911101099564E68C2F0E94AA067A
:100DE0008A3009F0FFCF44E650E06AE084E291E007
:100DF0000E94770544E650E06AE088E291E00E94B4
:100E00007705CF910895399A419A089539980895B0
:100E100084B18C6284B98CE58CBD8DB581608DBD4B
:100E200008958EBD0DB407FEFDCF0895CF93C82F52
:100E3000892F0E9411078C2F0E941107CF910895CE
:100E40001EBC0DB407FEFDCF8EB50895E0ECF0E0BA
:100E5000908195FFFDCF8093C60008951F93CF9397
:100E6000DF93EC018881882351F010E00E9426076F
:100E70001F5FFE01E10FF11D80818111F7CFDF912E
:100E8000CF911F9108951F93CF93DF93EC01888139
:100E9000882351F010E00E9426071F5FFE01E10F3A
:100EA000F11D80818111F7CFDF91CF911F910895BE
:100EB0008093C400089588E98093C10086E0809300
:100EC000C200089580B7806880BFB198EFE6F0E077
:100ED00080818160808344E150E060E070E088E9D7
:100EE00092E00E945F120E94BE030E947F038FED7A
:100EF00093EE9093850080938400E1E8F0E0808198
:100F000085608083529AECE6F0E08081886080837F
:100F100083E190E00E946F120E94E50684EB90E06E
:100F20000E946F128130A9F010929D0210929C02D3
:100F300010929F0210929E021092A0021092A102A3
:100F40001092A2021092A30261E084EB90E00E9452
:100F500087128091A4029091A5029C0128553240ED
:100F6000293B3B4058F088E592E09093EF01809355
:100F7000EE019093A5028093A40204C09093EF0128
:100F80008093EE0144E150E060E070E088E992E097
:100F90000E947712E8E6F0E080818260808380E042
:100FA0000E94C80A88EB9BE09093ED018093EC01CE
:100FB00080E49DE0A3E0B0E08093F0019093F10124
:100FC000A093F201B093F3010E94000B8091CE0137
:100FD0009091CF01A091D001B091D1010196A11DB6
:100FE000B11D8093CE019093CF01A093D001B09317
:100FF000D1014091EC015091ED0160E070E0841767
:101000009507A607B70718F40E94350502C00E948D
:1010100037054091CE015091CF016091D001709180
:10102000D1018091F0019091F101A091F201B09174
:10103000F30184179507A607B70740F41092CE0175
:101040001092CF011092D0011092D101A895BCCF7F
:101050001F920F920FB60F9211242F933F934F932D
:101060005F936F937F938F939F93AF93BF93EF9310
:10107000FF938091CB01811104C08091C6000E9432
:10108000AD0AFF91EF91BF91AF919F918F917F91A9
:101090006F915F914F913F912F910F900FBE0F90E5
:1010A0001F9018951F920F920FB60F9211242F9335
:1010B0003F934F935F936F937F938F939F93AF93E0
:1010C000BF93EF93FF938091EE019091EF01019711
:1010D0009093EF018093EE01892B11F40E94060793
:1010E0008FED93EE9093850080938400FF91EF91B4
:1010F000BF91AF919F918F917F916F915F914F9130
:101100003F912F910F900FBE0F901F901895F8945C
:10111000A895E0E6F0E08081886180838FE4808399
:1011200008950E9403070E9487080E9439050E94C3
:1011300035050E9462071F920F920FB60F9211247D
:101140002F933F934F935F936F937F938F939F93CF
:10115000AF93BF93EF93FF930E940607FF91EF9128
:10116000BF91AF919F918F917F916F915F914F91BF
:101170003F912F910F900FBE0F901F9018951F92C7
:101180000F920FB60F9211242F933F934F935F93BB
:101190006F937F938F939F93AF93BF93EF93FF933F
:1011A000339B6FC08091A4029091A5029093EF01B0
:1011B0008093EE010E9435052FEF8FE392E02150DE
:1011C00080409040E1F700C000008091CC019091F8
:1011D000CD0101969093CD018093CC01339907C046
:1011E0000E9437051092CD011092CC014AC0A895FB
:1011F000889708F443C02FEF8FE191E021508040A1
:101200009040E1F700C0000044E650E06AE089E366
:1012100091E00E9477052FEF8FE392E0215080400C
:101220009040E1F700C0000044E650E068E08DE344
:1012300091E00E9477055A9A2FEF8FE392E02150B8
:1012400080409040E1F700C000000E9437053399CC
:10125000FECF2FEF8FE39BE0215080409040E1F7DD
:1012600000C000000E9406072FEF8FE39BE0215093
:1012700080409040E1F700C0000003C00E943D059F
:101280009BCFFF91EF91BF91AF919F918F917F91F4
:101290006F915F914F913F912F910F900FBE0F90E3
:1012A0001F90189581E08093CB0161E471E084EF99
:1012B00091E00E94D211892B21F083E08093CA0132
:1012C0003BC165E471E084EF91E00E94D211892B6B
:1012D00021F089E08093CA012FC169E471E084EFB5
:1012E00091E00E94D211892B21F084E08093CA0101
:1012F00023C16DE471E084EF91E00E94D211892B4B
:1013000021F087E08093CA0117C16DE371E084EF9B
:1013100091E00E94D211892B21F088E08093CA01CC
:101320000BC161E571E084EF91E00E94D211892B3D
:1013300021F08AE08093CA01FFC064E571E084EF88
:1013400091E00E94D211892B21F08BE08093CA0199
:10135000F3C06AE571E084EF91E00E94D211892B1D
:1013600021F085E08093CA01E7C06EE571E084EF6B
:1013700091E00E94D211892B21F081E08093CA0173
:10138000DBC062E671E084EF91E00E94D211892B0C
:1013900021F08DE08093CA01CFC066E671E084EF52
:1013A00091E00E94D211892B21F08EE08093CA0136
:1013B000C3C06AE671E084EF91E00E94D211892BEC
:1013C00021F08FE08093CA01B7C06EE671E084EF30
:1013D00091E00E94D211892B21F080E18093CA0113
:1013E000ABC062E771E084EF91E00E94D211892BDB
:1013F00021F081E18093CA019FC066E771E084EF2C
:1014000091E00E94D211892B21F082E18093CA01E0
:1014100093C06AE771E084EF91E00E94D211892BBA
:1014200021F083E18093CA0187C06EE771E084EF09
:1014300091E00E94D211892B21F084E18093CA01AE
:101440007BC062E871E084EF91E00E94D211892BA9
:1014500021F085E18093CA016FC066E871E084EFF6
:1014600091E00E94D211892B21F086E18093CA017C
:1014700063C06AE871E084EF91E00E94D211892B89
:1014800021F087E18093CA0157C06EE871E084EFD4
:1014900091E00E94D211892B21F088E18093CA014A
:1014A0004BC062E971E084EF91E00E94D211892B78
:1014B00021F089E18093CA013FC066E971E084EFC1
:1014C00091E00E94D211892B21F08AE18093CA0118
:1014D00033C06AE971E084EF91E00E94D211892B58
:1014E00021F08BE18093CA0127C06EE971E084EF9F
:1014F00091E00E94D211892B21F08CE18093CA01E6
:101500001BC062EA71E084EF91E00E94D211892B46
:1015100021F08DE18093CA010FC066EA71E084EF8B
:1015200091E00E94D211892B21F08EE18093CA01B3
:1015300003C01092CB0108958091D701843050F000
:1015400081E08093D60167EF71E088E592E00E9428
:10155000CB1108951092D60108958A3049F08D304C
:1015600061F4E091D701F0E0EC50FE4F1082089555
:101570000E9452091092D7010895E091D70191E09D
:101580009E0F9093D701F0E0EC50FE4F80830895BA
:10159000CF92DF92EF92FF92CF93C82FA8950E942F
:1015A0008D026B017C01A8958C2F0E948D02C60EC6
:1015B000D71EE81EF91EF694E794D794C794C092FC
:1015C000A602D092A702E092A802F092A902CF91BF
:1015D000FF90EF90DF90CF9008950F931F930E949C
:1015E0008D020091A6021091A7022091A8023091CD
:1015F000A902601B710B820B930B1F910F91089531
:101600000F931F93CF93DF93CDB7DEB7C058D109A7
:101610000FB6F894DEBF0FBECDBF8091CB018130F5
:1016200009F0CBC21092CB018091CA0190E0FC017D
:101630003197EE31F10508F0ADC2EC5CFF4F0C9430
:10164000FB0F8AE791E00E942E078AEA91E00E9450
:101650002E07A3C264E681E00E940B06AEC224E618
:101660004AE068EB71E08DEB91E00E94BE05A5C2F7
:1016700044E650E06AE088E291E00E9477059DC26E
:1016800088E592E00E94C5106093EB0196C244E6A3
:1016900050E06AE081EC91E00E94770588EB9BE0E6
:1016A0009093ED018093EC0180EA96E8A1E0B0E030
:1016B0008093F0019093F101A093F201B093F301B4
:1016C0007CC244E650E06AE088E291E00E9477053F
:1016D00088EB9BE09093ED018093EC0180E49DE02A
:1016E000A3E0B0E08093F0019093F101A093F201A8
:1016F000B093F30162C283E190E00E946F120E94F6
:10170000E5065BC282E691E00E942E078091D60139
:10171000882381F188E592E00E94C510603171054F
:10172000810591054CF46093D2017093D3018093AD
:10173000D4019093D5010CC08FE090E0A0E0B0E020
:101740008093D2019093D301A093D401B093D5019B
:1017500002ED11E0D8016C9182E190E00E948712C5
:10176000EBEDF1E0D8019C919F708081807F892B07
:10177000808313C282E190E00E946F124AE0BE01B2
:101780006F5F7F4F90E00E94EC110E94430705C2FB
:101790008091D601882309F410C288E592E00E9466
:1017A000A7100E94920448E050E064E070E08CE9E9
:1017B00092E00E9477128AE691E00E942E07EDC126
:1017C00086E691E00E942E078091D601882359F188
:1017D00088E592E00E94C5104CE3469F9001479F28
:1017E000300D11243093A5022093A4022835B2E0D5
:1017F0003B0738F488E592E09093A5028093A40219
:1018000009C021313E4030F080E19EE09093A50276
:101810008093A4026091A4027091A5028CE090E0F4
:101820000E94A512BAC12091A4023091A502A9E894
:10183000B8E80E94011096958795929582958F70D1
:1018400089279F708927BC0180E090E02AE0AE01E3
:101850004F5F5F4F0E94F7110E9443079EC10E9495
:1018600074044AE0BE016F5F7F4F90E00E94EC116C
:101870008EE691E00E942E07CE0101960E9443075A
:101880008CC1FFEF2FE181E0F15020408040E1F773
:1018900000C0000044E650E06AE089E391E00E9465
:1018A00077059FEFAFE3B2E09150A040B040E1F781
:1018B00000C0000024E64AE068E572E085EC91E0B3
:1018C0000E94BE05EFEFFFE322E0E150F040204030
:1018D000E1F700C0000044E650E06AE081EC91E0EE
:1018E0000E94770582E791E00E942E0756C1809101
:1018F000D601882309F446C088E592E00E94A7102B
:10190000182F863008F059C189E999E5A1E0815086
:101910009040A040E1F7000044E650E06AE089E32F
:1019200091E00E9477058A3009F047C168EC812F69
:101930000E9451068A3009F040C1BFEFEFEFF8E096
:10194000B150E040F040E1F700C000004CE251E04F
:101950006AE081EC91E00E9477058A3009F02DC1A0
:1019600029E989E591E0215080409040E1F70000AD
:10197000612F83E190E00E94871286E791E00E9448
:101980002E070BC183E190E00E946F124AE0BE0176
:101990006F5F7F4F90E00E94EC1186E791E00E941C
:1019A0002E07CE0101960E944307F7C08EE791E013
:1019B0000E942E0780E00E948D022AE0AE014F5F58
:1019C0005F4F0E94F7110E944307E7C08EE891E045
:1019D0000E942E0786E00E94CF022AE0AE014F5FF0
:1019E0005F4F0E94F7110E944307D7C080E00E941A
:1019F000C80A86E891E00E942E07CFC08AE891E0ED
:101A00000E942E076091A6027091A7028091A80201
:101A10009091A9022AE0AE014F5F5F4F0E94F7113B
:101A20000E942E07BAC082E891E00E942E0780E053
:101A30000E94ED0A2AE0AE014F5F5F4F0E94F7114E
:101A40000E944307AAC082E991E00E942E0780917C
:101A5000D601882399F088E592E00E94A310AB019B
:101A6000BC01409398025093990260939A0270933C
:101A70009B0280E090E00E9499128FC060919802D2
:101A80007091990280919A0290919B0200E025E06A
:101A9000AE014F5F5F4F0E941010CE0101960E9471
:101AA00043077BC086E991E00E942E078091D60112
:101AB000882349F040E450E064E770E088E592E074
:101AC0000E9477126AC040E450E064E770E0CE0103
:101AD00001960E945F12CE0101960E9443075DC0ED
:101AE0008EE991E00E942E078091D601882349F06B
:101AF00040E250E064E170E088E592E00E947712F5
:101B00004CC040E250E064E170E0CE0101960E94DA
:101B10005F12CE0101960E9443073FC082EA91E026
:101B20000E942E078091D601882349F040E250E0C0
:101B300064E370E088E592E00E9477122EC040E2F4
:101B400050E064E370E0CE0101960E945F12CE0186
:101B500001960E94430721C086EA91E00E942E0769
:101B60008091D601882349F040E250E064E570E0BE
:101B700088E592E00E94771210C040E250E064E5F0
:101B800070E0CE0101960E945F12CE0101960E9484
:101B9000430703C01092CA0110C082E391E00E9483
:101BA0002E071092D6011092CA018091A402909142
:101BB000A5029093EF018093EE01C058DF4F0FB65E
:101BC000F894DEBF0FBECDBFDF91CF911F910F9173
:101BD00008955058BB27AA270ED048C139D130F0FC
:101BE0003ED120F031F49F3F11F41EF42EC10EF4CB
:101BF000E095E7FB24C1E92F4AD180F3BA176207C9
:101C000073078407950718F071F49EF562C10EF40E
:101C1000E0950B2EBA2FA02D0B01B90190010C01FC
:101C2000CA01A0011124FF27591B99F0593F50F414
:101C3000503E68F11A16F040A22F232F342F44276C
:101C4000585FF3CF469537952795A795F040539564
:101C5000C9F77EF41F16BA0B620B730B840BBAF034
:101C60009150A1F0FF0FBB1F661F771F881FC2F79F
:101C70000EC0BA0F621F731F841F48F487957795B3
:101C80006795B795F7959E3F08F0B3CF9395880F6A
:101C900008F09927EE0F9795879508950CD0E6C028
:101CA000DED040F0D5D030F021F45F3F19F0C7C04E
:101CB000511110C1CAC0EBD098F39923C9F3552331
:101CC000B1F3951B550BBB27AA276217730784072F
:101CD00038F09F5F5F4F220F331F441FAA1FA9F3E5
:101CE00033D00E2E3AF0E0E830D091505040E695D7
:101CF000001CCAF729D0FE2F27D0660F771F881F38
:101D0000BB1F261737074807AB07B0E809F0BB0B26
:101D1000802DBF01FF2793585F4F2AF09E3F51054A
:101D200068F08DC0D7C05F3FECF3983EDCF386953A
:101D300077956795B795F7959F5FC9F7880F911DC0
:101D40009695879597F90895E1E0660F771F881FAC
:101D5000BB1F621773078407BA0720F0621B730B5F
:101D6000840BBA0BEE1F88F7E095089598D088F0A1
:101D70009F5790F0B92F9927B751A0F0D1F0660F77
:101D8000771F881F991F1AF0BA95C9F712C0B13092
:101D900081F09FD0B1E008959CC0672F782F8827ED
:101DA000B85F39F0B93FCCF3869577956795B395D1
:101DB000D9F73EF490958095709561957F4F8F4F40
:101DC0009F4F0895E89409C097FB3EF49095809545
:101DD000709561957F4F8F4F9F4F9923A9F0F92FF1
:101DE00096E9BB279395F695879577956795B7956F
:101DF000F111F8CFFAF4BB0F11F460FF1BC06F5F55
:101E00007F4F8F4F9F4F16C0882311F096E911C066
:101E1000772321F09EE8872F762F05C0662371F087
:101E200096E8862F70E060E02AF09A95660F771F9B
:101E3000881FDAF7880F9695879597F9089597F98F
:101E40009F6780E870E060E008959FEF80EC089560
:101E500000240A9416161706180609060895002489
:101E60000A9412161306140605060895092E039403
:101E7000000C11F4882352F0BB0F40F4BF2B11F477
:101E800060FF04C06F5F7F4F8F4F9F4F089557FDD6
:101E90009058440F551F59F05F3F71F04795880FD8
:101EA00097FB991F61F09F3F79F08795089512166F
:101EB00013061406551FF2CF4695F1DF08C016161B
:101EC00017061806991FF1CF8695710561050894CC
:101ED0000895E894BB2766277727CB0197F90895E3
:101EE00066D008F48FEF08950BD0C0CFB1DF28F093
:101EF000B6DF18F0952309F0A2CFA7CF1124EACFBF
:101F0000C6DFA0F3959FD1F3950F50E0551F629F58
:101F1000F001729FBB27F00DB11D639FAA27F00D42
:101F2000B11DAA1F649F6627B00DA11D661F829F69
:101F30002227B00DA11D621F739FB00DA11D621F4E
:101F4000839FA00D611D221F749F3327A00D611D6B
:101F5000231F849F600D211D822F762F6A2F11244D
:101F60009F5750408AF0E1F088234AF0EE0FFF1FA0
:101F7000BB1F661F771F881F91505040A9F79E3FD7
:101F8000510570F05CCFA6CF5F3FECF3983EDCF3D9
:101F9000869577956795B795F795E7959F5FC1F714
:101FA000FE2B880F911D9695879597F90895990FA7
:101FB0000008550FAA0BE0E8FEEF16161706E80713
:101FC000F907C0F012161306E407F50798F0621B34
:101FD000730B840B950B39F40A2661F0232B242B09
:101FE000252B21F408950A2609F4A140A6958FEF28
:101FF000811D811D0895EE0FFF1F0590F491E02DC6
:102000000994A29FB001B39FC001A39F700D811DD1
:102010001124911DB29F700D811D1124911D0895F1
:10202000A1E0B0E0E6E1F0E10C945A146A01102F4F
:10203000322F283008F037E000E0232FA601398343
:102040000E94EC10D6019C91292F287039817601CD
:1020500090FF09C0211107C0BFEFEB1AFB0A2DE268
:10206000F601208313C011FF07C0FFEFEF1AFF0A2C
:102070004BE2D6014C9308C010FF06C0BFEFEB1A2D
:10208000FB0A40E2F6014083211105C092FF0DC01A
:1020900064EA70E002C06CEA70E012FF02C06C5F9C
:1020A0007F4FC7010E94C41149C0F7013196D60184
:1020B00011962C91D7012C93213309F09F7E332365
:1020C000D1F0AF01B6016E5F7F4F7B016EE2732FDF
:1020D0007E0DD7012D917D01DA016D93AD017E1545
:1020E00011F0622FF6CF3150DF01A30FB11DFD01BA
:1020F000329611962C9312FF02C025E401C025E60A
:102100002083DF01129687FF04C09DE291838195B1
:1021100008C0811104C094FF02C09DE201C09BE28F
:10212000918390E38A301CF09F5F8A50FBCF9C9391
:10213000805D11968C93119712961C92C601219680
:10214000E8E00C947614662777270C94AB12FC0118
:1021500088279927E89421912032E9F3293010F05B
:102160002E30C8F32B3241F02D3239F4689404C07C
:102170000E941B12820F911D219120532A30C0F31F
:102180001EF4909581959F4F08951F93FC01992708
:102190008827BC01E89411911032E9F3193010F04E
:1021A0001E30C8F31B3251F01D3249F4689406C04A
:1021B0000E940612610F711D811D911D1191105316
:1021C0001A30B0F33EF490958095709561957F4FED
:1021D0008F4F9F4F1F910895283008F027E0332735
:1021E000DA01990F311D87FD916000966105710537
:1021F00039F432602E5F3D9330E32A95E1F708957C
:102200009F3F30F080387105610509F03C5F3C5F0D
:102210003D93913008F08068911DDF93CF931F9319
:102220000F93FF92EF92192F987F9695E92F96952D
:102230009695E90FFF27E25FFE4F99273327EE249B
:10224000FF24A701E70105900894079428F4360FAE
:10225000E71EF81E491F511D660F771F881F991F23
:102260000694A1F70590079428F4E70EF81E491F7D
:10227000561FC11D770F881F991F661F0694A1F76F
:102280000590079428F4F80E491F561FC71FD11D4B
:10229000880F991F661F771F0694A1F70590079472
:1022A00020F4490F561FC71FD81F990F661F771FAD
:1022B000881F0694A9F784911095177041F0D69560
:1022C000C79557954795F794E7941A95C1F7E4EBAE
:1022D000F0E0689415901591359165919591059070
:1022E0007FE27395E118F10A430B560BC90BD00935
:1022F000C0F7E10CF11E431F561FC91FD01D7EF40D
:10230000703311F48A95E6CFE894015030F0080F4D
:102310000AF40027021708F4202F2395022F7A339E
:1023200028F079E37D932A95E9F710C07D932A95EB
:1023300089F6069497956795379517951794E11840
:10234000F10A430B560BC90BD00998F023957E91E7
:1023500073957A3308F070E37C932013B8F77E917D
:1023600070617D9330F0839571E37D9370E32A95DE
:10237000E1F71124EF90FF900F911F91CF91DF9122
:10238000992787FD90950895FB01DC0105900D923A
:102390000020E1F70895FB01DC0101900D9200207F
:1023A000E1F70895FB0151915523A9F0BF01DC012C
:1023B0004D9145174111E1F759F4CD0101900020ED
:1023C00049F04D9140154111C9F3FB014111EFCF87
:1023D00081E090E001970895BB274A3031F49923BA
:1023E00022F4BDE2909581959F4F0C944612BB2735
:1023F0002A3051F4992342F4BDE29095809570956E
:1024000061957F4F8F4F9F4F0C942412592F482F67
:10241000372F262F660F771F881F991F660F771F8C
:10242000881F991F620F731F841F951F660F771FE8
:10243000881F991F08957AE0979F902D879F802D80
:10244000910D11240895BB27FA01A62F621771057B
:1024500081059105330B30FB66F0AA27660F771FC5
:10246000881F991FAA1FA21710F0A21B639538504E
:10247000A9F7A05DAA3308F0A95DA19336F7B111C1
:10248000B1931082CA010C942E14BB27FB0155276F
:10249000AA27880F991FAA1FA41710F0A41B8395C1
:1024A0005051B9F7A05DAA3308F0A95DA193009738
:1024B00079F7B111B1931192CB010C942E14DC0178
:1024C000CB01FC01F999FECF06C0F2BDE1BDF89A3F
:1024D000319600B40D9241505040B8F70895F999E3
:1024E000FECF92BD81BDF89A992780B50895DC0191
:1024F000A40FB51F4150504048F0CB01840F951FE9
:102500002E910E94881241505040D0F70895262FF6
:10251000F999FECF92BD81BDF89A019700B40216D9
:1025200039F01FBA20BD0FB6F894FA9AF99A0FBE87
:1025300008950396272F0E9488120E948712252F44
:102540000E948812242F0C9488120196272F0E9433
:1025500088120C948712A0E0B0E0E1EBF2E10C9459
:1025600056148B016115710521F0DB018C931196D6
:102570009C93EC015E01BFEFAB1ABB0A7501C880EA
:102580008C2D90E00E940E14892B11F0E501F2CF02
:10259000EDE2CE1208C07E01F2E0EF0EF11CC98020
:1025A000DD24D39409C02BE2C21205C07E0142E0B3
:1025B000E40EF11CC980D12CE701219743E050E0E3
:1025C00066EB71E0CE010E941614892BC1F42396AC
:1025D00045E050E061EB71E0CE010E941614892BBA
:1025E00009F425960115110519F0D801CD93DC9356
:1025F000D11006C160E070E080E89FE70AC143E0C7
:1026000050E06EEA71E0CE010E941614892B59F455
:102610000115110509F4F9C0B2E0EB0EF11CF80147
:10262000F182E082F2C0F70160E070E0CB01C0E02F
:10263000D0E07F01A0EDAA2EAC0C29E02A1530F1E4
:102640004D2D4260B42E2D2D2870D2FE04C02111D4
:1026500025C0219623C021112197A5E0B0E09B0160
:10266000AC010E944514660F771F881F991F6A0DE1
:10267000711D811D911D6839A9E97A078A07A9E1B1
:102680009A0760F0BD2DB660BB2E08C02EEFA212D7
:102690000AC0D3FC50C04D2D4860B42E3196D701EE
:1026A000CC90DB2CC6CF2C2D2F7D253409F043C0D8
:1026B000A081AD3241F4BD2DB061DB2E7F0122E05F
:1026C000E20EF11C0CC07F01AB3231F04FEFE41A87
:1026D000F40A21E030E006C0A2E0EA0EF11CA1817C
:1026E00022E030E0A053AA3018F0E21AF30A23C027
:1026F000F70120E030E02038BCE03B075CF4A901A2
:10270000440F551F440F551F240F351F220F331F31
:102710002A0F311DAF014F5F5F4F7A01A081A05397
:10272000AA3010F4FA01E7CFD4FE03C03195219509
:102730003109C20FD31FD1FE09C00115110531F0B7
:10274000E1E0EE1AF108D801ED92FC920E94E20E4F
:102750002D2D2370233019F04B015C0106C04B0175
:102760005C01B7FAB094B7F8B09420E030E0A9016A
:10277000C501B4010E943E14882309F43EC0D7FF6E
:1027800006C0D195C195D1090DEC11E002C005EE4E
:1027900011E06801B8E1CB1AD10890E2E92EF12CE2
:1027A000CE15DF0574F0F8012591359145915491CE
:1027B000C501B4010E94740F4B015C01CE19DF0901
:1027C000EFCF04501109F594E7940C151D0541F75E
:1027D0008A2D880F8B2D881F8F3F49F020E030E035
:1027E000A901C501B4010E943E14811106C082E214
:1027F00090E09093AD028093AC02C501B40109C092
:1028000060E070E080E89FEF04C060E070E080EC82
:102810009FE7CDB7DEB7ECE00C947214911132C093
:10282000803219F089508550D0F70895FB01DC0102
:102830004150504088F08D9181341CF08B350CF460
:10284000805E659161341CF06B350CF4605E861B14
:10285000611171F3990B0895881BFCCFDC01FC0119
:10286000672F71917723E1F7329704C07C916D93C4
:1028700070836291AE17BF07C8F3089598DB08F420
:1028800081E008959927882708950E940110A59F47
:10289000900DB49F900DA49F800D911D112408955B
:1028A0002F923F924F925F926F927F928F929F9260
:1028B000AF92BF92CF92DF92EF92FF920F931F934E
:1028C000CF93DF93CDB7DEB7CA1BDB0B0FB6F894FF
:1028D000DEBF0FBECDBF09942A88398848885F843F
:1028E0006E847D848C849B84AA84B984C884DF80B0
:1028F000EE80FD800C811B81AA81B981CE0FD11D94
:102900000FB6F894DEBF0FBECDBFED010895F89469
:02291000FFCFF7
:10291200DB01DD01D8012007160711070807580758
:102922005B0726072E07AB02AA029C025343520002
:1029320042415500574B500050415200002F170B97
:1029420007030D0A0041542300454E4400445343FB
:1029520000525150005343510050524400434F4ED5
:10296200004F4B004552524F520052505400504FAC
:102972004E0046414400544F4600434254004742F1
:102982005400534E410042535400565253004443A4
:10299200480044434F0053434F0047434F004454C1
:1029A2004D0043544D0044415400434454005347A6
:1029B20044005547440050474400576569676874AE
:1029C2005363616C657334003132333400504E55B9
:0A29D20000534E44004E414D00003A
:00000001FF
