:100000002FC049C048C047C053C745C02EC743C0D2
:1000100042C041C040C03FC03EC0E4C63CC03BC03F
:100020003AC039C0B6C637C036C035C034C033C098
:1000300032C031C03BC8A3C9F2C7F9C7FFC79FC9C7
:1000400003C81BC8E8C79BC99AC999C934C887C8DF
:1000500072C8CEC8DBC80CC9D7C75FC96AC975C921
:1000600011241FBECFEFD4E0DEBFCDBF11E0A0E072
:10007000B1E0E2E8FCE102C005900D92AA3AB107B6
:10008000D9F722E0AAEAB1E001C01D92AB3BB2076A
:10009000E1F7E6D6F4CDB4CFE0910401F09105018B
:1000A000808180648083E0910401F091050180816A
:1000B000877C80628083F8942A98E0910A01F0910D
:1000C0000B018091B80109951C99FECFE0910601C2
:1000D000F091070109958093BA01789408952A98C0
:1000E000E0910A01F0910B018FEF0995E0910A016F
:1000F000F0910B018FEF0995E0910A01F0910B014E
:100100008FEF0995E0910A01F0910B018FEF0995AE
:1001100089E993E00197F1F700C00895CF92DF924B
:10012000EF92FF92CF93F894E0910A01F0910B01C6
:100130008091B80109951C99FECF8091BA018B7509
:1001400069F0E0910601F09107010995C82ED12CC4
:10015000E12CF12C7601DD24CC2403C0C12CD12C60
:100160007601E0910601F09107010995C82FE09111
:100170000601F09107010995A7019601282BDA01E4
:10018000C9017894BC01CD017C2BCF91FF90EF90F9
:10019000DF90CF900895CF92DF92EF92FF92CF93AE
:1001A000DF938091BA018B7599F0E0910601F0918F
:1001B0000701099590E0A0E0B0E0DC0199278827CD
:1001C0008093BF019093C001A093C101B093C2017D
:1001D000CFEBD1E0C880D980EA80FB80E0910601B6
:1001E000F09107010995D82AC882D982EA82FB8258
:1001F000E0910601F09107010995C82AC882D982C9
:10020000EA82FB82DF91CF91FF90EF90DF90CF9059
:1002100008950F931F93CF93DF93E0910401F09122
:100220000501808180648083E0910401F0910501E3
:100230008081877C88608083F8942A98E0910A0105
:10024000F0910B018091B80109951C99FECFE091C6
:100250000601F09107010995082F10E0102F0027E3
:10026000CBEBD1E019830883E0910601F0910701FF
:1002700009959801282BC901998388837894DF9187
:10028000CF911F910F910895E0910401F091050124
:1002900080818F7B8083E0910401F0910501808152
:1002A000877C88608083F8942A98E0910A01F09115
:1002B0000B018091B8010995E0910801F0910901C5
:1002C0008091BB019091BC010995789408950F939A
:1002D0001F93CF93DF93E0910401F091050180819A
:1002E00080648083E0910401F09105018081877C26
:1002F00080618083F8942A98E0910A01F0910B01C3
:100300008091B80109951C99FECFE0910601F0910A
:1003100007010995082F10E0102F0027CDEBD1E041
:1003200019830883E0910601F0910701099598016E
:10033000282BC901998388837894DF91CF911F91ED
:100340000F910895E0910401F091050180818F7B68
:100350008083E0910401F09105018081877C8061B8
:100360008083F8942A98E0910A01F0910B01809122
:10037000B8010995E0910801F09109018091BD0152
:100380009091BE01099578940895299A91E39A95E0
:10039000F1F70000F894E0910201F0910301982F29
:1003A00097708081887F892B80832A98E091000153
:1003B000F091010181818F7180628183C3DF64DFED
:1003C0001C99FECFE0910401F091050180818064C9
:1003D0008083E0910401F09105018081877C886130
:1003E0008083E0910A01F0910B018091B801099599
:1003F000D2DE789429986091BF017091C0018091FC
:10040000C1019091C2010895CF93C82FE0910201DC
:10041000F0910301862F87706081687F682B60836D
:1004200091DFE0910001F09101019C2F9295990FCD
:10043000907E81818F71892B8183299A81E38A95AE
:10044000F1F7000021DF1C99FECF2998E09104010B
:10045000F09105018081806480832A98CD7FC4302B
:1004600091F4E0910401F09105018081877C806323
:10047000808354DE6093C3017093C4018093C501EF
:100480009093C60110C0E0910401F09105018081B4
:100490008863808343DE6093C7017093C8018093B3
:1004A000C9019093CA01CF910895E0910C01F09198
:1004B0000D0109952A9A219A12DEABDE08DFECDDE8
:1004C000E0910201F0910301818180618183E091DB
:1004D0000201F091030181818F7D8183E0911801F8
:1004E000F09119018081803110F08FE08083A0911C
:1004F0001801B0911901EBEBF1E09C919F708081A4
:10050000807F892B8083C0DE1DDF60E084E07CDF9C
:1005100066E084E079DF0895AAE7B0E08C91806816
:100520008C93ECE7F0E080818F7D808380818F77F2
:1005300080838081806480838081807F80838081CC
:10054000876080838C91887F8C938C9187608C935B
:100550000895CF93DF9300D0CDB7DEB780917800B8
:100560008983809179008A8389819A810F900F9085
:10057000DF91CF910895EF92FF920F931F93CF9346
:10058000DF93CDB7DEB728970FB6F894DEBF0FBE66
:10059000CDBFFE01319688E0DF011D928A95E9F713
:1005A0000AE710E07E01B9E0EB0EF11C8D819E811F
:1005B00098878F838B819C819E838D8389819A818B
:1005C0009C838B837894F801808180648083D80138
:1005D0008C9184FFFCCFBDDF9A838983FE01319625
:1005E000AC0121913191821793070CF4C9012417B2
:1005F00035070CF4A901EE15FF0599F74A5F5F4F27
:10060000481759079CF228960FB6F894DEBF0FBE24
:10061000CDBFDF91CF911F910F91FF90EF90089583
:10062000FF920F931F93CF93DF93A895ECE7F0E031
:100630009081907F90839081892B80839CDF689448
:10064000FF24F3F800E010E0CAE7D0E0A895888125
:1006500080648883888184FFFDCF7BDF080F191FAA
:10066000FA94A1F7C80196958795969587959695E2
:100670008795DF91CF911F910F91FF900895CF93B0
:10068000DF9387E0CDDFC0911A01D0911B012A8151
:100690003B81821B930BBC0180E090E0ABD82C81A6
:1006A0003D814E815F8112D879D8862FDF91CF911D
:1006B0000895CF92DF92EF92FF920F931F93CF9303
:1006C000DF93082F853608F004E618E0C0E0D0E09C
:1006D00087E0A6DFC80FD91F1150D1F7E0911A01AA
:1006E000F0911B01D695C795D695C795D695C79518
:1006F000D183C083C0911A01D0911B01602F70E09B
:1007000080E090E079D82AE037ED43E25CE304D959
:100710002AE939E949E450E475D76B017C01688125
:10072000798180E090E066D89B01AC01C701B601F9
:10073000CDD79B01AC016DEC7CEC84E890E4C6D78E
:100740006B017C0120E030E040E854E4E1D8181669
:1007500044F40F2EC12CD12CF0E8EF2EF4E4FF2E40
:10076000F02DC701B6011AD879836883C0911A01A8
:10077000D0911B016881798180E090E03BD86B01CA
:100780007C019B01AC016DEC7CEC84E890E49ED78D
:100790009B01AC016AE979E989E490E497D7FED737
:1007A0007B836A8380E090E025D89B01AC01C70180
:1007B000B60127D720E030E048EC52E487D76C83BD
:1007C0007D838E839F83DF91CF911F910F91FF9047
:1007D000EF90DF90CF9008955B9A08955B9808950D
:1007E000539AFCDF08959BB188E089278BB908955F
:1007F0001092AB015A9AEFEFF7ED3197F1F700C085
:1008000000005A98FFEF2FEB31E2F15020403040CA
:10081000E1F700C000008823D1F09091AB01913046
:1008200071F404C09091AB01913049F41092AB0186
:100830008091AA018B3069F0813069F40895E3E377
:10084000F7E03197F1F7815069F78CE008958CE07B
:1008500008958BE0089583E00895FF920F931F930E
:10086000CF93DF938C01F62EEA011092AB01E09159
:100870001401F091150185E391E00995E0911401CF
:10088000F0911501C8010995E0911401F09115014D
:1008900082E391E009952097F1F0A8958091AB0152
:1008A000813081F405C0A8958091AB01813051F46D
:1008B0001092AB018091AA018B3079F08F1571F005
:1008C00080E00CC083E397E00197F1F72197209730
:1008D00051F78CE003C08CE001C08BE0DF91CF9139
:1008E0001F910F91FF900895EF92FF920F931F9326
:1008F000CF93DF938C01EB01E42EF22E1092AB012B
:10090000E0911401F091150185E391E00995E091E2
:100910001401F0911501C8010995E0911401F091BD
:100920001501CE010995E0911401F091150182E3C2
:1009300091E00995FF20D9F08091AB01813079F4E5
:1009400004C08091AB01813051F41092AB018091D1
:10095000AA018B3071F08E1569F080E00BC083E343
:1009600097E00197F1F7FA9461F78CE003C08CE00F
:1009700001C08BE0DF91CF911F910F91FF90EF901D
:100980000895CF93DF93D82FC62F1092AB01E0913B
:100990001401F091150185E391E00995E0911401AE
:1009A000F09115018CE191E00995E0911201F0912F
:1009B000130180E38D0F0995E0911401F091150169
:1009C00082E391E00995CC23D1F08091AB01813095
:1009D00071F404C08091AB01813049F41092AB01F5
:1009E0008091AA018B3069F08A3069F40DC083E3ED
:1009F00097E00197F1F7C15069F78CE005C08CE0F2
:100A000003C08BE001C080E0DF91CF910895CF93C8
:100A1000DF93D82FC62F8FEF8D0F853008F046C09B
:100A20001092AB01E0911401F091150185E391E082
:100A30000995E0911401F091150180E291E009958A
:100A4000E0911201F091130180E38D0F0995E0917F
:100A50001401F091150182E391E00995A895CC234A
:100A600039F18091AB018130C9F404C09091AB01A0
:100A70009130A1F41092AB018091AA018B30D1F09A
:100A80008A30D1F4AD2FB0E0A45DBE4FE0910E01ED
:100A9000F0910F018C9109958AE00FC083E397E0F4
:100AA0000197F1F7C15011F78CE007C08BE005C04A
:100AB0008CE003C08BE001C08CE0DF91CF91089502
:100AC0000F931F93CF93DF93062F7894863008F00F
:100AD00081E0A82FB0E0A45DBE4FE0910E01F0913F
:100AE0000F018C910995A895802F82DE8130C9F085
:100AF000CDE2D1E011E0E0910E01F0910F0189917A
:100B00000995A895802F74DE813039F4E0911601A3
:100B1000F091170110838AE007C01F5F163059F764
:100B200002C08AE001C08BE0DF91CF911F910F914D
:100B30000895CF93C82FE0911001F091110109950C
:100B400064E68C2FBDDF8A3009F0FFCF44E650E029
:100B50006AE084E291E081DE44E650E06AE088E207
:100B600091E07BDECF910895399A419A08953998A2
:100B7000089584B18C6284B98CE58CBD8DB581609B
:100B80008DBD08958EBD0DB407FEFDCF0895CF93A2
:100B9000C82F892FF7DF8C2FF5DFCF9108951EBC6A
:100BA0000DB407FEFDCF8EB50895E0ECF0E0908126
:100BB00095FFFDCF8093C60008951F93CF93DF93D9
:100BC000EC018881882349F010E0EFDF1F5FFE0110
:100BD000E10FF11D80818111F8CFDF91CF911F913D
:100BE00008951F93CF93DF93EC018881882349F008
:100BF00010E0DBDF1F5FFE01E10FF11D808181113D
:100C0000F8CFDF91CF911F9108958093C40008958C
:100C100088E98093C10086E08093C200089580B780
:100C2000806880BFB198EFE6F0E0808181608083CA
:100C300043E450E060E470E088E792E0D3D76CDCF6
:100C400034DC8FED93EE9093850080938400E1E88F
:100C5000F0E0808185608083529AECE6F0E080814C
:100C60008860808382E890E0CDD763DF83E890E0FE
:100C7000C9D78130A1F01092AC021092AB02109251
:100C8000AE021092AD021092AF021092B00210921A
:100C9000B1021092B20261E083E890E0CAD780917D
:100CA000B3029091B4029C0128553240293B3B404D
:100CB00058F088E592E09093CF018093CE01909315
:100CC000B4028093B30204C09093CF018093CE010D
:100CD00043E450E060E470E088E792E09BD7E8E608
:100CE000F0E080818260808380E068D488EB9BE0C4
:100CF0009093CD018093CC0180E49DE0A3E0B0E02F
:100D00008093D0019093D101A093D201B093D301ED
:100D10005BD18091AE019091AF01A091B001B091F3
:100D2000B1010196A11DB11D8093AE019093AF0159
:100D3000A093B001B093B1014091CC015091CD018D
:100D400060E070E084179507A607B70710F444DD4C
:100D500001C044DD4091AE015091AF016091B001FE
:100D60007091B1018091D0019091D101A091D201F7
:100D7000B091D30184179507A607B70740F41092E6
:100D8000AE011092AF011092B0011092B101A8957E
:100D9000BFCF1F920F920FB60F9211242F933F9344
:100DA0004F935F936F937F938F939F93AF93BF9373
:100DB000EF93FF938091AB01811103C08091C60036
:100DC000E3D3FF91EF91BF91AF919F918F917F916D
:100DD0006F915F914F913F912F910F900FBE0F90A8
:100DE0001F9018951F920F920FB60F9211242F93F8
:100DF0003F934F935F936F937F938F939F93AF93A3
:100E0000BF93EF93FF938091CE019091CF01019713
:100E10009093CF018093CE01892B09F4A8DE8FED4A
:100E200093EE9093850080938400FF91EF91BF91A2
:100E3000AF919F918F917F916F915F914F913F9172
:100E40002F910F900FBE0F901F901895F894A895B2
:100E5000E0E6F0E08081886180838FE480830895FC
:100E600083DEF4DFBDDCB8DCDADE1F920F920FB652
:100E70000F9211242F933F934F935F936F937F9320
:100E80008F939F93AF93BF93EF93FF9370DEFF9188
:100E9000EF91BF91AF919F918F917F916F915F91F2
:100EA0004F913F912F910F900FBE0F901F9018956B
:100EB0001F920F920FB60F9211242F933F934F93CF
:100EC0005F936F937F938F939F93AF93BF93EF93B2
:100ED000FF93339B68C08091B3029091B4029093CA
:100EE000CF018093CE0178DC2FEF8FE392E0215089
:100EF00080409040E1F700C000008091AC019091EB
:100F0000AD0101969093AD018093AC01339906C079
:100F100065DC1092AD011092AC0145C0A895889790
:100F200008F43FC02FEF8FE191E0215080409040C6
:100F3000E1F700C0000044E650E06AE089E391E098
:100F40008CDC2FEF8FE392E0215080409040E1F75E
:100F500000C0000044E650E068E08DE391E07DDCF5
:100F60005A9A2FEF8FE392E0215080409040E1F7B2
:100F700000C0000033DC3399FECF2FEF8FE39BE0FE
:100F8000215080409040E1F700C00000F0DD2FEFDD
:100F90008FE39BE0215080409040E1F700C00000CB
:100FA00002C021DCA1CFFF91EF91BF91AF919F9142
:100FB0008F917F916F915F914F913F912F910F9002
:100FC0000FBE0F901F9018950F931F93CF93DF9331
:100FD000CDB7DEB7C058D1090FB6F894DEBF0FBE4B
:100FE000CDBF8091AB01813009F0DBC11092AB0124
:100FF0008091AA0190E0FC013197E631F10508F0FB
:10100000BEC1E65EFF4F099481E491E0D6DD85E440
:1010100091E0D3DDB7C164E681E0B3DCC2C124E670
:101020004AE063E571E088E591E05EDCBAC144E640
:1010300050E06AE088E291E010DCB3C188E392E01E
:101040001BD56093CB01ADC144E650E06AE08CE56E
:1010500091E003DC88EB9BE09093CD018093CC0181
:1010600080EA96E8A1E0B0E08093D0019093D101AE
:10107000A093D201B093D30194C144E650E06AE05A
:1010800088E291E0EADB88EB9BE09093CD018093CE
:10109000CC0180E49DE0A3E0B0E08093D001909388
:1010A000D101A093D201B093D3017BC182E890E03B
:1010B000A9D53FDD76C180E691E07FDD8091B60164
:1010C000882371F188E392E0D7D4603171058105FE
:1010D00091054CF46093B2017093B3018093B40115
:1010E0009093B5010CC08FE090E0A0E0B0E0809359
:1010F000B2019093B301A093B401B093B50102EB98
:1011000011E0D8016C9181E890E093D5EBEBF1E030
:10111000D8019C919F708081807F892B808332C110
:1011200081E890E06FD54AE0BE016F5F7F4F90E0AD
:10113000EAD457DD27C18091B601882309F431C173
:1011400088E392E07CD4B5DA48E050E063E770E0F1
:101150008BEA92E05FD584E691E02FDD13C188E64B
:1011600091E02BDD8091B601882349F188E392E07C
:1011700083D44CE3469F9001479F300D1124309358
:10118000B4022093B3022835B2E03B0738F488E577
:1011900092E09093B4028093B30209C021313E40A3
:1011A00030F080E19EE09093B4028093B3026091AE
:1011B000B3027091B4028BE790E04DD5E3C020916B
:1011C000B3023091B402A9E8B8E82DD4969587957A
:1011D000929582958F7089279F708927BC0180E046
:1011E00090E02AE0AE014F5F5F4F97D4FADCCAC0AF
:1011F00046DA4AE0BE016F5F7F4F90E084D48CE610
:1012000091E0DBDCCE010196ECDCBCC0FFEF2FE10E
:1012100081E0F15020408040E1F700C0000044E64A
:1012200050E06AE089E391E018DB9FEFAFE3B2E0C2
:101230009150A040B040E1F700C0000024E64AE031
:1012400068E372E080E791E04FDBEFEFFFE322E03D
:10125000E150F0402040E1F700C0000044E650E0DB
:101260006AE08CE591E0F9DA84E791E0A6DC8AC0D7
:101270008091B601882309F440C088E392E0DFD36F
:10128000182F863008F08DC089E999E5A1E08150DA
:101290009040A040E1F7000044E650E06AE089E3B6
:1012A00091E0DBDA8A3009F07CC068EC812FAFDB9B
:1012B0008A3009F076C0BFEFEFEFF8E0B150E040C0
:1012C000F040E1F700C000004CE251E06AE08CE53C
:1012D00091E0C3DA8A3009F064C029E989E591E038
:1012E000215080409040E1F70000612F82E890E0BB
:1012F000A0D488E791E061DC45C082E890E082D428
:101300004AE0BE016F5F7F4F90E0FDD388E791E038
:1013100054DCCE01019665DC35C08CE791E04DDCF4
:1013200080E033D82AE0AE014F5F5F4FF6D359DC3F
:1013300029C080E891E041DC86E027D82AE0AE01B0
:101340004F5F5F4FEAD34DDC1DC084E891E035DC90
:101350008091B601882341F040E450E060E070E005
:1013600088E392E057D40EC040E450E060E070E0C3
:10137000CE01019637D4CE01019633DC03C0109222
:10138000AA010FC082E391E018DC1092B60110921E
:10139000AA018091B3029091B4029093CF018093FF
:1013A000CE01C058DF4F0FB6F894DEBF0FBECDBFE1
:1013B000DF91CF911F910F91089581E08093AB0150
:1013C00068E871E084ED91E084D3892B21F083E01B
:1013D0008093AA01C9C06CE871E084ED91E079D3F3
:1013E000892B21F089E08093AA01BEC060E971E0F9
:1013F00084ED91E06ED3892B21F084E08093AA01E3
:10140000B3C064E971E084ED91E063D3892B21F0EE
:1014100087E08093AA01A8C06DE371E084ED91E0BC
:1014200058D3892B21F088E08093AA019DC068E9F8
:1014300071E084ED91E04DD3892B21F08AE0809317
:10144000AA0192C06BE971E084ED91E042D3892B4F
:1014500021F08BE08093AA0187C061EA71E084EDFE
:1014600091E037D3892B21F085E08093AA017CC0DD
:1014700065EA71E084ED91E02CD3892B21F081E0C5
:101480008093AA0171C060E671E084ED91E021D300
:10149000892B21F08DE08093AA0166C068E671E097
:1014A00084ED91E016D3892B21F08EE08093AA0180
:1014B0005BC064E671E084ED91E00BD3892B21F0F1
:1014C0008FE08093AA0150C06CE671E084ED91E05A
:1014D00000D3892B21F080E18093AA0145C064E705
:1014E00071E084ED91E0F5D2892B21F081E18093C8
:1014F000AA013AC068E771E084ED91E0EAD2892B55
:1015000021F082E18093AA012FC061E471E084EDB3
:1015100091E0DFD2892B21F083E18093AA0124C0DE
:101520006CE771E084ED91E0D4D2892B21F084E165
:101530008093AA0119C060E871E084ED91E0C9D2FE
:10154000892B21F085E18093AA010EC064E871E047
:1015500084ED91E0BED2892B21F086E18093AA012F
:1015600003C01092AB0108958091B701843048F018
:1015700081E08093B60167ED71E088E392E0A2D24A
:1015800008951092B60108958A3049F08D3059F4CB
:10159000E091B701F0E0EC52FE4F108208950DDFAC
:1015A0001092B7010895E091B70191E09E0F9093DA
:1015B000B701F0E0EC52FE4F80830895CF92DF92A6
:1015C000EF92FF92CF93C82FA895DFD66B017C01D5
:1015D000A8958C2FDAD6C60ED71EE81EF91EF694F3
:1015E000E794D794C794C092B502D092B602E09225
:1015F000B702F092B802CF91FF90EF90DF90CF90BA
:1016000008955058BB27AA270ED048C139D130F0D1
:101610003ED120F031F49F3F11F41EF42EC10EF4A0
:10162000E095E7FB24C1E92F4AD180F3BA1762079E
:1016300073078407950718F071F49EF562C10EF4E4
:10164000E0950B2EBA2FA02D0B01B90190010C01D2
:10165000CA01A0011124FF27591B99F0593F50F4EA
:10166000503E68F11A16F040A22F232F342F442742
:10167000585FF3CF469537952795A795F04053953A
:10168000C9F77EF41F16BA0B620B730B840BBAF00A
:101690009150A1F0FF0FBB1F661F771F881FC2F775
:1016A0000EC0BA0F621F731F841F48F48795779589
:1016B0006795B795F7959E3F08F0B3CF9395880F40
:1016C00008F09927EE0F9795879508950CD0E6C0FE
:1016D000DED040F0D5D030F021F45F3F19F0C7C024
:1016E000511110C1CAC0EBD098F39923C9F3552307
:1016F000B1F3951B550BBB27AA2762177307840705
:1017000038F09F5F5F4F220F331F441FAA1FA9F3BA
:1017100033D00E2E3AF0E0E830D091505040E695AC
:10172000001CCAF729D0FE2F27D0660F771F881F0D
:10173000BB1F261737074807AB07B0E809F0BB0BFC
:10174000802DBF01FF2793585F4F2AF09E3F510520
:1017500068F08DC0D7C05F3FECF3983EDCF3869510
:1017600077956795B795F7959F5FC9F7880F911D96
:101770009695879597F90895E1E0660F771F881F82
:10178000BB1F621773078407BA0720F0621B730B35
:10179000840BBA0BEE1F88F7E095089598D088F077
:1017A0009F5790F0B92F9927B751A0F0D1F0660F4D
:1017B000771F881F991F1AF0BA95C9F712C0B13068
:1017C00081F09FD0B1E008959CC0672F782F8827C3
:1017D000B85F39F0B93FCCF3869577956795B395A7
:1017E000D9F73EF490958095709561957F4F8F4F16
:1017F0009F4F0895E89409C097FB3EF4909580951B
:10180000709561957F4F8F4F9F4F9923A9F0F92FC6
:1018100096E9BB279395F695879577956795B79544
:10182000F111F8CFFAF4BB0F11F460FF1BC06F5F2A
:101830007F4F8F4F9F4F16C0882311F096E911C03C
:10184000772321F09EE8872F762F05C0662371F05D
:1018500096E8862F70E060E02AF09A95660F771F71
:10186000881FDAF7880F9695879597F9089597F965
:101870009F6780E870E060E008959FEF80EC089536
:1018800000240A941616170618060906089500245F
:101890000A9412161306140605060895092E0394D9
:1018A000000C11F4882352F0BB0F40F4BF2B11F44D
:1018B00060FF04C06F5F7F4F8F4F9F4F089557FDAC
:1018C0009058440F551F59F05F3F71F04795880FAE
:1018D00097FB991F61F09F3F79F087950895121645
:1018E00013061406551FF2CF4695F1DF08C01616F1
:1018F00017061806991FF1CF8695710561050894A2
:101900000895E894BB2766277727CB0197F90895B8
:1019100066D008F48FEF08950BD0C0CFB1DF28F068
:10192000B6DF18F0952309F0A2CFA7CF1124EACF94
:10193000C6DFA0F3959FD1F3950F50E0551F629F2E
:10194000F001729FBB27F00DB11D639FAA27F00D18
:10195000B11DAA1F649F6627B00DA11D661F829F3F
:101960002227B00DA11D621F739FB00DA11D621F24
:10197000839FA00D611D221F749F3327A00D611D41
:10198000231F849F600D211D822F762F6A2F112423
:101990009F5750408AF0E1F088234AF0EE0FFF1F76
:1019A000BB1F661F771F881F91505040A9F79E3FAD
:1019B000510570F05CCFA6CF5F3FECF3983EDCF3AF
:1019C000869577956795B795F795E7959F5FC1F7EA
:1019D000FE2B880F911D9695879597F90895990F7D
:1019E0000008550FAA0BE0E8FEEF16161706E807E9
:1019F000F907C0F012161306E407F50798F0621B0A
:101A0000730B840B950B39F40A2661F0232B242BDE
:101A1000252B21F408950A2609F4A140A6958FEFFD
:101A2000811D811D0895A29FB001B39FC001A39F96
:101A300001D0B29F700D811D1124911D0895FC01EC
:101A400088279927E89421912032E9F3293010F072
:101A50002E30C8F32B3239F02D3231F4689403C0A4
:101A60007FD0820F911D219120532A30C8F31EF49C
:101A7000909581959F4F08951F93FC019927882782
:101A8000BC01E89411911032E9F3193010F01E30C6
:101A9000C8F31B3249F01D3241F4689405C04BD0A5
:101AA000610F711D811D911D119110531A30B8F3F2
:101AB0003EF490958095709561957F4F8F4F9F4F25
:101AC0001F910895FB01DC0101900D920020E1F7C8
:101AD0000895FB0151915523A9F0BF01DC014D91FF
:101AE00045174111E1F759F4CD010190002049F06B
:101AF0004D9140154111C9F3FB014111EFCF81E038
:101B000090E001970895BB274A3031F4992322F4DD
:101B1000BDE2909581959F4F4DC0BB272A3051F46F
:101B2000992342F4BDE290958095709561957F4F21
:101B30008F4F9F4F1EC0592F482F372F262F660FCC
:101B4000771F881F991F660F771F881F991F620FC5
:101B5000731F841F951F660F771F881F991F089595
:101B60007AE0979F902D879F802D910D11240895E5
:101B7000BB27FA01A62F6217710581059105330B6A
:101B800030FB66F0AA27660F771F881F991FAA1FD0
:101B9000A21710F0A21B63953850A9F7A05DAA33D5
:101BA00008F0A95DA19336F7B111B1931082CA0173
:101BB00056C0BB27FB015527AA27880F991FAA1FCC
:101BC000A41710F0A41B83955051B9F7A05DAA3358
:101BD00008F0A95DA193009779F7B111B193119223
:101BE000CB013DC0DC01CB01FC01F999FECF06C061
:101BF000F2BDE1BDF89A319600B40D9241505040CB
:101C0000B8F70895F999FECF92BD81BDF89A99274A
:101C100080B50895DC01A40FB51F4150504040F03D
:101C2000CB01840F951F2E9105D041505040D8F71D
:101C30000895262FF999FECF92BD81BDF89A01979C
:101C400000B4021639F01FBA20BD0FB6F894FA9A04
:101C5000F99A0FBE08950196272FECDFEACFDC0139
:101C6000FC01672F71917723E1F7329704C07C91D3
:101C70006D9370836291AE17BF07C8F30895F8940F
:021C8000FFCF94
:101C8200BB01BD01B801CF05C705C205B9050506EF
:101C92000806D505DD05BA02B902AB02534352006C
:101CA20042415500574B500050415200002F170B34
:101CB20007030D0A0041542300454E440044534398
:101CC20000565253005765696768745363616C65C7
:101CD2007332003132333400504E5500534E4400BB
:101CE2004641440043425400544F46004742540088
:101CF2004E414D00534E410042535400444348006C
:101D020044544D0044415400525150005343510039
:101D120050524400434F4E004F4B004552524F52D7
:0A1D22000052505400504F4E0000D4
:00000001FF
