:100000000C94F4000C9411010C9411010C94110146
:100010000C94BE080C9411010C949A080C941101D4
:100020000C9411010C9411010C9411010C94110108
:100030000C9411010C9451080C9411010C941101B1
:100040000C9411010C9411010C9427080C941101CB
:100050000C9411010C9411010C9411010C941101D8
:100060000C9411010C9411016E0BBD0D220B2B0B86
:10007000330BBD0D3A0B540B1D0BBD0DBD0DBD0D4E
:10008000750BD30BBB0B220C340C6A0C140BC90C74
:10009000060DF10CE90CD90C160D450D630D810D03
:1000A0009F0D696E6600494E46006E616E004E41BE
:1000B0004E0000407A10F35A00A0724E180900104A
:1000C000A5D4E80000E87648170000E40B540200CD
:1000D00000CA9A3B000000E1F505000080969800F8
:1000E000000040420F000000A08601000000102721
:1000F00000000000E80300000000640000000000B1
:100100000A00000000000100000000002C76D888E2
:10011000DC674F0823DFC1DFAE59E1B1B796E5E3F5
:10012000E453C63AE651997696E8E6C28426EB890E
:100130008C9B62ED407C6FFCEFBC9C9F40F2BAA5AB
:100140006FA5F490055A2AF75C936B6CF9676DC143
:100150001BFCE0E40D47FEF520E6B500D0ED902E47
:100160000300943577050080841E080000204E0AA5
:10017000000000C80C333333330F986E12831141E3
:10018000EF8D2114893BE65516CFFEE6DB18D184AE
:100190004B381BF77C1D901DA4BBE42420328472D5
:1001A0005E228100C9F124ECA1E53D274E414E4974
:1001B0004E495459494E46CDCCCC3D0AD7233C1725
:1001C000B7D13877CC2B329595E6241FB14F0A0072
:1001D0000020410000C84200401C4620BCBE4CCA62
:1001E0001B0E5AAEC59D740011241FBECFEFD4E084
:1001F000DEBFCDBF11E0A0E0B1E0E8EFF8E202C061
:1002000005900D92A63CB107D9F722E0A6ECB1E02B
:1002100001C01D92AA3AB207E1F70E9490080C941F
:100220007A140C940000E0910401F09105018081A2
:1002300080648083E0910401F09105018081877CD6
:1002400080628083F8942A98E0910A01F0910B0172
:100250008091D40109951C99FECFE0910601F0919F
:10026000070109958093D601789408952A98E09122
:100270000A01F0910B018FEF0995E0910A01F091CD
:100280000B018FEF0995E0910A01F0910B018FEFBF
:100290000995E0910A01F0910B018FEF099589E929
:1002A00093E00197F1F700C00895CF92DF92EF92AB
:1002B000FF92CF93F894E0910A01F0910B018091A5
:1002C000D40109951C99FECF8091D6018B7569F0F8
:1002D000E0910601F09107010995C82ED12CE12C7F
:1002E000F12C7601DD24CC2403C0C12CD12C760165
:1002F000E0910601F09107010995C82FE0910601F0
:10030000F09107010995A7019601282BDA01C9018F
:100310007894BC01CD017C2BCF91FF90EF90DF90C2
:10032000CF900895CF92DF92EF92FF92CF93DF9319
:100330008091D6018B7599F0E0910601F09107014B
:10034000099590E0A0E0B0E0DC0199278827809330
:10035000DB019093DC01A093DD01B093DE01CBEDD6
:10036000D1E0C880D980EA80FB80E0910601F0915D
:1003700007010995D82AC882D982EA82FB82E091D6
:100380000601F09107010995C82AC882D982EA823C
:10039000FB82DF91CF91FF90EF90DF90CF90089597
:1003A0000F931F93CF93DF93E0910401F091050128
:1003B000808180648083E0910401F0910501808157
:1003C000877C88608083F8942A98E0910A01F091F4
:1003D0000B018091D40109951C99FECFE091060193
:1003E000F09107010995082F10E0102F0027C7EDA5
:1003F000D1E019830883E0910601F0910701099586
:100400009801282BC901998388837894DF91CF9133
:100410001F910F910895E0910401F09105018081F1
:100420008F7B8083E0910401F09105018081877CBE
:1004300088608083F8942A98E0910A01F0910B017A
:100440008091D4010995E0910801F0910901809112
:10045000D7019091D8010995789408950F931F932F
:10046000CF93DF93E0910401F091050180818064D6
:100470008083E0910401F09105018081877C806197
:100480008083F8942A98E0910A01F0910B01809101
:10049000D40109951C99FECFE0910601F091070166
:1004A0000995082F10E0102F0027C9EDD1E019831E
:1004B0000883E0910601F091070109959801282B26
:1004C000C901998388837894DF91CF911F910F910F
:1004D0000895E0910401F091050180818F7B808374
:1004E000E0910401F09105018081877C8061808327
:1004F000F8942A98E0910A01F0910B018091D401BF
:100500000995E0910801F09109018091D90190913C
:10051000DA01099578940895299A91E39A95F1F76B
:100520000000F894E0910201F0910301982F977078
:100530008081887F892B80832A98E0910001F09147
:10054000010181818F71806281830E9469020E9412
:100550000B021C99FECFE0910401F091050180810E
:1005600080648083E0910401F09105018081877CA3
:1005700088618083E0910A01F0910B018091D401A0
:1005800009950E949201789429986091DB017091FD
:10059000DC018091DD019091DE0108950F931F939E
:1005A000CF93DF930091D9011091DA01C091D70167
:1005B000D091D801F894E0910201F0910301982FB5
:1005C00097708081887F892B80832A98E09102012F
:1005D000F091030181818F7E8183E0910001F09190
:1005E000010181818F71806281830E9469020E9472
:1005F0000B021C99FECFE0910401F091050180816E
:1006000080648083E0910401F09105018081877C02
:1006100088618083E0910A01F0910B018091D401FF
:1006200009950E94920178941093DA010093D90100
:10063000D093D801C093D7016091DB017091DC01A8
:100640008091DD019091DE01DF91CF911F910F919B
:100650000895CF93C82FE0910201F0910301862FF6
:1006600087706081687F682B60830E946902E091D7
:100670000001F09101019C2F9295990F907E81814C
:100680008F71892B8183299A81E38A95F1F7000084
:100690000E940B021C99FECF2998E0910401F09171
:1006A00005018081806480832A98CD7FC43099F4CD
:1006B000E0910401F09105018081877C8063808353
:1006C0000E9455016093DF017093E0018093E10186
:1006D0009093E20111C0E0910401F0910501808145
:1006E000886380830E9455016093E3017093E40165
:1006F0008093E5019093E601CF910895E0910C017C
:10070000F0910D0109952A9A219A0E9436010E94C2
:10071000D0010E942E020E941301E0910201F0918B
:100720000301818180618183E0910201F0910301E5
:1007300081818F7D8183E0911801F0911901808181
:10074000803110F08FE08083A0911801B0911901E1
:10075000E7EDF1E09C919F708081807F892B808301
:100760000E940B020E94690260E084E00E9429035B
:1007700066E084E00E9429030895AAE7B0E08C9126
:1007800080688C93ECE7F0E080818F7D80838081AE
:100790008F7780838081806480838081807F808365
:1007A0008081876080838C91887F8C938C91876017
:1007B0008C930895CF93DF9300D0CDB7DEB78091AF
:1007C00078008983809179008A8389819A810F904A
:1007D0000F90DF91CF910895EF92FF920F931F93A7
:1007E000CF93DF93CDB7DEB728970FB6F894DEBF6F
:1007F0000FBECDBFFE01319688E0DF011D928A95C4
:10080000E9F70AE710E07E01B9E0EB0EF11C8D81FB
:100810009E8198878F838B819C819E838D83898124
:100820009A819C838B837894F80180818064808393
:10083000D8018C9184FFFCCF0E94DA039A838983CC
:10084000FE013196AC0121913191821793070CF48E
:10085000C901241735070CF4A901EE15FF0599F716
:100860004A5F5F4F4817590794F228960FB6F894DD
:10087000DEBF0FBECDBFDF91CF911F910F91FF90D3
:10088000EF900895FF920F931F93CF93DF93A89556
:10089000ECE7F0E09081907F90839081892B8083BA
:1008A0000E94EC036894FF24F3F800E010E0CAE72C
:1008B000D0E0A895888180648883888184FFFDCFFB
:1008C0000E94DA03080F191FFA9499F7C801969548
:1008D00087959695879596958795DF91CF911F91EE
:1008E0000F91FF900895CF93DF9387E00E94420419
:1008F000C0911A01D0911B012A813B81821B930B6D
:10090000BC0180E090E00E94D50E2C813D814E819B
:100910005F810E94410E0E94A90E862FDF91CF9128
:100920000895CF92DF92EF92FF920F931F93CF9390
:10093000DF93082F853608F004E618E0C0E0D0E029
:1009400087E00E944204C80FD91F1150C9F7E091F7
:100950001A01F0911B01D695C795D695C795D695E6
:10096000C795D183C083C0911A01D0911B01602F1C
:1009700070E080E090E00E94D70E2AE037ED43E27D
:100980005CE30E94670F2AE939E949E450E40E94D8
:10099000DD0D6B017C016881798180E090E00E942F
:1009A000D50E9B01AC01C701B6010E94410E9B010F
:1009B000AC016DEC7CEC84E890E40E94410E6B018C
:1009C0007C0120E030E040E854E40E94630F1816F8
:1009D00044F40F2EC12CD12CF0E8EF2EF4E4FF2EBE
:1009E000F02DC701B6010E94A90E79836883C091DA
:1009F0001A01D0911B016881798180E090E00E940A
:100A0000D50E6B017C019B01AC016DEC7CEC84E8A4
:100A100090E40E94410E9B01AC016AE979E989E406
:100A200090E40E94410E0E94A90E7B836A8380E0BD
:100A300090E00E94D50E9B01AC01C701B6010E9457
:100A4000DC0D20E030E048EC52E40E94410E6C8363
:100A50007D838E839F83DF91CF911F910F91FF90B4
:100A6000EF90DF90CF9008955B9A08955B9808957A
:100A7000539A0E94360508959BB188E089278BB967
:100A800008951092C7015A9AEFEFF7ED3197F1F7F9
:100A900000C000005A98FFEF2FEB31E2F1502040E8
:100AA0003040E1F700C000008823D1F09091C701E9
:100AB000913071F404C09091C701913049F41092C3
:100AC000C7018091C6018B3069F0813069F40895C7
:100AD000E3E3F7E03197F1F7815069F78CE008958F
:100AE0008CE008958BE0089583E00895FF920F93C2
:100AF0001F93CF93DF938C01F62EEA011092C7016A
:100B0000E0911401F091150185E391E00995E091E0
:100B10001401F0911501C8010995E0911401F091BB
:100B2000150182E391E009952097F1F0A895809155
:100B3000C701813081F405C0A8958091C70181303B
:100B400051F41092C7018091C6018B3079F08F1556
:100B500071F080E00CC083E397E00197F1F72197F3
:100B6000209751F78CE003C08CE001C08BE0DF914F
:100B7000CF911F910F91FF900895EF92FF920F93E5
:100B80001F93CF93DF938C01EB01E42EF22E109292
:100B9000C701E0911401F091150185E391E00995F9
:100BA000E0911401F0911501C8010995E09114013B
:100BB000F0911501CE010995E0911401F091150114
:100BC00082E391E00995FF20D9F08091C70181303F
:100BD00079F404C08091C701813051F41092C701AB
:100BE0008091C6018B3071F08E1569F080E00BC0EA
:100BF00083E397E00197F1F7FA9461F78CE003C083
:100C00008CE001C08BE0DF91CF911F910F91FF909D
:100C1000EF900895CF93DF93D82FC62F1092C7017E
:100C2000E0911401F091150185E391E00995E091BF
:100C30001401F09115018CE191E00995E091120108
:100C4000F091130180E38D0F0995E0911401F0916B
:100C5000150182E391E00995CC23D1F08091C70181
:100C6000813071F404C08091C701813049F4109241
:100C7000C7018091C6018B3069F08A3069F40DC0DC
:100C800083E397E00197F1F7C15069F78CE005C065
:100C90008CE003C08BE001C080E0DF91CF9108952C
:100CA000CF93DF93D82FC62F8FEF8D0F853008F0AD
:100CB00046C01092C701E0911401F091150185E33F
:100CC00091E00995E0911401F091150180E291E025
:100CD0000995E0911201F091130180E38D0F0995C0
:100CE000E0911401F091150182E391E00995A89536
:100CF000CC2339F18091C7018130C9F404C09091AF
:100D0000C7019130A1F41092C7018091C6018B30C8
:100D1000D1F08A30D1F4AD2FB0E0A45DBE4FE091A8
:100D20000E01F0910F018C9109958AE00FC083E3C9
:100D300097E00197F1F7C15011F78CE007C08BE005
:100D400005C08CE003C08BE001C08CE0DF91CF9147
:100D500008950F931F93CF93DF93062F78948630D7
:100D600008F081E0A82FB0E0A45DBE4FE0910E0135
:100D7000F0910F018C910995A895802F0E94410553
:100D80008130D1F0CDE2D1E011E0E0910E01F0919F
:100D90000F0189910995A895802F0E944105813006
:100DA00039F4E0911601F091170110838AE007C031
:100DB0001F5F163051F702C08AE001C08BE0DF915F
:100DC000CF911F910F910895CF93C82FE0911001FB
:100DD000F0911101099564E68C2F0E94A9068A30D2
:100DE00009F0FFCF44E650E06AE084E291E00E941F
:100DF000760544E650E06AE088E291E00E947605DC
:100E0000CF910895399A419A08953998089584B1F7
:100E10008C6284B98CE58CBD8DB581608DBD0895E3
:100E20008EBD0DB407FEFDCF0895CF93C82F892F37
:100E30000E9410078C2F0E941007CF9108951EBCAE
:100E40000DB407FEFDCF8EB50895E0ECF0E0908183
:100E500095FFFDCF8093C60008951F93CF93DF9336
:100E6000EC018881882351F010E00E9425071F5F64
:100E7000FE01E10FF11D80818111F7CFDF91CF914C
:100E80001F9108951F93CF93DF93EC0188818823EE
:100E900051F010E00E9425071F5FFE01E10FF11DD8
:100EA00080818111F7CFDF91CF911F9108958093B9
:100EB000C400089588E98093C10086E08093C20051
:100EC000089580B7806880BFB198EFE6F0E0808138
:100ED0008160808344E150E060E070E084E992E06A
:100EE0000E9452120E94BD030E947E038FED93EE7A
:100EF0009093850080938400E1E8F0E08081856034
:100F00008083529AECE6F0E080818860808383E100
:100F100090E00E9462120E94E40684EB90E00E943E
:100F200062128130A9F010929902109298021092E8
:100F30009B0210929A0210929C0210929D021092B3
:100F40009E0210929F0261E084EB90E00E947A1270
:100F50008091A0029091A1029C0128553240293B2A
:100F60003B4058F088E592E09093EB018093EA01D2
:100F70009093A1028093A00204C09093EB01809310
:100F8000EA0144E150E060E070E084E992E00E9410
:100F90006A12E8E6F0E080818260808380E00E944F
:100FA000BB0A88EB9BE09093E9018093E80180E421
:100FB0009DE0A3E0B0E08093EC019093ED01A0935D
:100FC000EE01B093EF010E94F30A8091CA01909163
:100FD000CB01A091CC01B091CD010196A11DB11D15
:100FE0008093CA019093CB01A093CC01B093CD0123
:100FF0004091E8015091E90160E070E084179507A5
:10100000A607B70718F40E94340502C00E943605EF
:101010004091CA015091CB016091CC017091CD01FA
:101020008091EC019091ED01A091EE01B091EF0162
:1010300084179507A607B70740F41092CA011092CB
:10104000CB011092CC011092CD01A895BCCF1F927C
:101050000F920FB60F9211242F933F934F935F93EC
:101060006F937F938F939F93AF93BF93EF93FF9370
:101070008091C701811104C08091C6000E94A00A1E
:10108000FF91EF91BF91AF919F918F917F916F9160
:101090005F914F913F912F910F900FBE0F901F9036
:1010A00018951F920F920FB60F9211242F933F9312
:1010B0004F935F936F937F938F939F93AF93BF9360
:1010C000EF93FF938091EA019091EB010197909348
:1010D000EB018093EA01892B11F40E9405078FED43
:1010E00093EE9093850080938400FF91EF91BF91E0
:1010F000AF919F918F917F916F915F914F913F91B0
:101100002F910F900FBE0F901F901895F894A895EF
:10111000E0E6F0E08081886180838FE48083089539
:101120000E9402070E9486080E9438050E9434052A
:101130000E9461071F920F920FB60F9211242F93F6
:101140003F934F935F936F937F938F939F93AF934F
:10115000BF93EF93FF930E940507FF91EF91BF911B
:10116000AF919F918F917F916F915F914F913F913F
:101170002F910F900FBE0F901F9018951F920F92F6
:101180000FB60F9211242F933F934F935F936F935A
:101190007F938F939F93AF93BF93EF93FF93339B73
:1011A0006FC08091A0029091A1029093EB01809377
:1011B000EA010E9434052FEF8FE392E02150804036
:1011C0009040E1F700C000008091C8019091C901F2
:1011D00001969093C9018093C801339907C00E947A
:1011E00036051092C9011092C8014AC0A895889787
:1011F00008F443C02FEF8FE191E0215080409040F0
:10120000E1F700C0000044E650E06AE089E391E0C5
:101210000E9476052FEF8FE392E0215080409040AE
:10122000E1F700C0000044E650E068E08DE391E0A3
:101230000E9476055A9A2FEF8FE392E0215080406A
:101240009040E1F700C000000E9436053399FECFC0
:101250002FEF8FE39BE0215080409040E1F700C0EA
:1012600000000E9405072FEF8FE39BE02150804094
:101270009040E1F700C0000003C00E943C059BCFF6
:10128000FF91EF91BF91AF919F918F917F916F915E
:101290005F914F913F912F910F900FBE0F901F9034
:1012A000189581E08093C70161E471E080EF91E0DF
:1012B0000E94C511892B21F083E08093C6012FC1C4
:1012C00065E471E080EF91E00E94C511892B21F067
:1012D00089E08093C60123C169E471E080EF91E069
:1012E0000E94C511892B21F084E08093C60117C1AB
:1012F0006DE471E080EF91E00E94C511892B21F02F
:1013000087E08093C6010BC16DE371E080EF91E04F
:101310000E94C511892B21F088E08093C601FFC08F
:1013200061E571E080EF91E00E94C511892B21F009
:101330008AE08093C601F3C064E571E080EF91E03C
:101340000E94C511892B21F08BE08093C601E7C074
:101350006AE571E080EF91E00E94C511892B21F0D0
:1013600085E08093C601DBC06EE571E080EF91E01F
:101370000E94C511892B21F081E08093C601CFC066
:1013800062E671E080EF91E00E94C511892B21F0A7
:101390008DE08093C601C3C066E671E080EF91E006
:1013A0000E94C511892B21F08EE08093C601B7C041
:1013B0006AE671E080EF91E00E94C511892B21F06F
:1013C0008FE08093C601ABC06EE671E080EF91E0E4
:1013D0000E94C511892B21F080E18093C6019FC036
:1013E00062E771E080EF91E00E94C511892B21F046
:1013F00081E18093C60193C066E771E080EF91E0E0
:101400000E94C511892B21F082E18093C60187C01B
:101410006AE771E080EF91E00E94C511892B21F00D
:1014200083E18093C6017BC06EE771E080EF91E0BD
:101430000E94C511892B21F084E18093C6016FC001
:1014400062E871E080EF91E00E94C511892B21F0E4
:1014500085E18093C60163C066E871E080EF91E0AA
:101460000E94C511892B21F087E18093C60157C0E6
:101470006AE871E080EF91E00E94C511892B21F0AC
:1014800086E18093C6014BC06EE871E080EF91E089
:101490000E94C511892B21F088E18093C6013FC0CD
:1014A00062E971E080EF91E00E94C511892B21F083
:1014B00089E18093C60133C066E971E080EF91E075
:1014C0000E94C511892B21F08AE18093C60127C0B3
:1014D0006AE971E080EF91E00E94C511892B21F04B
:1014E0008BE18093C6011BC06EE971E080EF91E053
:1014F0000E94C511892B21F08CE18093C6010FC099
:1015000062EA71E080EF91E00E94C511892B21F021
:101510008DE18093C60103C01092C70108958091A8
:10152000D301843050F081E08093D20163EF71E009
:1015300084E592E00E94BE1108951092D2010895B0
:101540008A3049F08D3061F4E091D301F0E0E05150
:10155000FE4F108208950E9451091092D301089500
:10156000E091D30191E09E0F9093D301F0E0E05120
:10157000FE4F80830895CF92DF92EF92FF92CF9338
:10158000C82FA8950E948C026B017C01A8958C2F16
:101590000E948C02C60ED71EE81EF91EF694E79430
:1015A000D794C794C092A202D092A302E092A40260
:1015B000F092A502CF91FF90EF90DF90CF90089529
:1015C0000F931F930E948C020091A2021091A3021C
:1015D0002091A4023091A502601B710B820B930B2A
:1015E0001F910F9108950F931F93CF93DF93CDB762
:1015F000DEB7C058D1090FB6F894DEBF0FBECDBF1D
:101600008091C701813009F0CBC21092C70180914F
:10161000C60190E0FC013197ED31F10508F0ADC253
:10162000EC5CFF4F0C94EE0F8AE791E00E942D07CF
:1016300086EA91E00E942D07A3C264E681E00E9441
:101640000A06AEC224E64AE064EB71E089EB91E061
:101650000E94BD05A5C244E650E06AE088E291E040
:101660000E9476059DC284E592E00E94B8106093C6
:10167000E70196C244E650E06AE08DEB91E00E94FB
:10168000760588EB9BE09093E9018093E80180EA7E
:1016900096E8A1E0B0E08093EC019093ED01A09377
:1016A000EE01B093EF017CC244E650E06AE088E2CC
:1016B00091E00E94760588EB9BE09093E90180938E
:1016C000E80180E49DE0A3E0B0E08093EC0190931A
:1016D000ED01A093EE01B093EF0162C283E190E0CF
:1016E0000E9462120E94E4065BC282E691E00E94C0
:1016F0002D078091D201882381F184E592E00E9438
:10170000B81060317105810591054CF46093CE01EC
:101710007093CF018093D0019093D1010CC08FE0E2
:1017200090E0A0E0B0E08093CE019093CF01A09331
:10173000D001B093D1010EEC11E0D8016C9182E19F
:1017400090E00E947A12E7EDF1E0D8019C919F7041
:101750008081807F892B808313C282E190E00E9488
:1017600062124AE0BE016F5F7F4F90E00E94DF117E
:101770000E94420705C28091D201882309F410C259
:1017800084E592E00E949A100E94910448E050E0A3
:1017900064E070E088E992E00E946A128AE691E0D3
:1017A0000E942D07EDC186E691E00E942D078091F1
:1017B000D201882359F184E592E00E94B8104CE3ED
:1017C000469F9001479F300D11243093A102209332
:1017D000A0022835B2E03B0738F488E592E0909308
:1017E000A1028093A00209C021313E4030F080E187
:1017F0009EE09093A1028093A0026091A00270915C
:10180000A1028CE090E00E949812BAC12091A0023F
:101810003091A102A9E8B8E80E94F40F9695879547
:10182000929582958F7089279F708927BC0180E0EF
:1018300090E02AE0AE014F5F5F4F0E94EA110E94E4
:1018400042079EC10E9473044AE0BE016F5F7F4F52
:1018500090E00E94DF118EE691E00E942D07CE01FC
:1018600001960E9442078CC1FFEF2FE181E0F15009
:1018700020408040E1F700C0000044E650E06AE00C
:1018800089E391E00E9476059FEFAFE3B2E09150CB
:10189000A040B040E1F700C0000024E64AE064E563
:1018A00072E081EC91E00E94BD05EFEFFFE322E0E2
:1018B000E150F0402040E1F700C0000044E650E075
:1018C0006AE08DEB91E00E94760582E791E00E944C
:1018D0002D0756C18091D201882309F446C084E5C2
:1018E00092E00E949A10182F863008F059C189E9B9
:1018F00099E5A1E081509040A040E1F7000044E666
:1019000050E06AE089E391E00E9476058A3009F0B0
:1019100047C168EC812F0E9450068A3009F040C10F
:10192000BFEFEFEFF8E0B150E040F040E1F700C06A
:1019300000004CE251E06AE08DEB91E00E947605F8
:101940008A3009F02DC129E989E591E021508040D4
:101950009040E1F70000612F83E190E00E947A124D
:1019600086E791E00E942D070BC183E190E00E9481
:1019700062124AE0BE016F5F7F4F90E00E94DF116C
:1019800086E791E00E942D07CE0101960E94420752
:10199000F7C08EE791E00E942D0780E00E948C0244
:1019A0002AE0AE014F5F5F4F0E94EA110E9442079A
:1019B000E7C08EE891E00E942D0786E00E94CE02EB
:1019C0002AE0AE014F5F5F4F0E94EA110E9442077A
:1019D000D7C080E00E94BB0A86E891E00E942D07F4
:1019E000CFC08AE891E00E942D076091A202709119
:1019F000A3028091A4029091A5022AE0AE014F5F5C
:101A00005F4F0E94EA110E942D07BAC082E891E060
:101A10000E942D0780E00E94E00A2AE0AE014F5F9D
:101A20005F4F0E94EA110E944207AAC082E991E03A
:101A30000E942D078091D201882399F084E592E0DD
:101A40000E949610AB01BC01409394025093950202
:101A5000609396027093970280E090E00E948C124F
:101A60008FC060919402709195028091960290913E
:101A7000970200E025E0AE014F5F5F4F0E94031028
:101A8000CE0101960E9442077BC086E991E00E9448
:101A90002D078091D201882349F040E450E064E7AB
:101AA00070E084E592E00E946A126AC040E450E06F
:101AB00064E770E0CE0101960E945212CE010196B9
:101AC0000E9442075DC08AE991E00E942D07809143
:101AD000D201882349F040E250E064E170E084E5FF
:101AE00092E00E946A124CC040E250E064E170E073
:101AF000CE0101960E945212CE0101960E94420729
:101B00003FC08EE991E00E942D078091D201882389
:101B100049F040E250E064E370E084E592E00E9426
:101B20006A122EC040E250E064E370E0CE010196FC
:101B30000E945212CE0101960E94420721C082EA01
:101B400091E00E942D078091D201882349F040E264
:101B500050E064E570E084E592E00E946A1210C0F3
:101B600040E250E064E570E0CE0101960E9452121E
:101B7000CE0101960E94420703C01092C60110C018
:101B800082E391E00E942D071092D2011092C601CB
:101B90008091A0029091A1029093EB018093EA01C1
:101BA000C058DF4F0FB6F894DEBF0FBECDBFDF9138
:101BB000CF911F910F9108955058BB27AA270ED09F
:101BC00048C139D130F03ED120F031F49F3F11F4BB
:101BD0001EF42EC10EF4E095E7FB24C1E92F4AD193
:101BE00080F3BA17620773078407950718F071F43A
:101BF0009EF562C10EF4E0950B2EBA2FA02D0B01BD
:101C0000B90190010C01CA01A0011124FF27591B41
:101C100099F0593F50F4503E68F11A16F040A22F47
:101C2000232F342F4427585FF3CF469537952795B8
:101C3000A795F0405395C9F77EF41F16BA0B620BB7
:101C4000730B840BBAF09150A1F0FF0FBB1F661FFE
:101C5000771F881FC2F70EC0BA0F621F731F841F41
:101C600048F4879577956795B795F7959E3F08F067
:101C7000B3CF9395880F08F09927EE0F9795879526
:101C800008950CD0E6C0DED040F0D5D030F021F47D
:101C90005F3F19F0C7C0511110C1CAC0EBD098F313
:101CA0009923C9F35523B1F3951B550BBB27AA27DD
:101CB00062177307840738F09F5F5F4F220F331F4F
:101CC000441FAA1FA9F333D00E2E3AF0E0E830D01B
:101CD00091505040E695001CCAF729D0FE2F27D01E
:101CE000660F771F881FBB1F261737074807AB07EC
:101CF000B0E809F0BB0B802DBF01FF2793585F4F61
:101D00002AF09E3F510568F08DC0D7C05F3FECF3CD
:101D1000983EDCF3869577956795B795F7959F5F25
:101D2000C9F7880F911D9695879597F90895E1E079
:101D3000660F771F881FBB1F621773078407BA07D8
:101D400020F0621B730B840BBA0BEE1F88F7E09533
:101D5000089598D088F09F5790F0B92F9927B751E0
:101D6000A0F0D1F0660F771F881F991F1AF0BA955F
:101D7000C9F712C0B13081F09FD0B1E008959CC086
:101D8000672F782F8827B85F39F0B93FCCF3869555
:101D900077956795B395D9F73EF4909580957095B2
:101DA00061957F4F8F4F9F4F0895E89409C097FB2F
:101DB0003EF490958095709561957F4F8F4F9F4F22
:101DC0009923A9F0F92F96E9BB279395F695879566
:101DD00077956795B795F111F8CFFAF4BB0F11F429
:101DE00060FF1BC06F5F7F4F8F4F9F4F16C08823D0
:101DF00011F096E911C0772321F09EE8872F762F06
:101E000005C0662371F096E8862F70E060E02AF046
:101E10009A95660F771F881FDAF7880F9695879532
:101E200097F9089597F99F6780E870E060E008955A
:101E30009FEF80EC089500240A94161617061806E2
:101E40000906089500240A941216130614060506BE
:101E50000895092E0394000C11F4882352F0BB0F4F
:101E600040F4BF2B11F460FF04C06F5F7F4F8F4FB2
:101E70009F4F089557FD9058440F551F59F05F3FED
:101E800071F04795880F97FB991F61F09F3F79F09C
:101E900087950895121613061406551FF2CF46951E
:101EA000F1DF08C0161617061806991FF1CF8695A0
:101EB0007105610508940895E894BB276627772784
:101EC000CB0197F9089566D008F48FEF08950BD0F1
:101ED000C0CFB1DF28F0B6DF18F0952309F0A2CF0C
:101EE000A7CF1124EACFC6DFA0F3959FD1F3950FBA
:101EF00050E0551F629FF001729FBB27F00DB11D8E
:101F0000639FAA27F00DB11DAA1F649F6627B00D1D
:101F1000A11D661F829F2227B00DA11D621F739F06
:101F2000B00DA11D621F839FA00D611D221F749F14
:101F30003327A00D611D231F849F600D211D822F5B
:101F4000762F6A2F11249F5750408AF0E1F08823A2
:101F50004AF0EE0FFF1FBB1F661F771F881F9150AF
:101F60005040A9F79E3F510570F05CCFA6CF5F3F70
:101F7000ECF3983EDCF3869577956795B795F795E2
:101F8000E7959F5FC1F7FE2B880F911D969587956A
:101F900097F90895990F0008550FAA0BE0E8FEEF96
:101FA00016161706E807F907C0F012161306E4071D
:101FB000F50798F0621B730B840B950B39F40A2616
:101FC00061F0232B242B252B21F408950A2609F4F4
:101FD000A140A6958FEF811D811D0895EE0FFF1F73
:101FE0000590F491E02D0994A29FB001B39FC00128
:101FF000A39F700D811D1124911DB29F700D811D35
:102000001124911D0895A1E0B0E0E9E0F0E10C9405
:102010004D146A01102F322F283008F037E000E00D
:10202000232FA60139830E94DF10D6019C91292F0E
:1020300028703981760190FF09C0211107C0BFEFD8
:10204000EB1AFB0A2DE2F601208313C011FF07C033
:10205000FFEFEF1AFF0A4BE2D6014C9308C010FFC6
:1020600006C0BFEFEB1AFB0A40E2F60140832111E4
:1020700005C092FF0DC062EA70E002C06AEA70E03B
:1020800012FF02C06C5F7F4FC7010E94B71149C0A9
:10209000F7013196D60111962C91D7012C9321335B
:1020A00009F09F7E3323D1F0AF01B6016E5F7F4F01
:1020B0007B016EE2732F7E0DD7012D917D01DA0138
:1020C0006D93AD017E1511F0622FF6CF3150DF0117
:1020D000A30FB11DFD01329611962C9312FF02C081
:1020E00025E401C025E62083DF01129687FF04C0A6
:1020F0009DE29183819508C0811104C094FF02C0C4
:102100009DE201C09BE2918390E38A301CF09F5FC7
:102110008A50FBCF9C93805D11968C9311971296F9
:102120001C92C6012196E8E00C9469146627772773
:102130000C949E12FC0188279927E8942191203263
:10214000E9F3293010F02E30C8F32B3241F02D3254
:1021500039F4689404C00E940E12820F911D2191DF
:1021600020532A30C0F31EF4909581959F4F089517
:102170001F93FC0199278827BC01E8941191103224
:10218000E9F3193010F01E30C8F31B3251F01D3244
:1021900049F4689406C00E94F911610F711D811DF8
:1021A000911D119110531A30B0F33EF49095809523
:1021B000709561957F4F8F4F9F4F1F9108952830E5
:1021C00008F027E03327DA01990F311D87FD916070
:1021D00000966105710539F432602E5F3D9330E35E
:1021E0002A95E1F708959F3F30F080387105610529
:1021F00009F03C5F3C5F3D93913008F08068911D91
:10220000DF93CF931F930F93FF92EF92192F987F35
:102210009695E92F96959695E90FFF27E45FFE4F77
:1022200099273327EE24FF24A701E701059008949E
:10223000079428F4360FE71EF81E491F511D660F3C
:10224000771F881F991F0694A1F70590079428F41B
:10225000E70EF81E491F561FC11D770F881F991FD3
:10226000661F0694A1F70590079428F4F80E491FFD
:10227000561FC71FD11D880F991F661F771F069411
:10228000A1F70590079420F4490F561FC71FD81FC8
:10229000990F661F771F881F0694A9F784911095E0
:1022A000177041F0D695C79557954795F794E794E1
:1022B0001A95C1F7E2EBF0E068941590159135910D
:1022C0006591959105907FE27395E118F10A430BB2
:1022D000560BC90BD009C0F7E10CF11E431F561F66
:1022E000C91FD01D7EF4703311F48A95E6CFE894AF
:1022F000015030F0080F0AF40027021708F4202FCD
:102300002395022F7A3328F079E37D932A95E9F714
:1023100010C07D932A9589F6069497956795379511
:1023200017951794E118F10A430B560BC90BD00906
:1023300098F023957E9173957A3308F070E37C933F
:102340002013B8F77E9170617D9330F0839571E32F
:102350007D9370E32A95E1F71124EF90FF900F91A0
:102360001F91CF91DF91992787FD90950895FB01EB
:10237000DC0105900D920020E1F70895FB01DC01DE
:1023800001900D920020E1F70895FB015191552332
:10239000A9F0BF01DC014D9145174111E1F759F456
:1023A000CD010190002049F04D9140154111C9F334
:1023B000FB014111EFCF81E090E001970895BB2729
:1023C0004A3031F4992322F4BDE2909581959F4FD4
:1023D0000C943912BB272A3051F4992342F4BDE200
:1023E00090958095709561957F4F8F4F9F4F0C947E
:1023F0001712592F482F372F262F660F771F881F48
:10240000991F660F771F881F991F620F731F841F04
:10241000951F660F771F881F991F08957AE0979F71
:10242000902D879F802D910D11240895BB27FA01CF
:10243000A62F6217710581059105330B30FB66F0FD
:10244000AA27660F771F881F991FAA1FA21710F0CF
:10245000A21B63953850A9F7A05DAA3308F0A95DC7
:10246000A19336F7B111B1931082CA010C942114D3
:10247000BB27FB015527AA27880F991FAA1FA4175E
:1024800010F0A41B83955051B9F7A05DAA3308F052
:10249000A95DA193009779F7B111B1931192CB0186
:1024A0000C942114DC01CB01FC01F999FECF06C08C
:1024B000F2BDE1BDF89A319600B40D924150504002
:1024C000B8F70895F999FECF92BD81BDF89A992782
:1024D00080B50895DC01A40FB51F4150504048F06D
:1024E000CB01840F951F2E910E947B1241505040CA
:1024F000D0F70895262FF999FECF92BD81BDF89AA5
:10250000019700B4021639F01FBA20BD0FB6F89437
:10251000FA9AF99A0FBE08950396272F0E947B120C
:102520000E947A12252F0E947B12242F0C947B127A
:102530000196272F0E947B120C947A12A0E0B0E043
:10254000E4EAF2E10C9449148B016115710521F064
:10255000DB018C9311969C93EC015E01BFEFAB1AEB
:10256000BB0A7501C8808C2D90E00E940114892B54
:1025700011F0E501F2CFEDE2CE1208C07E01F2E0EB
:10258000EF0EF11CC980DD24D39409C02BE2C212E6
:1025900005C07E0142E0E40EF11CC980D12CE701A8
:1025A000219743E050E064EB71E0CE010E940914F2
:1025B000892BC1F4239645E050E06FEA71E0CE012B
:1025C0000E940914892B09F425960115110519F0AB
:1025D000D801CD93DC93D11006C160E070E080E8B3
:1025E0009FE70AC143E050E06CEA71E0CE010E942F
:1025F0000914892B59F40115110509F4F9C0B2E049
:10260000EB0EF11CF801F182E082F2C0F70160E00C
:1026100070E0CB01C0E0D0E07F01A0EDAA2EAC0CB1
:1026200029E02A1530F14D2D4260B42E2D2D287051
:10263000D2FE04C0211125C0219623C0211121976B
:10264000A5E0B0E09B01AC010E943814660F771F33
:10265000881F991F6A0D711D811D911D6839A9E997
:102660007A078A07A9E19A0760F0BD2DB660BB2EF4
:1026700008C02EEFA2120AC0D3FC50C04D2D4860F6
:10268000B42E3196D701CC90DB2CC6CF2C2D2F7DCC
:10269000253409F043C0A081AD3241F4BD2DB061B5
:1026A000DB2E7F0122E0E20EF11C0CC07F01AB3279
:1026B00031F04FEFE41AF40A21E030E006C0A2E066
:1026C000EA0EF11CA18122E030E0A053AA3018F0FC
:1026D000E21AF30A23C0F70120E030E02038BCE022
:1026E0003B075CF4A901440F551F440F551F240FED
:1026F000351F220F331F2A0F311DAF014F5F5F4F70
:102700007A01A081A053AA3010F4FA01E7CFD4FED9
:1027100003C0319521953109C20FD31FD1FE09C0E5
:102720000115110531F0E1E0EE1AF108D801ED9242
:10273000FC920E94D50E2D2D2370233019F04B01F1
:102740005C0106C04B015C01B7FAB094B7F8B094D5
:1027500020E030E0A901C501B4010E9431148823B2
:1027600009F43EC0D7FF06C0D195C195D1090BEC45
:1027700011E002C003EE11E06801B8E1CB1AD10804
:1027800090E2E92EF12CCE15DF0574F0F8012591C9
:10279000359145915491C501B4010E94670F4B01D9
:1027A0005C01CE19DF09EFCF04501109F594E794CD
:1027B0000C151D0541F78A2D880F8B2D881F8F3F23
:1027C00049F020E030E0A901C501B4010E943114B4
:1027D000811106C082E290E09093A9028093A80242
:1027E000C501B40109C060E070E080E89FEF04C05B
:1027F00060E070E080EC9FE7CDB7DEB7ECE00C94D2
:102800006514911132C0803219F089508550D0F78B
:102810000895FB01DC014150504088F08D918134D6
:102820001CF08B350CF4805E659161341CF06B35C7
:102830000CF4605E861B611171F3990B0895881B7F
:10284000FCCFDC01FC01672F71917723E1F7329710
:1028500004C07C916D9370836291AE17BF07C8F37B
:10286000089598DB08F481E0089599278827089552
:102870000E94F40FA59F900DB49F900DA49F800D12
:10288000911D112408952F923F924F925F926F9263
:102890007F928F929F92AF92BF92CF92DF92EF92F0
:1028A000FF920F931F93CF93DF93CDB7DEB7CA1B71
:1028B000DB0B0FB6F894DEBF0FBECDBF09942A889C
:1028C000398848885F846E847D848C849B84AA8444
:1028D000B984C884DF80EE80FD800C811B81AA81D1
:1028E000B981CE0FD11D0FB6F894DEBF0FBECDBF9C
:0828F000ED010895F894FFCFFB
:1028F800D701D901D4011F07150710070707570784
:102908005A0725072D07A702A6029802534352002B
:1029180042415500574B500050415200002F170BB1
:1029280007030D0A0041542300454E440044534315
:1029380000525150005343510050524400434F4EEF
:10294800004F4B004552524F520052505400504FC6
:102958004E0046414400544F46004342540047420B
:102968005400534E410042535400565253004443BE
:10297800480044434F0053434F0047434F004454DB
:102988004D0043544D0044415400534744005547BB
:102998004400504744005765696768745363616C25
:1029A800657333003132333400504E5500534E4472
:0629B800004E414D00003D
:00000001FF
