:100000000C9458000C9475000C9475000C947500B9
:100010000C94C7070C9475000C94A3070C947500FE
:100020000C9475000C9475000C9475000C9475007C
:100030000C9475000C945A070C9475000C94750080
:100040000C9475000C9475000C9430070C9475009A
:100050000C9475000C9475000C9475000C9475004C
:100060000C9475000C947500A20B860E4D0B560B6C
:100070005E0B860E650B7F0B480B860E860E860E7A
:10008000810C210DC90C5B0D6D0DAC0D3F0B480EA5
:10009000580E680E140EA90BA30DCA0B860E990BF1
:1000A0000B0E0C0C440CE10C010D720CD20BEA0B84
:1000B00011241FBECFEFD4E0DEBFCDBF11E0A0E022
:1000C000B1E0E0E5F5E202C005900D92AC3EB1076B
:1000D000D9F722E0ACEEB1E001C01D92AD3FB2070E
:1000E000E1F70E9499070C94A6120C940000E0918D
:1000F0000401F0910501808180648083E091040116
:10010000F09105018081877C80628083F8942A9831
:10011000E0910A01F0910B018091FA0109951C9977
:10012000FECFE0910601F091070109958093FC0153
:10013000789408952A98E0910A01F0910B018FEFCD
:100140000995E0910A01F0910B018FEF0995E0917B
:100150000A01F0910B018FEF0995E0910A01F091EE
:100160000B018FEF099589E993E00197F1F700C042
:100170000895CF92DF92EF92FF92CF93F894E0919F
:100180000A01F0910B018091FA0109951C99FECFAB
:100190008091FC018B7569F0E0910601F0910701F7
:1001A0000995C82ED12CE12CF12C7601DD24CC242C
:1001B00003C0C12CD12C7601E0910601F09107011A
:1001C0000995C82FE0910601F09107010995A70153
:1001D0009601282BDA01C9017894BC01CD017C2B52
:1001E000CF91FF90EF90DF90CF900895CF92DF9264
:1001F000EF92FF92CF93DF938091FC018B7599F082
:10020000E0910601F0910701099590E0A0E0B0E0CF
:10021000DC01992788278093010290930202A09322
:100220000302B0930402C1E0D2E0C880D980EA8022
:10023000FB80E0910601F09107010995D82AC88258
:10024000D982EA82FB82E0910601F09107010995CB
:10025000C82AC882D982EA82FB82DF91CF91FF90BF
:10026000EF90DF90CF9008950F931F93CF93DF937C
:10027000E0910401F0910501808180648083E09128
:100280000401F09105018081877C88608083F89467
:100290002A98E0910A01F0910B018091FA010995E9
:1002A0001C99FECFE0910601F09107010995082FF6
:1002B00010E0102F0027CDEFD1E019830883E091E3
:1002C0000601F091070109959801282BC90199832E
:1002D00088837894DF91CF911F910F910895E091D9
:1002E0000401F091050180818F7B8083E0910401FE
:1002F000F09105018081877C88608083F8942A983A
:10030000E0910A01F0910B018091FA010995E091C9
:100310000801F09109018091FD019091FE0109957C
:10032000789408950F931F93CF93DF93E091040186
:10033000F0910501808180648083E0910401F09157
:1003400005018081877C80618083F8942A98E09100
:100350000A01F0910B018091FA0109951C99FECFD9
:10036000E0910601F09107010995082F10E0102F88
:100370000027CFEFD1E019830883E0910601F091C7
:10038000070109959801282BC901998388837894DE
:10039000DF91CF911F910F910895E0910401F091A9
:1003A000050180818F7B8083E0910401F09105013C
:1003B0008081877C80618083F8942A98E0910A018B
:1003C000F0910B018091FA010995E0910801F091FB
:1003D00009018091FF019091000209957894089598
:1003E000299A91E39A95F1F70000F894E0910201BF
:1003F000F0910301982F97708081887F892B8083EB
:100400002A98E0910001F091010181818F71806251
:1004100081830E94CD010E946F011C99FECFE09163
:100420000401F0910501808180648083E0910401E2
:10043000F09105018081877C88618083E0910A01C9
:10044000F0910B018091FA0109950E94F6007894D1
:1004500029986091010270910202809103029091AB
:1004600004020895CF93C82FE0910201F091030197
:10047000862F87706081687F682B60830E94CD0122
:10048000E0910001F09101019C2F9295990F907ECF
:1004900081818F71892B8183299A81E38A95F1F774
:1004A00000000E946F011C99FECF2998E091040181
:1004B000F09105018081806480832A98CD7FC430CB
:1004C00099F4E0910401F09105018081877C8063BB
:1004D00080830E94B90060930502709306028093A6
:1004E00007029093080211C0E0910401F091050108
:1004F0008081886380830E94B900609309027093B1
:100500000A0280930B0290930C02CF910895E09120
:100510000C01F0910D0109952A9A219A0E949A00E6
:100520000E9434010E9492010E947700E091020132
:10053000F0910301818180618183E0910201F0915A
:10054000030181818F7D8183E0911801F091190170
:100550008081803110F08FE08083A0911801B091EC
:100560001901EDEFF1E09C919F708081807F892BD4
:1005700080830E946F010E94CD0160E084E00E94B0
:10058000320266E084E00E9432020895AAE7B0E0F9
:100590008C9180688C93ECE7F0E080818F7D808384
:1005A00080818F7780838081806480838081807F59
:1005B00080838081876080838C91887F8C938C91ED
:1005C00087608C930895CF93DF9300D0CDB7DEB7CB
:1005D000809178008983809179008A8389819A81CA
:1005E0000F900F90DF91CF910895EF92FF920F93AC
:1005F0001F93CF93DF93CDB7DEB728970FB6F8944C
:10060000DEBF0FBECDBFFE01319688E0DF011D9237
:100610008A95E9F70AE710E07E01B9E0EB0EF11CDC
:100620008D819E8198878F838B819C819E838D8312
:1006300089819A819C838B837894F801808180647E
:100640008083D8018C9184FFFCCF0E94E3029A83BF
:100650008983FE013196AC01219131918217930774
:100660000CF4C901241735070CF4A901EE15FF0598
:1006700099F74A5F5F4F4817590794F228960FB6CB
:10068000F894DEBF0FBECDBFDF91CF911F910F91C8
:10069000FF90EF900895FF920F931F93CF93DF93F6
:1006A000A895ECE7F0E09081907F90839081892B72
:1006B00080830E94F5026894FF24F3F800E010E0C4
:1006C000CAE7D0E0A895888180648883888184FF08
:1006D000FDCF0E94E302080F191FFA9499F7C80191
:1006E000969587959695879596958795DF91CF9165
:1006F0001F910F91FF900895CF93DF9387E00E94A1
:100700004B03C0911A01D0911B012A813B81821BAE
:10071000930BBC0180E090E00E94CC0F2C813D81C6
:100720004E815F810E94330F0E94A00F862FDF91C0
:10073000CF910895CF92DF92EF92FF920F931F9384
:10074000CF93DF93082F853608F004E618E0C0E069
:10075000D0E087E00E944B03C80FD91F1150C9F7A2
:10076000E0911A01F0911B01D695C795D695C795D2
:10077000D695C795D183C083C0911A01D0911B0132
:10078000602F70E080E090E00E94CE0F2AE037ED0D
:1007900043E25CE30E945E102AE939E949E450E44F
:1007A0000E94CF0E6B017C016881798180E090E02E
:1007B0000E94CC0F9B01AC01C701B6010E94330F10
:1007C0009B01AC016DEC7CEC84E890E40E94330F5B
:1007D0006B017C0120E030E040E854E40E945A10B4
:1007E000181644F40F2EC12CD12CF0E8EF2EF4E4AF
:1007F000FF2EF02DC701B6010E94A00F79836883F8
:10080000C0911A01D0911B016881798180E090E04C
:100810000E94CC0F6B017C019B01AC016DEC7CEC68
:1008200084E890E40E94330F9B01AC016AE979E906
:1008300089E490E40E94330F0E94A00F7B836A83B7
:1008400080E090E00E94CC0F9B01AC01C701B60193
:100850000E94CE0E20E030E048EC52E40E94330FBC
:100860006C837D838E839F83DF91CF911F910F9146
:10087000FF90EF90DF90CF9008955B9A08955B987A
:100880000895539A0E943F0408959BB188E08927F8
:100890008BB908951092ED015A9AEFEFF7ED319769
:1008A000F1F700C000005A98FFEF2FEB31E2F15052
:1008B00020403040E1F700C000008823D1F0909143
:1008C000ED01913071F404C09091ED01913049F443
:1008D0001092ED018091EC018B3069F0813069F468
:1008E0000895E3E3F7E03197F1F7815069F78CE081
:1008F00008958CE008958BE0089583E00895FF92B9
:100900000F931F93CF93DF938C01F62EEA01109281
:10091000ED01E0911401F091150185E391E0099555
:10092000E0911401F0911501C8010995E0911401BD
:10093000F091150182E391E009952097F1F0A895D7
:100940008091ED01813081F405C0A8958091ED0181
:10095000813051F41092ED018091EC018B3079F0EF
:100960008F1571F080E00CC083E397E00197F1F7F9
:100970002197209751F78CE003C08CE001C08BE0F9
:10098000DF91CF911F910F91FF900895EF92FF9209
:100990000F931F93CF93DF938C01EB01E42EF22E84
:1009A0001092ED01E0911401F091150185E391E0C1
:1009B0000995E0911401F0911501C8010995E091A4
:1009C0001401F0911501CE010995E0911401F09107
:1009D000150182E391E00995FF20D9F08091ED01A6
:1009E000813079F404C08091ED01813051F410928E
:1009F000ED018091EC018B3071F08E1569F080E093
:100A00000BC083E397E00197F1F7FA9461F78CE06C
:100A100003C08CE001C08BE0DF91CF911F910F915B
:100A2000FF90EF900895CF93DF93D82FC62F1092A9
:100A3000ED01E0911401F091150185E391E0099534
:100A4000E0911401F09115018CE191E00995E0919C
:100A50001201F091130180E38D0F0995E0911401CB
:100A6000F091150182E391E00995CC23D1F08091BA
:100A7000ED01813071F404C08091ED01813049F4C1
:100A80001092ED018091EC018B3069F08A3069F4AD
:100A90000DC083E397E00197F1F7C15069F78CE04F
:100AA00005C08CE003C08BE001C080E0DF91CF91F6
:100AB0000895CF93DF93D82FC62F8FEF8D0F8530FA
:100AC00008F046C01092ED01E0911401F09115017B
:100AD00085E391E00995E0911401F091150180E220
:100AE00091E00995E0911201F091130180E38D0FDF
:100AF0000995E0911401F091150182E391E00995C7
:100B0000A895CC2339F18091ED018130C9F404C05E
:100B10009091ED019130A1F41092ED018091EC01E2
:100B20008B30D1F08A30D1F4AD2FB0E0A45DBE4F50
:100B3000E0910E01F0910F018C9109958AE00FC0B0
:100B400083E397E00197F1F7C15011F78CE007C0FC
:100B50008BE005C08CE003C08BE001C08CE0DF912E
:100B6000CF9108950F931F93CF93DF93062F78941F
:100B7000863008F081E0A82FB0E0A45DBE4FE09180
:100B80000E01F0910F018C910995A895802F0E947C
:100B90004A048130D1F0CDE2D1E011E0E0910E01C4
:100BA000F0910F0189910995A895802F0E944A0420
:100BB000813039F4E0911601F091170110838AE039
:100BC00007C01F5F163051F702C08AE001C08BE0FA
:100BD000DF91CF911F910F910895CF93C82FE0918E
:100BE0001001F0911101099564E68C2F0E94B20565
:100BF0008A3009F0FFCF44E650E06AE084E291E0F9
:100C00000E947F0444E650E06AE088E291E00E949E
:100C10007F04CF910895399A419A0895399808959B
:100C200084B18C6284B98CE58CBD8DB581608DBD3D
:100C300008958EBD0DB407FEFDCF0895CF93C82F44
:100C4000892F0E9419068C2F0E941906CF910895B2
:100C50001EBC0DB407FEFDCF8EB50895E0ECF0E0AC
:100C6000908195FFFDCF8093C60008951F93CF9389
:100C7000DF93EC018881882351F010E00E942E065A
:100C80001F5FFE01E10FF11D80818111F7CFDF9120
:100C9000CF911F9108951F93CF93DF93EC0188812B
:100CA000882351F010E00E942E061F5FFE01E10F25
:100CB000F11D80818111F7CFDF91CF911F910895B0
:100CC0008093C400089588E98093C10086E08093F2
:100CD000C200089580B7806880BFB198EFE6F0E069
:100CE00080818160808343E450E060E470E08AEBBF
:100CF00092E00E942F120E94C6020E9487028FED8E
:100D000093EE9093850080938400E1E8F0E0808189
:100D100085608083529AECE6F0E080818860808371
:100D200082E890E00E943F120E94ED0583E890E087
:100D30000E943F128130A9F01092EE021092ED0253
:100D40001092F0021092EF021092F1021092F20251
:100D50001092F3021092F40261E083E890E00E94A6
:100D600057128091F5029091F6029C01285532406D
:100D7000293B3B4058F088E592E090931102809324
:100D800010029093F6028093F50204C09093110232
:100D90008093100243E450E060E470E08AEB92E05C
:100DA0000E944712E8E6F0E080818260808380E064
:100DB0000E94A90E88EB9BE090930F0280930E0295
:100DC00080E49DE0A3E0B0E08093120290931302D0
:100DD000A0931402B09315020E941A0B8091F001A7
:100DE0009091F101A091F201B091F3010196A11D42
:100DF000B11D8093F0019093F101A093F201B093A3
:100E0000F30140910E0250910F0260E070E08417F0
:100E10009507A607B70718F40E943D0402C00E9478
:100E20003F044091F0015091F1016091F201709105
:100E3000F3018091120290911302A0911402B091DB
:100E4000150284179507A607B70740F41092F00122
:100E50001092F1011092F2011092F301A895BCCF0B
:100E60001F920F920FB60F9211242F933F934F931F
:100E70005F936F937F938F939F93AF93BF93EF9302
:100E8000FF938091ED01811104C08091C6000E9402
:100E9000FD09FF91EF91BF91AF919F918F917F914C
:100EA0006F915F914F913F912F910F900FBE0F90D7
:100EB0001F9018951F920F920FB60F9211242F9327
:100EC0003F934F935F936F937F938F939F93AF93D2
:100ED000BF93EF93FF9380911002909111020197BD
:100EE0009093110280931002892B11F40E940E0638
:100EF0008FED93EE9093850080938400FF91EF91A6
:100F0000BF91AF919F918F917F916F915F914F9121
:100F10003F912F910F900FBE0F901F901895F8944E
:100F2000A895E0E6F0E08081886180838FE480838B
:100F300008950E940B060E948F070E9441040E94A0
:100F40003D040E946A061F920F920FB60F92112461
:100F50002F933F934F935F936F937F938F939F93C1
:100F6000AF93BF93EF93FF930E940E06FF91EF9113
:100F7000BF91AF919F918F917F916F915F914F91B1
:100F80003F912F910F900FBE0F901F9018951F92B9
:100F90000F920FB60F9211242F933F934F935F93AD
:100FA0006F937F938F939F93AF93BF93EF93FF9331
:100FB000339B6FC08091F5029091F60290931102DD
:100FC000809310020E943D042FEF8FE392E02150A6
:100FD00080409040E1F700C000008091EE019091C8
:100FE000EF0101969093EF018093EE01339907C0D2
:100FF0000E943F041092EF011092EE014AC0A895A2
:10100000889708F443C02FEF8FE191E02150804092
:101010009040E1F700C0000044E650E06AE089E358
:1010200091E00E947F042FEF8FE392E021508040F7
:101030009040E1F700C0000044E650E068E08DE336
:1010400091E00E947F045A9A2FEF8FE392E02150A3
:1010500080409040E1F700C000000E943F043399B7
:10106000FECF2FEF8FE39BE0215080409040E1F7CF
:1010700000C000000E940E062FEF8FE39BE021507E
:1010800080409040E1F700C0000003C00E9445048A
:101090009BCFFF91EF91BF91AF919F918F917F91E6
:1010A0006F915F914F913F912F910F900FBE0F90D5
:1010B0001F90189581E08093ED0161E471E086E175
:1010C00092E00E94A211892B21F083E08093EC0131
:1010D00083C165E471E086E192E00E94A211892B50
:1010E00021F089E08093EC0177C169E471E086E149
:1010F00092E00E94A211892B21F084E08093EC0100
:101100006BC16DE471E086E192E00E94A211892B2F
:1011100021F087E08093EC015FC16DE371E086E12F
:1011200092E00E94A211892B21F088E08093EC01CB
:1011300053C161E571E086E192E00E94A211892B22
:1011400021F08AE08093EC0147C164E571E086E11B
:1011500092E00E94A211892B21F08BE08093EC0198
:101160003BC16AE571E086E192E00E94A211892B01
:1011700021F085E08093EC012FC16EE571E086E1FE
:1011800092E00E94A211892B21F08CE18093EC0166
:1011900023C162E671E086E192E00E94A211892BF0
:1011A00021F081E08093EC0117C166E671E086E1F1
:1011B00092E00E94A211892B21F088E18093EC013A
:1011C0000BC16AE671E086E192E00E94A211892BD0
:1011D00021F08AE18093EC01FFC06EE671E086E1C8
:1011E00092E00E94A211892B21F083E28093EC010E
:1011F000F3C062E771E086E192E00E94A211892BC0
:1012000021F084E28093EC01E7C066E771E086E1BB
:1012100092E00E94A211892B21F08EE18093EC01D3
:10122000DBC06AE771E086E192E00E94A211892B9F
:1012300021F08FE18093EC01CFC06EE771E086E191
:1012400092E00E94A211892B21F082E28093EC01AE
:10125000C3C062E871E086E192E00E94A211892B8E
:1012600021F08DE08093EC01B7C066E871E086E183
:1012700092E00E94A211892B21F08FE08093EC0173
:10128000ABC06AE871E086E192E00E94A211892B6E
:1012900021F080E28093EC019FC06EE871E086E16E
:1012A00092E00E94A211892B21F081E28093EC014F
:1012B00093C062E971E086E192E00E94A211892B5D
:1012C00021F08EE08093EC0187C066E971E086E151
:1012D00092E00E94A211892B21F080E18093EC0121
:1012E0007BC06AE971E086E192E00E94A211892B3D
:1012F00021F08BE18093EC016FC06EE971E086E133
:1013000092E00E94A211892B21F081E18093EC01EF
:1013100063C062EA71E086E192E00E94A211892B2B
:1013200021F089E18093EC0157C066EA71E086E123
:1013300092E00E94A211892B21F082E18093EC01BE
:101340004BC06AEA71E086E192E00E94A211892B0B
:1013500021F083E18093EC013FC06EEA71E086E109
:1013600092E00E94A211892B21F08DE18093EC0183
:1013700033C062EB71E086E192E00E94A211892BFA
:1013800021F087E18093EC0127C066EB71E086E1F4
:1013900092E00E94A211892B21F084E18093EC015C
:1013A0001BC06AEB71E086E192E00E94A211892BDA
:1013B00021F085E18093EC010FC06EEB71E086E1D6
:1013C00092E00E94A211892B21F086E18093EC012A
:1013D00003C01092ED0108958091F901843050F01E
:1013E00081E08093F80169E172E08AE792E00E946F
:1013F0009B1108951092F80108958A3049F08D30BC
:1014000061F4E091F901F0E0EA5EFD4F1082089589
:101410000E945A081092F9010895E091F90191E0B3
:101420009E0F9093F901F0E0EA5EFD4F80830895EE
:101430008F929F92AF92BF92CF92DF92EF92FF92E4
:10144000CF93DF93C091EC02D0E06091EB0270E0AB
:101450006C1B7D0B882777FD8095982F0E94CE0FFF
:101460009B01AC0160E070E0CB010E94330F6B0187
:101470007C016093E7027093E8028093E902909305
:10148000EA026091DF027091E0028091E1029091A6
:10149000E2020E94CC0F4B015C01BE01882777FD60
:1014A0008095982F0E94CE0F9B01AC01C701B60119
:1014B0000E945E109B01AC01C501B4010E94CE0EDA
:1014C0000E94A00F6093E3027093E4028093E50210
:1014D0009093E60242E150E061E670E08BED92E02D
:1014E0000E944712DF91CF91FF90EF90DF90CF9055
:1014F000BF90AF909F908F900895CF92DF92EF9220
:10150000FF920F931F934091BE025091BF026091D2
:10151000C0027091C1028091C2029091C302A09159
:10152000C402B091C5028A019B01081B190B2A0B4A
:101530003B0BC901B8010E94CC0F6B017C014091AB
:10154000CE025091CF026091D0027091D102809171
:10155000D2029091D302A091D402B091D5028A0117
:101560009B01081B190B2A0B3B0BC901B8010E94F8
:10157000CE0F9B01AC01C701B6010E94330FAB0136
:10158000BC014093CA025093CB026093CC0270938B
:10159000CD0280E590E00E9469121F910F91FF90AB
:1015A000EF90DF90CF900895CF92DF92EF92FF926D
:1015B000CF93C82FA8950E94F0016B017C01A895DC
:1015C0008C2F0E94F001C60ED71EE81EF91EF6945D
:1015D000E794D794C794C092C602D092C702E09213
:1015E000C802F092C902CF91FF90EF90DF90CF90A8
:1015F00008950F931F930E94F0010091C60210916D
:10160000C7022091C8023091C902601B710B820B86
:10161000930B0E94CE0F2091CA023091CB024091D1
:10162000CC025091CD020E94330F0E949B0F1F915C
:101630000F910895CF92DF92EF92FF920F931F9335
:10164000CF93DF93CDB7DEB7C158D1090FB6F89469
:10165000DEBF0FBECDBF8091ED01813009F069C3BF
:101660001092ED018091EC0190E0FC013197E432A1
:10167000F10508F04BC3EC5CFF4F0C9414118AEA9F
:1016800091E00E94360682EC91E00E94360641C34A
:1016900064E681E00E9413054CC324E64AE060ED55
:1016A00071E085ED91E00E94C60443C344E650E03A
:1016B0006AE088E291E00E947F043BC38AE792E0FF
:1016C0000E94741160930D0234C344E650E06AE056
:1016D00089ED91E00E947F0488EB9BE090930F02DC
:1016E00080930E0280EA96E8A1E0B0E080931202B7
:1016F00090931302A0931402B09315021AC344E608
:1017000050E06AE088E291E00E947F0488EB9BE071
:1017100090930F0280930E0280E49DE0A3E0B0E07E
:101720008093120290931302A0931402B0931502B7
:10173000F0C28EE591E00E9436068DED91E00E94A8
:101740003606E7C282E890E00E943F120E94ED0553
:10175000F0C280E00E94F90AC090D602D12CE12CA0
:10176000F12CA70196010E94F510CA01B901A70149
:1017700096010E94E5102AE0AE014E5F5F4F0E9485
:10178000C71186E691E00E943606CE0102960E94BD
:101790004B06BFC280E00E94D40A8AE691E00E9414
:1017A0003606B7C28EE691E00E943606198289811C
:1017B000843008F0AEC2E981F0E0E654FD4F80814C
:1017C000805D0E942E0689818F5F898389818430A4
:1017D00090F39FC219828981843088F4E981A981BC
:1017E000F0E0E654FD4FB0E0A658BD4F8C91805319
:1017F000808389818F5F89838981843078F344E095
:1018000050E060E470E08AEB92E00E94471282E7C9
:1018100091E00E9436067DC28AE792E00E94741130
:101820006093D2027093D3028093D4029093D50236
:1018300060E086E00E943202AB01BC0185E092E0EC
:101840000E947B1280E00E94F0016093C2027093BC
:10185000C3028093C4029093C50241E250E060E469
:1018600070E08AEB92E00E9447120E947D0A10927B
:10187000C6021092C7021092C8021092C90286E7EF
:1018800091E00E94360645C28AE792E00E947411F8
:101890006093CE027093CF028093D0029093D102D6
:1018A00080E00E94F0016093BE027093BF028093BB
:1018B000C0029093C10241E250E060E470E08AEB24
:1018C00092E00E9447120E947D0A1092C602109276
:1018D000C7021092C8021092C9028AE791E00E94E2
:1018E000360617C260E087E00E943202AB01BC01FD
:1018F00089E092E00E947B128EE791E00E9436061A
:1019000008C282E891E00E9436068091F80188239F
:1019100081F18AE792E00E947411603171058105BE
:1019200091054CF46093F4017093F5018093F601F6
:101930009093F7010CC08FE090E0A0E0B0E08093BE
:10194000F4019093F501A093F601B093F70104EF31
:1019500011E0D8016C9181E890E00E945712EDEF00
:10196000F1E0D8019C919F708081807F892B8083DA
:10197000D0C181E890E00E943F124AE0BE016E5F54
:101980007F4F90E00E94BC11CE0102960E944B0650
:10199000C0C18091F801882309F4CBC18AE792E0A5
:1019A0000E9456110E949A0348E050E063E770E0FD
:1019B0008DEE92E00E94471286E891E00E94360682
:1019C000A8C18AE792E00E9456118093EC0286E05B
:1019D0000E94F0016093DF027093E0028093E102C5
:1019E0009093E20242E150E061E670E08BED92E01C
:1019F0000E9447120E94180A8AE891E00E94360667
:101A000088C18AE792E00E9456118093EB0286E03B
:101A10000E94F0016093DB027093DC028093DD0290
:101A20009093DE0242E150E061E670E08BED92E0DF
:101A30000E9447120E94180A8EE891E00E94360622
:101A400068C182E991E00E9436068091F8018823FE
:101A5000A1F08AE792E00E9474114CE3469F900146
:101A6000479F300D11243093F6022093F502B901FF
:101A70008BE790E00E9475124CC12091F5023091E5
:101A8000F602A9E8B8E80E941A11969587959295F2
:101A900082958F7089279F708927BC0180E090E034
:101AA0002AE0AE014E5F5F4F0E94C711CE01029641
:101AB0000E944B062EC10E947C034AE0BE016E5F6D
:101AC0007F4F90E00E94BC1186E991E00E943606AB
:101AD000CE0102960E944B061CC1BFEFEFE1F1E080
:101AE000B150E040F040E1F700C0000044E650E0B3
:101AF0006AE089E391E00E947F042FEF8FE392E098
:101B0000215080409040E1F700C0000024E64AE008
:101B10006AE772E080EE91E00E94C604AFEFBFE397
:101B2000E2E0A150B040E040E1F700C0000044E630
:101B300050E06AE089ED91E00E947F048EE991E037
:101B40000E943606E6C082EA91E00E94360682ECE8
:101B500091E00E943606DDC08091F801882309F4E7
:101B600046C08AE792E00E945611182F863008F08E
:101B7000E0C0F9E929E581E0F15020408040E1F73B
:101B8000000044E650E06AE089E391E00E947F04AF
:101B90008A3009F0CEC068EC812F0E9459058A3046
:101BA00009F0B7C09FEFAFEFB8E09150A040B04050
:101BB000E1F700C000004CE251E06AE089ED91E0FD
:101BC0000E947F048A3009F0B4C0E9E9F9E521E018
:101BD000E150F0402040E1F70000612F82E890E002
:101BE0000E94571286EA91E00E94360692C082E86F
:101BF00090E00E943F124AE0BE016E5F7F4F90E08E
:101C00000E94BC1186EA91E00E943606CE0102963F
:101C10000E944B067EC08EEA91E00E94360684EE5A
:101C200091E00E94360675C08091F8018823C9F0C2
:101C30008AE792E00E9474116093D7027093D802F1
:101C40008093D9029093DA0241E250E060E470E0C0
:101C50008AEB92E00E94471282EB91E00E943606E6
:101C600058C082EB91E00E9436066091D7027091D5
:101C7000D8028091D9029091DA022AE0AE014E5F3B
:101C80005F4F0E94C711CE0102960E944B0641C0D1
:101C900086EB91E00E94360680E00E94F0012AE087
:101CA000AE014E5F5F4F0E94C7110E944B0631C0CC
:101CB0008AEB91E00E94360686E00E94F0012AE05D
:101CC000AE014E5F5F4F0E94C7110E944B0621C0BC
:101CD0008EEB91E00E9436068091F801882349F04E
:101CE00040E450E060E070E08AE792E00E94471232
:101CF00010C040E450E060E070E0CE0102960E9427
:101D00002F12CE0102960E944B0603C01092EC01E6
:101D100010C082E391E00E9436061092F801109202
:101D2000EC018091F5029091F6029093110280935C
:101D30001002CF57DF4F0FB6F894DEBF0FBECDBFF6
:101D4000DF91CF911F910F91FF90EF90DF90CF9097
:101D50000895CF92DF92EF92FF92CF93C82FA8956C
:101D60000E94F0016B017C01A8958C2F0E94F0016C
:101D7000C60ED71EE81EF91EF694E794D794C794B2
:101D8000C092F702D092F802E092F902F092FA02C1
:101D9000CF91FF90EF90DF90CF9008955058BB27E0
:101DA000AA270ED04DC13ED130F043D120F031F4FE
:101DB0009F3F11F41EF433C10EF4E095E7FB29C1F7
:101DC000E92F4FD180F3BA1762077307840795078D
:101DD00018F071F49EF567C10EF4E0950B2EBA2F42
:101DE000A02D0B01B90190010C01CA01A001112421
:101DF000FF27591B99F0593F50F4503E68F11A16CD
:101E0000F040A22F232F342F4427585FF3CF46955D
:101E100037952795A795F0405395C9F77EF41F167F
:101E2000BA0B620B730B840BBAF09150A1F0FF0F49
:101E3000BB1F661F771F881FC2F70EC0BA0F621F35
:101E4000731F841F48F4879577956795B795F79525
:101E50009E3F08F0B3CF9395880F08F09927EE0FB7
:101E60009795879508950CD0EBC0E3D040F0DAD079
:101E700030F021F45F3F19F0CCC0511115C1CFC033
:101E8000F0D098F39923C9F35523B1F3951B550B63
:101E9000BB27AA2762177307840738F09F5F5F4F3D
:101EA000220F331F441FAA1FA9F333D00E2E3AF07E
:101EB000E0E830D091505040E695001CCAF729D098
:101EC000FE2F27D0660F771F881FBB1F26173707E7
:101ED0004807AB07B0E809F0BB0B802DBF01FF2717
:101EE00093585F4F2AF09E3F510568F092C0DCC0C6
:101EF0005F3FECF3983EDCF3869577956795B79551
:101F0000F7959F5FC9F7880F911D9695879597F96B
:101F10000895E1E0660F771F881FBB1F62177307E4
:101F20008407BA0720F0621B730B840BBA0BEE1FF9
:101F300088F7E095089504D06894B111B5C008956C
:101F400098D088F09F5790F0B92F9927B751A0F0FB
:101F5000D1F0660F771F881F991F1AF0BA95C9F73D
:101F600012C0B13081F09FD0B1E008959CC0672FBE
:101F7000782F8827B85F39F0B93FCCF386957795ED
:101F80006795B395D9F73EF49095809570956195D6
:101F90007F4F8F4F9F4F0895E89409C097FB3EF401
:101FA00090958095709561957F4F8F4F9F4F9923A6
:101FB000A9F0F92F96E9BB279395F6958795779524
:101FC0006795B795F111F8CFFAF4BB0F11F460FFE4
:101FD0001BC06F5F7F4F8F4F9F4F16C0882311F03C
:101FE00096E911C0772321F09EE8872F762F05C050
:101FF000662371F096E8862F70E060E02AF09A95EB
:10200000660F771F881FDAF7880F9695879597F9DF
:10201000089597F99F6780E870E060E008959FEF6A
:1020200080EC089500240A9416161706180609066F
:10203000089500240A94121613061406050608953E
:10204000092E0394000C11F4882352F0BB0F40F4C6
:10205000BF2B11F460FF04C06F5F7F4F8F4F9F4F06
:10206000089557FD9058440F551F59F05F3F71F088
:102070004795880F97FB991F61F09F3F79F08795EF
:102080000895121613061406551FF2CF4695F1DF78
:1020900008C0161617061806991FF1CF8695710508
:1020A000610508940895E894BB2766277727CB013C
:1020B00097F9089566D008F48FEF08950BD0C0CF3C
:1020C000B1DF28F0B6DF18F0952309F0A2CFA7CF33
:1020D0001124EACFC6DFA0F3959FD1F3950F50E00E
:1020E000551F629FF001729FBB27F00DB11D639FCA
:1020F000AA27F00DB11DAA1F649F6627B00DA11D70
:10210000661F829F2227B00DA11D621F739FB00D15
:10211000A11D621F839FA00D611D221F749F332785
:10212000A00D611D231F849F600D211D822F762F1E
:102130006A2F11249F5750408AF0E1F088234AF01B
:10214000EE0FFF1FBB1F661F771F881F9150504067
:10215000A9F79E3F510570F05CCFA6CF5F3FECF32F
:10216000983EDCF3869577956795B795F795E79553
:102170009F5FC1F7FE2B880F911D9695879597F964
:102180000895990F0008550FAA0BE0E8FEEF161608
:102190001706E807F907C0F012161306E407F5075B
:1021A00098F0621B730B840B950B39F40A2661F0CF
:1021B000232B242B252B21F408950A2609F4A14072
:1021C000A6958FEF811D811D0895DB018F939F934D
:1021D0000E942911BF91AF91A29F800D911DA39FD5
:1021E000900DB29F900D11240895052E97FB1EF4BB
:1021F00000940E940C1157FD07D00E94341107FC77
:1022000003D04EF40C940C115095409530952195C7
:102210003F4F4F4F5F4F0895909580957095619512
:102220007F4F8F4F9F4F0895EE0FFF1F0590F49142
:10223000E02D0994A29FB001B39FC001A39F700D30
:10224000811D1124911DB29F700D811D1124911DBE
:1022500008950E941A11A59F900DB49F900DA49F00
:10226000800D911D11240895A1E21A2EAA1BBB1BFB
:10227000FD010DC0AA1FBB1FEE1FFF1FA217B30752
:10228000E407F50720F0A21BB30BE40BF50B661F68
:10229000771F881F991F1A9469F76095709580952C
:1022A00090959B01AC01BD01CF010895FC018827E9
:1022B0009927E89421912032E9F3293010F02E304B
:1022C000C8F32B3241F02D3239F4689404C00E94D7
:1022D000EB11820F911D219120532A30C0F31EF47F
:1022E000909581959F4F08951F93FC01992788270A
:1022F000BC01E89411911032E9F3193010F01E304E
:10230000C8F31B3251F01D3249F4689406C00E9494
:10231000D611610F711D811D911D119110531A303D
:10232000B0F33EF490958095709561957F4F8F4FF7
:102330009F4F1F910895FB01DC0101900D92002039
:10234000E1F70895FB0151915523A9F0BF01DC018C
:102350004D9145174111E1F759F4CD01019000204D
:1023600049F04D9140154111C9F3FB014111EFCFE7
:1023700081E090E001970895BB274A3031F499231A
:1023800022F4BDE2909581959F4F0C941612BB27C5
:102390002A3051F4992342F4BDE2909580957095CE
:1023A00061957F4F8F4F9F4F0C94F411592F482FF9
:1023B000372F262F660F771F881F991F660F771FED
:1023C000881F991F620F731F841F951F660F771F49
:1023D000881F991F08957AE0979F902D879F802DE1
:1023E000910D11240895BB27FA01A62F62177105DC
:1023F00081059105330B30FB66F0AA27660F771F26
:10240000881F991FAA1FA21710F0A21B63953850AE
:10241000A9F7A05DAA3308F0A95DA19336F7B11121
:10242000B1931082CA010C948812BB27FB01552777
:10243000AA27880F991FAA1FA41710F0A41B839521
:102440005051B9F7A05DAA3308F0A95DA193009798
:1024500079F7B111B1931192CB010C948812DC0180
:10246000CB01FC01F999FECF06C0F2BDE1BDF89A9F
:10247000319600B40D9241505040B8F70895F99943
:10248000FECF92BD81BDF89A992780B50895DC01F1
:10249000A40FB51F4150504048F0CB01840F951F49
:1024A0002E910E94581241505040D0F70895262F87
:1024B000F999FECF92BD81BDF89A019700B402163A
:1024C00039F01FBA20BD0FB6F894FA9AF99A0FBEE8
:1024D00008950396272F0E9458120E945712252F05
:1024E0000E945812242F0C9458120196272F0E94F4
:1024F00058120C945712242F0E949912252F0E94D3
:1025000099120C9483120E949812272F0C949912FE
:10251000DC01FC01672F71917723E1F7329704C04A
:102520007C916D9370836291AE17BF07C8F30895D5
:10253000262FF999FECF1FBA92BD81BD20BD0FB6DF
:10254000F894FA9AF99A0FBE01960895F894FFCF7D
:10255000FD01FF01FA0128061E0619061006600695
:1025600063062E063606FC02FB02ED0253435200C0
:1025700042415500574B500050415200002F170B5D
:1025800007030D0A0041542300454E4400445343C1
:1025900000525150005343510050524400434F4E9B
:1025A000004F4B004552524F520052505400534975
:1025B0004400504F4E00574748005441500043508C
:1025C0005700475057004D4957004D585700465344
:1025D000430046414400434254004D4954004D5885
:1025E0005400544F46004742540053574700534E3F
:1025F0004100564E4100425354005652530053433B
:102600004C00574D58004443480044544D00444149
:1026100054005765696768745363616C6573310072
:102620003132333400504E5500534E4400313500A2
:0C2630004E414D005343414C4553000007
:00000001FF
